{
  "abi": [
    {
      "inputs": [
        {
          "internalType": "string",
          "name": "nameQuest",
          "type": "string"
        },
        {
          "internalType": "uint256",
          "name": "priceQuest",
          "type": "uint256"
        },
        {
          "internalType": "address",
          "name": "creator",
          "type": "address"
        },
        {
          "internalType": "string",
          "name": "desciptionQuest",
          "type": "string"
        },
        {
          "internalType": "string",
          "name": "pictureQuest",
          "type": "string"
        }
      ],
      "stateMutability": "nonpayable",
      "type": "constructor"
    },
    {
      "inputs": [
        {
          "internalType": "string",
          "name": "titleEnigme",
          "type": "string"
        },
        {
          "internalType": "string",
          "name": "contentEnigme",
          "type": "string"
        },
        {
          "internalType": "string",
          "name": "reponseEnigme",
          "type": "string"
        },
        {
          "internalType": "string",
          "name": "clueEnigme1",
          "type": "string"
        },
        {
          "internalType": "string",
          "name": "clueEnigme2",
          "type": "string"
        },
        {
          "internalType": "string",
          "name": "clueEnigme3",
          "type": "string"
        }
      ],
      "name": "createEnigme",
      "outputs": [],
      "stateMutability": "nonpayable",
      "type": "function"
    },
    {
      "inputs": [
        {
          "internalType": "uint256",
          "name": "indexEnigme",
          "type": "uint256"
        },
        {
          "internalType": "uint256",
          "name": "indexEnigmeClue",
          "type": "uint256"
        },
        {
          "internalType": "string",
          "name": "newEnigmeClue",
          "type": "string"
        }
      ],
      "name": "enigmeClueChange",
      "outputs": [],
      "stateMutability": "nonpayable",
      "type": "function"
    },
    {
      "inputs": [
        {
          "internalType": "uint256",
          "name": "indexEnigme",
          "type": "uint256"
        },
        {
          "internalType": "uint256",
          "name": "indexEnigmeClue",
          "type": "uint256"
        },
        {
          "internalType": "uint256",
          "name": "newEnigmeClueUnlock",
          "type": "uint256"
        }
      ],
      "name": "enigmeClueUnlockChange",
      "outputs": [],
      "stateMutability": "nonpayable",
      "type": "function"
    },
    {
      "inputs": [
        {
          "internalType": "uint256",
          "name": "indexEnigme",
          "type": "uint256"
        },
        {
          "internalType": "string",
          "name": "newNameEnigme",
          "type": "string"
        }
      ],
      "name": "enigmeTitleChange",
      "outputs": [],
      "stateMutability": "nonpayable",
      "type": "function"
    },
    {
      "inputs": [
        {
          "internalType": "uint256",
          "name": "",
          "type": "uint256"
        }
      ],
      "name": "enigmes",
      "outputs": [
        {
          "internalType": "string",
          "name": "enigmeTitle",
          "type": "string"
        },
        {
          "internalType": "string",
          "name": "enigmeContent",
          "type": "string"
        },
        {
          "internalType": "string",
          "name": "enigmeClue1",
          "type": "string"
        },
        {
          "internalType": "uint256",
          "name": "enigmeClue1Unlock",
          "type": "uint256"
        },
        {
          "internalType": "string",
          "name": "enigmeClue2",
          "type": "string"
        },
        {
          "internalType": "uint256",
          "name": "enigmeClue2Unlock",
          "type": "uint256"
        },
        {
          "internalType": "string",
          "name": "enigmeClue3",
          "type": "string"
        },
        {
          "internalType": "uint256",
          "name": "enigmeClue3Unlock",
          "type": "uint256"
        },
        {
          "internalType": "uint256",
          "name": "enigmeResponseCount",
          "type": "uint256"
        },
        {
          "internalType": "bool",
          "name": "enigmeComplete",
          "type": "bool"
        },
        {
          "internalType": "uint256",
          "name": "enigmeFinishByCount",
          "type": "uint256"
        }
      ],
      "stateMutability": "view",
      "type": "function"
    },
    {
      "inputs": [],
      "name": "getEnigmeCount",
      "outputs": [
        {
          "internalType": "uint256",
          "name": "",
          "type": "uint256"
        }
      ],
      "stateMutability": "view",
      "type": "function"
    },
    {
      "inputs": [
        {
          "internalType": "uint256",
          "name": "enigmeIndex",
          "type": "uint256"
        }
      ],
      "name": "getEnigmePlayersResponses",
      "outputs": [
        {
          "internalType": "string[]",
          "name": "",
          "type": "string[]"
        }
      ],
      "stateMutability": "view",
      "type": "function"
    },
    {
      "inputs": [
        {
          "internalType": "uint256",
          "name": "index",
          "type": "uint256"
        }
      ],
      "name": "getEnigmeSummary",
      "outputs": [
        {
          "internalType": "string",
          "name": "",
          "type": "string"
        },
        {
          "internalType": "string",
          "name": "",
          "type": "string"
        },
        {
          "internalType": "uint256",
          "name": "",
          "type": "uint256"
        },
        {
          "internalType": "bool",
          "name": "",
          "type": "bool"
        }
      ],
      "stateMutability": "view",
      "type": "function"
    },
    {
      "inputs": [],
      "name": "getInQuest",
      "outputs": [],
      "stateMutability": "payable",
      "type": "function"
    },
    {
      "inputs": [],
      "name": "getQuestBalance",
      "outputs": [
        {
          "internalType": "uint256",
          "name": "",
          "type": "uint256"
        }
      ],
      "stateMutability": "view",
      "type": "function"
    },
    {
      "inputs": [],
      "name": "getQuestPrice",
      "outputs": [
        {
          "internalType": "uint256",
          "name": "",
          "type": "uint256"
        }
      ],
      "stateMutability": "view",
      "type": "function"
    },
    {
      "inputs": [],
      "name": "getQuestSummary",
      "outputs": [
        {
          "internalType": "address",
          "name": "",
          "type": "address"
        },
        {
          "internalType": "string",
          "name": "",
          "type": "string"
        },
        {
          "internalType": "string",
          "name": "",
          "type": "string"
        },
        {
          "internalType": "string",
          "name": "",
          "type": "string"
        },
        {
          "internalType": "uint256",
          "name": "",
          "type": "uint256"
        },
        {
          "internalType": "uint256",
          "name": "",
          "type": "uint256"
        },
        {
          "internalType": "uint256",
          "name": "",
          "type": "uint256"
        },
        {
          "internalType": "bool",
          "name": "",
          "type": "bool"
        }
      ],
      "stateMutability": "view",
      "type": "function"
    },
    {
      "inputs": [],
      "name": "getQuestTitle",
      "outputs": [
        {
          "internalType": "string",
          "name": "",
          "type": "string"
        }
      ],
      "stateMutability": "view",
      "type": "function"
    },
    {
      "inputs": [],
      "name": "manager",
      "outputs": [
        {
          "internalType": "address",
          "name": "",
          "type": "address"
        }
      ],
      "stateMutability": "view",
      "type": "function"
    },
    {
      "inputs": [
        {
          "internalType": "address",
          "name": "",
          "type": "address"
        }
      ],
      "name": "players",
      "outputs": [
        {
          "internalType": "bool",
          "name": "",
          "type": "bool"
        }
      ],
      "stateMutability": "view",
      "type": "function"
    },
    {
      "inputs": [],
      "name": "playersCount",
      "outputs": [
        {
          "internalType": "uint256",
          "name": "",
          "type": "uint256"
        }
      ],
      "stateMutability": "view",
      "type": "function"
    },
    {
      "inputs": [],
      "name": "questCompleted",
      "outputs": [
        {
          "internalType": "bool",
          "name": "",
          "type": "bool"
        }
      ],
      "stateMutability": "view",
      "type": "function"
    },
    {
      "inputs": [],
      "name": "questDescription",
      "outputs": [
        {
          "internalType": "string",
          "name": "",
          "type": "string"
        }
      ],
      "stateMutability": "view",
      "type": "function"
    },
    {
      "inputs": [],
      "name": "questPicture",
      "outputs": [
        {
          "internalType": "string",
          "name": "",
          "type": "string"
        }
      ],
      "stateMutability": "view",
      "type": "function"
    },
    {
      "inputs": [],
      "name": "questPrice",
      "outputs": [
        {
          "internalType": "uint256",
          "name": "",
          "type": "uint256"
        }
      ],
      "stateMutability": "view",
      "type": "function"
    },
    {
      "inputs": [],
      "name": "questResponseCount",
      "outputs": [
        {
          "internalType": "uint256",
          "name": "",
          "type": "uint256"
        }
      ],
      "stateMutability": "view",
      "type": "function"
    },
    {
      "inputs": [],
      "name": "questTitle",
      "outputs": [
        {
          "internalType": "string",
          "name": "",
          "type": "string"
        }
      ],
      "stateMutability": "view",
      "type": "function"
    },
    {
      "inputs": [
        {
          "internalType": "string",
          "name": "newNameQuest",
          "type": "string"
        }
      ],
      "name": "questTitleChange",
      "outputs": [
        {
          "internalType": "string",
          "name": "",
          "type": "string"
        }
      ],
      "stateMutability": "nonpayable",
      "type": "function"
    },
    {
      "inputs": [
        {
          "internalType": "uint256",
          "name": "indexEnigme",
          "type": "uint256"
        },
        {
          "internalType": "string",
          "name": "reponsePlayer",
          "type": "string"
        }
      ],
      "name": "tryEnigmePlayerReponse",
      "outputs": [
        {
          "internalType": "bool",
          "name": "",
          "type": "bool"
        }
      ],
      "stateMutability": "nonpayable",
      "type": "function"
    },
    {
      "inputs": [
        {
          "internalType": "address",
          "name": "recipient",
          "type": "address"
        }
      ],
      "name": "withdrawBalanceQuest",
      "outputs": [],
      "stateMutability": "payable",
      "type": "function"
    }
  ],
  "devdoc": {
    "kind": "dev",
    "methods": {},
    "version": 1
  },
  "evm": {
    "assembly": "    /* \"QuestEnigme.sol\":1983:10167  contract Quest {... */\n  mstore(0x40, 0x80)\n    /* \"QuestEnigme.sol\":3528:3839  constructor (string memory nameQuest, uint priceQuest, address creator, string memory desciptionQuest, string memory pictureQuest) {... */\n  callvalue\n  dup1\n  iszero\n  tag_1\n  jumpi\n  0x00\n  dup1\n  revert\ntag_1:\n  pop\n  mload(0x40)\n  sub(codesize, bytecodeSize)\n  dup1\n  bytecodeSize\n  dup4\n  codecopy\n  dup2\n  dup2\n  add\n  0x40\n  mstore\n  dup2\n  add\n  swap1\n  tag_2\n  swap2\n  swap1\n  tag_3\n  jump\t// in\ntag_2:\n    /* \"QuestEnigme.sol\":3679:3686  creator */\n  dup3\n    /* \"QuestEnigme.sol\":3669:3676  manager */\n  0x01\n  0x00\n    /* \"QuestEnigme.sol\":3669:3686  manager = creator */\n  0x0100\n  exp\n  dup2\n  sload\n  dup2\n  0xffffffffffffffffffffffffffffffffffffffff\n  mul\n  not\n  and\n  swap1\n  dup4\n  0xffffffffffffffffffffffffffffffffffffffff\n  and\n  mul\n  or\n  swap1\n  sstore\n  pop\n    /* \"QuestEnigme.sol\":3709:3718  nameQuest */\n  dup5\n    /* \"QuestEnigme.sol\":3696:3706  questTitle */\n  0x02\n    /* \"QuestEnigme.sol\":3696:3718  questTitle = nameQuest */\n  swap1\n  dup1\n  mload\n  swap1\n  0x20\n  add\n  swap1\n  tag_6\n  swap3\n  swap2\n  swap1\n  tag_7\n  jump\t// in\ntag_6:\n  pop\n    /* \"QuestEnigme.sol\":3741:3751  priceQuest */\n  dup4\n    /* \"QuestEnigme.sol\":3728:3738  questPrice */\n  0x03\n    /* \"QuestEnigme.sol\":3728:3751  questPrice = priceQuest */\n  dup2\n  swap1\n  sstore\n  pop\n    /* \"QuestEnigme.sol\":3780:3795  desciptionQuest */\n  dup2\n    /* \"QuestEnigme.sol\":3761:3777  questDescription */\n  0x04\n    /* \"QuestEnigme.sol\":3761:3795  questDescription = desciptionQuest */\n  swap1\n  dup1\n  mload\n  swap1\n  0x20\n  add\n  swap1\n  tag_8\n  swap3\n  swap2\n  swap1\n  tag_7\n  jump\t// in\ntag_8:\n  pop\n    /* \"QuestEnigme.sol\":3820:3832  pictureQuest */\n  dup1\n    /* \"QuestEnigme.sol\":3805:3817  questPicture */\n  0x05\n    /* \"QuestEnigme.sol\":3805:3832  questPicture = pictureQuest */\n  swap1\n  dup1\n  mload\n  swap1\n  0x20\n  add\n  swap1\n  tag_9\n  swap3\n  swap2\n  swap1\n  tag_7\n  jump\t// in\ntag_9:\n  pop\n    /* \"QuestEnigme.sol\":3528:3839  constructor (string memory nameQuest, uint priceQuest, address creator, string memory desciptionQuest, string memory pictureQuest) {... */\n  pop\n  pop\n  pop\n  pop\n  pop\n    /* \"QuestEnigme.sol\":1983:10167  contract Quest {... */\n  jump(tag_10)\ntag_7:\n  dup3\n  dup1\n  sload\n  tag_11\n  swap1\n  tag_12\n  jump\t// in\ntag_11:\n  swap1\n  0x00\n  mstore\n  keccak256(0x00, 0x20)\n  swap1\n  0x1f\n  add\n  0x20\n  swap1\n  div\n  dup2\n  add\n  swap3\n  dup3\n  tag_14\n  jumpi\n  0x00\n  dup6\n  sstore\n  jump(tag_13)\ntag_14:\n  dup3\n  0x1f\n  lt\n  tag_15\n  jumpi\n  dup1\n  mload\n  not(0xff)\n  and\n  dup4\n  dup1\n  add\n  or\n  dup6\n  sstore\n  jump(tag_13)\ntag_15:\n  dup3\n  dup1\n  add\n  0x01\n  add\n  dup6\n  sstore\n  dup3\n  iszero\n  tag_13\n  jumpi\n  swap2\n  dup3\n  add\ntag_16:\n  dup3\n  dup2\n  gt\n  iszero\n  tag_17\n  jumpi\n  dup3\n  mload\n  dup3\n  sstore\n  swap2\n  0x20\n  add\n  swap2\n  swap1\n  0x01\n  add\n  swap1\n  jump(tag_16)\ntag_17:\ntag_13:\n  pop\n  swap1\n  pop\n  tag_18\n  swap2\n  swap1\n  tag_19\n  jump\t// in\ntag_18:\n  pop\n  swap1\n  jump\t// out\ntag_19:\ntag_20:\n  dup1\n  dup3\n  gt\n  iszero\n  tag_21\n  jumpi\n  0x00\n  dup2\n  0x00\n  swap1\n  sstore\n  pop\n  0x01\n  add\n  jump(tag_20)\ntag_21:\n  pop\n  swap1\n  jump\t// out\n    /* \"#utility.yul\":7:82   */\ntag_22:\n    /* \"#utility.yul\":40:46   */\n  0x00\n    /* \"#utility.yul\":73:75   */\n  0x40\n    /* \"#utility.yul\":67:76   */\n  mload\n    /* \"#utility.yul\":57:76   */\n  swap1\n  pop\n    /* \"#utility.yul\":7:82   */\n  swap1\n  jump\t// out\n    /* \"#utility.yul\":88:205   */\ntag_23:\n    /* \"#utility.yul\":197:198   */\n  0x00\n    /* \"#utility.yul\":194:195   */\n  dup1\n    /* \"#utility.yul\":187:199   */\n  revert\n    /* \"#utility.yul\":211:328   */\ntag_24:\n    /* \"#utility.yul\":320:321   */\n  0x00\n    /* \"#utility.yul\":317:318   */\n  dup1\n    /* \"#utility.yul\":310:322   */\n  revert\n    /* \"#utility.yul\":334:451   */\ntag_25:\n    /* \"#utility.yul\":443:444   */\n  0x00\n    /* \"#utility.yul\":440:441   */\n  dup1\n    /* \"#utility.yul\":433:445   */\n  revert\n    /* \"#utility.yul\":457:574   */\ntag_26:\n    /* \"#utility.yul\":566:567   */\n  0x00\n    /* \"#utility.yul\":563:564   */\n  dup1\n    /* \"#utility.yul\":556:568   */\n  revert\n    /* \"#utility.yul\":580:682   */\ntag_27:\n    /* \"#utility.yul\":621:627   */\n  0x00\n    /* \"#utility.yul\":672:674   */\n  0x1f\n    /* \"#utility.yul\":668:675   */\n  not\n    /* \"#utility.yul\":663:665   */\n  0x1f\n    /* \"#utility.yul\":656:661   */\n  dup4\n    /* \"#utility.yul\":652:666   */\n  add\n    /* \"#utility.yul\":648:676   */\n  and\n    /* \"#utility.yul\":638:676   */\n  swap1\n  pop\n    /* \"#utility.yul\":580:682   */\n  swap2\n  swap1\n  pop\n  jump\t// out\n    /* \"#utility.yul\":688:868   */\ntag_28:\n    /* \"#utility.yul\":736:813   */\n  0x4e487b7100000000000000000000000000000000000000000000000000000000\n    /* \"#utility.yul\":733:734   */\n  0x00\n    /* \"#utility.yul\":726:814   */\n  mstore\n    /* \"#utility.yul\":833:837   */\n  0x41\n    /* \"#utility.yul\":830:831   */\n  0x04\n    /* \"#utility.yul\":823:838   */\n  mstore\n    /* \"#utility.yul\":857:861   */\n  0x24\n    /* \"#utility.yul\":854:855   */\n  0x00\n    /* \"#utility.yul\":847:862   */\n  revert\n    /* \"#utility.yul\":874:1155   */\ntag_29:\n    /* \"#utility.yul\":957:984   */\n  tag_52\n    /* \"#utility.yul\":979:983   */\n  dup3\n    /* \"#utility.yul\":957:984   */\n  tag_27\n  jump\t// in\ntag_52:\n    /* \"#utility.yul\":949:955   */\n  dup2\n    /* \"#utility.yul\":945:985   */\n  add\n    /* \"#utility.yul\":1087:1093   */\n  dup2\n    /* \"#utility.yul\":1075:1085   */\n  dup2\n    /* \"#utility.yul\":1072:1094   */\n  lt\n    /* \"#utility.yul\":1051:1069   */\n  0xffffffffffffffff\n    /* \"#utility.yul\":1039:1049   */\n  dup3\n    /* \"#utility.yul\":1036:1070   */\n  gt\n    /* \"#utility.yul\":1033:1095   */\n  or\n    /* \"#utility.yul\":1030:1118   */\n  iszero\n  tag_53\n  jumpi\n    /* \"#utility.yul\":1098:1116   */\n  tag_54\n  tag_28\n  jump\t// in\ntag_54:\n    /* \"#utility.yul\":1030:1118   */\ntag_53:\n    /* \"#utility.yul\":1138:1148   */\n  dup1\n    /* \"#utility.yul\":1134:1136   */\n  0x40\n    /* \"#utility.yul\":1127:1149   */\n  mstore\n    /* \"#utility.yul\":917:1155   */\n  pop\n    /* \"#utility.yul\":874:1155   */\n  pop\n  pop\n  jump\t// out\n    /* \"#utility.yul\":1161:1290   */\ntag_30:\n    /* \"#utility.yul\":1195:1201   */\n  0x00\n    /* \"#utility.yul\":1222:1242   */\n  tag_56\n  tag_22\n  jump\t// in\ntag_56:\n    /* \"#utility.yul\":1212:1242   */\n  swap1\n  pop\n    /* \"#utility.yul\":1251:1284   */\n  tag_57\n    /* \"#utility.yul\":1279:1283   */\n  dup3\n    /* \"#utility.yul\":1271:1277   */\n  dup3\n    /* \"#utility.yul\":1251:1284   */\n  tag_29\n  jump\t// in\ntag_57:\n    /* \"#utility.yul\":1161:1290   */\n  swap2\n  swap1\n  pop\n  jump\t// out\n    /* \"#utility.yul\":1296:1604   */\ntag_31:\n    /* \"#utility.yul\":1358:1362   */\n  0x00\n    /* \"#utility.yul\":1448:1466   */\n  0xffffffffffffffff\n    /* \"#utility.yul\":1440:1446   */\n  dup3\n    /* \"#utility.yul\":1437:1467   */\n  gt\n    /* \"#utility.yul\":1434:1490   */\n  iszero\n  tag_59\n  jumpi\n    /* \"#utility.yul\":1470:1488   */\n  tag_60\n  tag_28\n  jump\t// in\ntag_60:\n    /* \"#utility.yul\":1434:1490   */\ntag_59:\n    /* \"#utility.yul\":1508:1537   */\n  tag_61\n    /* \"#utility.yul\":1530:1536   */\n  dup3\n    /* \"#utility.yul\":1508:1537   */\n  tag_27\n  jump\t// in\ntag_61:\n    /* \"#utility.yul\":1500:1537   */\n  swap1\n  pop\n    /* \"#utility.yul\":1592:1596   */\n  0x20\n    /* \"#utility.yul\":1586:1590   */\n  dup2\n    /* \"#utility.yul\":1582:1597   */\n  add\n    /* \"#utility.yul\":1574:1597   */\n  swap1\n  pop\n    /* \"#utility.yul\":1296:1604   */\n  swap2\n  swap1\n  pop\n  jump\t// out\n    /* \"#utility.yul\":1610:1917   */\ntag_32:\n    /* \"#utility.yul\":1678:1679   */\n  0x00\n    /* \"#utility.yul\":1688:1801   */\ntag_63:\n    /* \"#utility.yul\":1702:1708   */\n  dup4\n    /* \"#utility.yul\":1699:1700   */\n  dup2\n    /* \"#utility.yul\":1696:1709   */\n  lt\n    /* \"#utility.yul\":1688:1801   */\n  iszero\n  tag_65\n  jumpi\n    /* \"#utility.yul\":1787:1788   */\n  dup1\n    /* \"#utility.yul\":1782:1785   */\n  dup3\n    /* \"#utility.yul\":1778:1789   */\n  add\n    /* \"#utility.yul\":1772:1790   */\n  mload\n    /* \"#utility.yul\":1768:1769   */\n  dup2\n    /* \"#utility.yul\":1763:1766   */\n  dup5\n    /* \"#utility.yul\":1759:1770   */\n  add\n    /* \"#utility.yul\":1752:1791   */\n  mstore\n    /* \"#utility.yul\":1724:1726   */\n  0x20\n    /* \"#utility.yul\":1721:1722   */\n  dup2\n    /* \"#utility.yul\":1717:1727   */\n  add\n    /* \"#utility.yul\":1712:1727   */\n  swap1\n  pop\n    /* \"#utility.yul\":1688:1801   */\n  jump(tag_63)\ntag_65:\n    /* \"#utility.yul\":1819:1825   */\n  dup4\n    /* \"#utility.yul\":1816:1817   */\n  dup2\n    /* \"#utility.yul\":1813:1826   */\n  gt\n    /* \"#utility.yul\":1810:1911   */\n  iszero\n  tag_66\n  jumpi\n    /* \"#utility.yul\":1899:1900   */\n  0x00\n    /* \"#utility.yul\":1890:1896   */\n  dup5\n    /* \"#utility.yul\":1885:1888   */\n  dup5\n    /* \"#utility.yul\":1881:1897   */\n  add\n    /* \"#utility.yul\":1874:1901   */\n  mstore\n    /* \"#utility.yul\":1810:1911   */\ntag_66:\n    /* \"#utility.yul\":1659:1917   */\n  pop\n    /* \"#utility.yul\":1610:1917   */\n  pop\n  pop\n  pop\n  jump\t// out\n    /* \"#utility.yul\":1923:2344   */\ntag_33:\n    /* \"#utility.yul\":2012:2017   */\n  0x00\n    /* \"#utility.yul\":2037:2103   */\n  tag_68\n    /* \"#utility.yul\":2053:2102   */\n  tag_69\n    /* \"#utility.yul\":2095:2101   */\n  dup5\n    /* \"#utility.yul\":2053:2102   */\n  tag_31\n  jump\t// in\ntag_69:\n    /* \"#utility.yul\":2037:2103   */\n  tag_30\n  jump\t// in\ntag_68:\n    /* \"#utility.yul\":2028:2103   */\n  swap1\n  pop\n    /* \"#utility.yul\":2126:2132   */\n  dup3\n    /* \"#utility.yul\":2119:2124   */\n  dup2\n    /* \"#utility.yul\":2112:2133   */\n  mstore\n    /* \"#utility.yul\":2164:2168   */\n  0x20\n    /* \"#utility.yul\":2157:2162   */\n  dup2\n    /* \"#utility.yul\":2153:2169   */\n  add\n    /* \"#utility.yul\":2202:2205   */\n  dup5\n    /* \"#utility.yul\":2193:2199   */\n  dup5\n    /* \"#utility.yul\":2188:2191   */\n  dup5\n    /* \"#utility.yul\":2184:2200   */\n  add\n    /* \"#utility.yul\":2181:2206   */\n  gt\n    /* \"#utility.yul\":2178:2290   */\n  iszero\n  tag_70\n  jumpi\n    /* \"#utility.yul\":2209:2288   */\n  tag_71\n  tag_26\n  jump\t// in\ntag_71:\n    /* \"#utility.yul\":2178:2290   */\ntag_70:\n    /* \"#utility.yul\":2299:2338   */\n  tag_72\n    /* \"#utility.yul\":2331:2337   */\n  dup5\n    /* \"#utility.yul\":2326:2329   */\n  dup3\n    /* \"#utility.yul\":2321:2324   */\n  dup6\n    /* \"#utility.yul\":2299:2338   */\n  tag_32\n  jump\t// in\ntag_72:\n    /* \"#utility.yul\":2018:2344   */\n  pop\n    /* \"#utility.yul\":1923:2344   */\n  swap4\n  swap3\n  pop\n  pop\n  pop\n  jump\t// out\n    /* \"#utility.yul\":2364:2719   */\ntag_34:\n    /* \"#utility.yul\":2431:2436   */\n  0x00\n    /* \"#utility.yul\":2480:2483   */\n  dup3\n    /* \"#utility.yul\":2473:2477   */\n  0x1f\n    /* \"#utility.yul\":2465:2471   */\n  dup4\n    /* \"#utility.yul\":2461:2478   */\n  add\n    /* \"#utility.yul\":2457:2484   */\n  slt\n    /* \"#utility.yul\":2447:2569   */\n  tag_74\n  jumpi\n    /* \"#utility.yul\":2488:2567   */\n  tag_75\n  tag_25\n  jump\t// in\ntag_75:\n    /* \"#utility.yul\":2447:2569   */\ntag_74:\n    /* \"#utility.yul\":2598:2604   */\n  dup2\n    /* \"#utility.yul\":2592:2605   */\n  mload\n    /* \"#utility.yul\":2623:2713   */\n  tag_76\n    /* \"#utility.yul\":2709:2712   */\n  dup5\n    /* \"#utility.yul\":2701:2707   */\n  dup3\n    /* \"#utility.yul\":2694:2698   */\n  0x20\n    /* \"#utility.yul\":2686:2692   */\n  dup7\n    /* \"#utility.yul\":2682:2699   */\n  add\n    /* \"#utility.yul\":2623:2713   */\n  tag_33\n  jump\t// in\ntag_76:\n    /* \"#utility.yul\":2614:2713   */\n  swap2\n  pop\n    /* \"#utility.yul\":2437:2719   */\n  pop\n    /* \"#utility.yul\":2364:2719   */\n  swap3\n  swap2\n  pop\n  pop\n  jump\t// out\n    /* \"#utility.yul\":2725:2802   */\ntag_35:\n    /* \"#utility.yul\":2762:2769   */\n  0x00\n    /* \"#utility.yul\":2791:2796   */\n  dup2\n    /* \"#utility.yul\":2780:2796   */\n  swap1\n  pop\n    /* \"#utility.yul\":2725:2802   */\n  swap2\n  swap1\n  pop\n  jump\t// out\n    /* \"#utility.yul\":2808:2930   */\ntag_36:\n    /* \"#utility.yul\":2881:2905   */\n  tag_79\n    /* \"#utility.yul\":2899:2904   */\n  dup2\n    /* \"#utility.yul\":2881:2905   */\n  tag_35\n  jump\t// in\ntag_79:\n    /* \"#utility.yul\":2874:2879   */\n  dup2\n    /* \"#utility.yul\":2871:2906   */\n  eq\n    /* \"#utility.yul\":2861:2924   */\n  tag_80\n  jumpi\n    /* \"#utility.yul\":2920:2921   */\n  0x00\n    /* \"#utility.yul\":2917:2918   */\n  dup1\n    /* \"#utility.yul\":2910:2922   */\n  revert\n    /* \"#utility.yul\":2861:2924   */\ntag_80:\n    /* \"#utility.yul\":2808:2930   */\n  pop\n  jump\t// out\n    /* \"#utility.yul\":2936:3079   */\ntag_37:\n    /* \"#utility.yul\":2993:2998   */\n  0x00\n    /* \"#utility.yul\":3024:3030   */\n  dup2\n    /* \"#utility.yul\":3018:3031   */\n  mload\n    /* \"#utility.yul\":3009:3031   */\n  swap1\n  pop\n    /* \"#utility.yul\":3040:3073   */\n  tag_82\n    /* \"#utility.yul\":3067:3072   */\n  dup2\n    /* \"#utility.yul\":3040:3073   */\n  tag_36\n  jump\t// in\ntag_82:\n    /* \"#utility.yul\":2936:3079   */\n  swap3\n  swap2\n  pop\n  pop\n  jump\t// out\n    /* \"#utility.yul\":3085:3211   */\ntag_38:\n    /* \"#utility.yul\":3122:3129   */\n  0x00\n    /* \"#utility.yul\":3162:3204   */\n  0xffffffffffffffffffffffffffffffffffffffff\n    /* \"#utility.yul\":3155:3160   */\n  dup3\n    /* \"#utility.yul\":3151:3205   */\n  and\n    /* \"#utility.yul\":3140:3205   */\n  swap1\n  pop\n    /* \"#utility.yul\":3085:3211   */\n  swap2\n  swap1\n  pop\n  jump\t// out\n    /* \"#utility.yul\":3217:3313   */\ntag_39:\n    /* \"#utility.yul\":3254:3261   */\n  0x00\n    /* \"#utility.yul\":3283:3307   */\n  tag_85\n    /* \"#utility.yul\":3301:3306   */\n  dup3\n    /* \"#utility.yul\":3283:3307   */\n  tag_38\n  jump\t// in\ntag_85:\n    /* \"#utility.yul\":3272:3307   */\n  swap1\n  pop\n    /* \"#utility.yul\":3217:3313   */\n  swap2\n  swap1\n  pop\n  jump\t// out\n    /* \"#utility.yul\":3319:3441   */\ntag_40:\n    /* \"#utility.yul\":3392:3416   */\n  tag_87\n    /* \"#utility.yul\":3410:3415   */\n  dup2\n    /* \"#utility.yul\":3392:3416   */\n  tag_39\n  jump\t// in\ntag_87:\n    /* \"#utility.yul\":3385:3390   */\n  dup2\n    /* \"#utility.yul\":3382:3417   */\n  eq\n    /* \"#utility.yul\":3372:3435   */\n  tag_88\n  jumpi\n    /* \"#utility.yul\":3431:3432   */\n  0x00\n    /* \"#utility.yul\":3428:3429   */\n  dup1\n    /* \"#utility.yul\":3421:3433   */\n  revert\n    /* \"#utility.yul\":3372:3435   */\ntag_88:\n    /* \"#utility.yul\":3319:3441   */\n  pop\n  jump\t// out\n    /* \"#utility.yul\":3447:3590   */\ntag_41:\n    /* \"#utility.yul\":3504:3509   */\n  0x00\n    /* \"#utility.yul\":3535:3541   */\n  dup2\n    /* \"#utility.yul\":3529:3542   */\n  mload\n    /* \"#utility.yul\":3520:3542   */\n  swap1\n  pop\n    /* \"#utility.yul\":3551:3584   */\n  tag_90\n    /* \"#utility.yul\":3578:3583   */\n  dup2\n    /* \"#utility.yul\":3551:3584   */\n  tag_40\n  jump\t// in\ntag_90:\n    /* \"#utility.yul\":3447:3590   */\n  swap3\n  swap2\n  pop\n  pop\n  jump\t// out\n    /* \"#utility.yul\":3596:5092   */\ntag_3:\n    /* \"#utility.yul\":3732:3738   */\n  0x00\n    /* \"#utility.yul\":3740:3746   */\n  dup1\n    /* \"#utility.yul\":3748:3754   */\n  0x00\n    /* \"#utility.yul\":3756:3762   */\n  dup1\n    /* \"#utility.yul\":3764:3770   */\n  0x00\n    /* \"#utility.yul\":3813:3816   */\n  0xa0\n    /* \"#utility.yul\":3801:3810   */\n  dup7\n    /* \"#utility.yul\":3792:3799   */\n  dup9\n    /* \"#utility.yul\":3788:3811   */\n  sub\n    /* \"#utility.yul\":3784:3817   */\n  slt\n    /* \"#utility.yul\":3781:3901   */\n  iszero\n  tag_92\n  jumpi\n    /* \"#utility.yul\":3820:3899   */\n  tag_93\n  tag_23\n  jump\t// in\ntag_93:\n    /* \"#utility.yul\":3781:3901   */\ntag_92:\n    /* \"#utility.yul\":3961:3962   */\n  0x00\n    /* \"#utility.yul\":3950:3959   */\n  dup7\n    /* \"#utility.yul\":3946:3963   */\n  add\n    /* \"#utility.yul\":3940:3964   */\n  mload\n    /* \"#utility.yul\":3991:4009   */\n  0xffffffffffffffff\n    /* \"#utility.yul\":3983:3989   */\n  dup2\n    /* \"#utility.yul\":3980:4010   */\n  gt\n    /* \"#utility.yul\":3977:4094   */\n  iszero\n  tag_94\n  jumpi\n    /* \"#utility.yul\":4013:4092   */\n  tag_95\n  tag_24\n  jump\t// in\ntag_95:\n    /* \"#utility.yul\":3977:4094   */\ntag_94:\n    /* \"#utility.yul\":4118:4192   */\n  tag_96\n    /* \"#utility.yul\":4184:4191   */\n  dup9\n    /* \"#utility.yul\":4175:4181   */\n  dup3\n    /* \"#utility.yul\":4164:4173   */\n  dup10\n    /* \"#utility.yul\":4160:4182   */\n  add\n    /* \"#utility.yul\":4118:4192   */\n  tag_34\n  jump\t// in\ntag_96:\n    /* \"#utility.yul\":4108:4192   */\n  swap6\n  pop\n    /* \"#utility.yul\":3911:4202   */\n  pop\n    /* \"#utility.yul\":4241:4243   */\n  0x20\n    /* \"#utility.yul\":4267:4331   */\n  tag_97\n    /* \"#utility.yul\":4323:4330   */\n  dup9\n    /* \"#utility.yul\":4314:4320   */\n  dup3\n    /* \"#utility.yul\":4303:4312   */\n  dup10\n    /* \"#utility.yul\":4299:4321   */\n  add\n    /* \"#utility.yul\":4267:4331   */\n  tag_37\n  jump\t// in\ntag_97:\n    /* \"#utility.yul\":4257:4331   */\n  swap5\n  pop\n    /* \"#utility.yul\":4212:4341   */\n  pop\n    /* \"#utility.yul\":4380:4382   */\n  0x40\n    /* \"#utility.yul\":4406:4470   */\n  tag_98\n    /* \"#utility.yul\":4462:4469   */\n  dup9\n    /* \"#utility.yul\":4453:4459   */\n  dup3\n    /* \"#utility.yul\":4442:4451   */\n  dup10\n    /* \"#utility.yul\":4438:4460   */\n  add\n    /* \"#utility.yul\":4406:4470   */\n  tag_41\n  jump\t// in\ntag_98:\n    /* \"#utility.yul\":4396:4470   */\n  swap4\n  pop\n    /* \"#utility.yul\":4351:4480   */\n  pop\n    /* \"#utility.yul\":4540:4542   */\n  0x60\n    /* \"#utility.yul\":4529:4538   */\n  dup7\n    /* \"#utility.yul\":4525:4543   */\n  add\n    /* \"#utility.yul\":4519:4544   */\n  mload\n    /* \"#utility.yul\":4571:4589   */\n  0xffffffffffffffff\n    /* \"#utility.yul\":4563:4569   */\n  dup2\n    /* \"#utility.yul\":4560:4590   */\n  gt\n    /* \"#utility.yul\":4557:4674   */\n  iszero\n  tag_99\n  jumpi\n    /* \"#utility.yul\":4593:4672   */\n  tag_100\n  tag_24\n  jump\t// in\ntag_100:\n    /* \"#utility.yul\":4557:4674   */\ntag_99:\n    /* \"#utility.yul\":4698:4772   */\n  tag_101\n    /* \"#utility.yul\":4764:4771   */\n  dup9\n    /* \"#utility.yul\":4755:4761   */\n  dup3\n    /* \"#utility.yul\":4744:4753   */\n  dup10\n    /* \"#utility.yul\":4740:4762   */\n  add\n    /* \"#utility.yul\":4698:4772   */\n  tag_34\n  jump\t// in\ntag_101:\n    /* \"#utility.yul\":4688:4772   */\n  swap3\n  pop\n    /* \"#utility.yul\":4490:4782   */\n  pop\n    /* \"#utility.yul\":4842:4845   */\n  0x80\n    /* \"#utility.yul\":4831:4840   */\n  dup7\n    /* \"#utility.yul\":4827:4846   */\n  add\n    /* \"#utility.yul\":4821:4847   */\n  mload\n    /* \"#utility.yul\":4874:4892   */\n  0xffffffffffffffff\n    /* \"#utility.yul\":4866:4872   */\n  dup2\n    /* \"#utility.yul\":4863:4893   */\n  gt\n    /* \"#utility.yul\":4860:4977   */\n  iszero\n  tag_102\n  jumpi\n    /* \"#utility.yul\":4896:4975   */\n  tag_103\n  tag_24\n  jump\t// in\ntag_103:\n    /* \"#utility.yul\":4860:4977   */\ntag_102:\n    /* \"#utility.yul\":5001:5075   */\n  tag_104\n    /* \"#utility.yul\":5067:5074   */\n  dup9\n    /* \"#utility.yul\":5058:5064   */\n  dup3\n    /* \"#utility.yul\":5047:5056   */\n  dup10\n    /* \"#utility.yul\":5043:5065   */\n  add\n    /* \"#utility.yul\":5001:5075   */\n  tag_34\n  jump\t// in\ntag_104:\n    /* \"#utility.yul\":4991:5075   */\n  swap2\n  pop\n    /* \"#utility.yul\":4792:5085   */\n  pop\n    /* \"#utility.yul\":3596:5092   */\n  swap3\n  swap6\n  pop\n  swap3\n  swap6\n  swap1\n  swap4\n  pop\n  jump\t// out\n    /* \"#utility.yul\":5098:5278   */\ntag_42:\n    /* \"#utility.yul\":5146:5223   */\n  0x4e487b7100000000000000000000000000000000000000000000000000000000\n    /* \"#utility.yul\":5143:5144   */\n  0x00\n    /* \"#utility.yul\":5136:5224   */\n  mstore\n    /* \"#utility.yul\":5243:5247   */\n  0x22\n    /* \"#utility.yul\":5240:5241   */\n  0x04\n    /* \"#utility.yul\":5233:5248   */\n  mstore\n    /* \"#utility.yul\":5267:5271   */\n  0x24\n    /* \"#utility.yul\":5264:5265   */\n  0x00\n    /* \"#utility.yul\":5257:5272   */\n  revert\n    /* \"#utility.yul\":5284:5604   */\ntag_12:\n    /* \"#utility.yul\":5328:5334   */\n  0x00\n    /* \"#utility.yul\":5365:5366   */\n  0x02\n    /* \"#utility.yul\":5359:5363   */\n  dup3\n    /* \"#utility.yul\":5355:5367   */\n  div\n    /* \"#utility.yul\":5345:5367   */\n  swap1\n  pop\n    /* \"#utility.yul\":5412:5413   */\n  0x01\n    /* \"#utility.yul\":5406:5410   */\n  dup3\n    /* \"#utility.yul\":5402:5414   */\n  and\n    /* \"#utility.yul\":5433:5451   */\n  dup1\n    /* \"#utility.yul\":5423:5504   */\n  tag_107\n  jumpi\n    /* \"#utility.yul\":5489:5493   */\n  0x7f\n    /* \"#utility.yul\":5481:5487   */\n  dup3\n    /* \"#utility.yul\":5477:5494   */\n  and\n    /* \"#utility.yul\":5467:5494   */\n  swap2\n  pop\n    /* \"#utility.yul\":5423:5504   */\ntag_107:\n    /* \"#utility.yul\":5551:5553   */\n  0x20\n    /* \"#utility.yul\":5543:5549   */\n  dup3\n    /* \"#utility.yul\":5540:5554   */\n  lt\n    /* \"#utility.yul\":5520:5538   */\n  dup2\n    /* \"#utility.yul\":5517:5555   */\n  eq\n    /* \"#utility.yul\":5514:5598   */\n  iszero\n  tag_108\n  jumpi\n    /* \"#utility.yul\":5570:5588   */\n  tag_109\n  tag_42\n  jump\t// in\ntag_109:\n    /* \"#utility.yul\":5514:5598   */\ntag_108:\n    /* \"#utility.yul\":5335:5604   */\n  pop\n    /* \"#utility.yul\":5284:5604   */\n  swap2\n  swap1\n  pop\n  jump\t// out\n    /* \"QuestEnigme.sol\":1983:10167  contract Quest {... */\ntag_10:\n  dataSize(sub_0)\n  dup1\n  dataOffset(sub_0)\n  0x00\n  codecopy\n  0x00\n  return\nstop\n\nsub_0: assembly {\n        /* \"QuestEnigme.sol\":1983:10167  contract Quest {... */\n      mstore(0x40, 0x80)\n      jumpi(tag_1, lt(calldatasize, 0x04))\n      shr(0xe0, calldataload(0x00))\n      dup1\n      0x819856a3\n      gt\n      tag_27\n      jumpi\n      dup1\n      0xd99678dd\n      gt\n      tag_28\n      jumpi\n      dup1\n      0xf007bf37\n      gt\n      tag_29\n      jumpi\n      dup1\n      0xf007bf37\n      eq\n      tag_23\n      jumpi\n      dup1\n      0xf1061536\n      eq\n      tag_24\n      jumpi\n      dup1\n      0xf294cf38\n      eq\n      tag_25\n      jumpi\n      dup1\n      0xf37fd5e9\n      eq\n      tag_26\n      jumpi\n      jump(tag_1)\n    tag_29:\n      dup1\n      0xd99678dd\n      eq\n      tag_20\n      jumpi\n      dup1\n      0xe2eb41ff\n      eq\n      tag_21\n      jumpi\n      dup1\n      0xe95a5775\n      eq\n      tag_22\n      jumpi\n      jump(tag_1)\n    tag_28:\n      dup1\n      0x819856a3\n      eq\n      tag_14\n      jumpi\n      dup1\n      0x8ec8901d\n      eq\n      tag_15\n      jumpi\n      dup1\n      0x9164fa5d\n      eq\n      tag_16\n      jumpi\n      dup1\n      0xa3f67d6d\n      eq\n      tag_17\n      jumpi\n      dup1\n      0xb8a88369\n      eq\n      tag_18\n      jumpi\n      dup1\n      0xc44dd2f1\n      eq\n      tag_19\n      jumpi\n      jump(tag_1)\n    tag_27:\n      dup1\n      0x341c4f8e\n      gt\n      tag_30\n      jumpi\n      dup1\n      0x341c4f8e\n      eq\n      tag_8\n      jumpi\n      dup1\n      0x40e3a1d2\n      eq\n      tag_9\n      jumpi\n      dup1\n      0x481c6a75\n      eq\n      tag_10\n      jumpi\n      dup1\n      0x5b30b84d\n      eq\n      tag_11\n      jumpi\n      dup1\n      0x5db91dc1\n      eq\n      tag_12\n      jumpi\n      dup1\n      0x627018ee\n      eq\n      tag_13\n      jumpi\n      jump(tag_1)\n    tag_30:\n      dup1\n      0x06e4b16e\n      eq\n      tag_2\n      jumpi\n      dup1\n      0x09248d24\n      eq\n      tag_3\n      jumpi\n      dup1\n      0x1c18c444\n      eq\n      tag_4\n      jumpi\n      dup1\n      0x1f232f30\n      eq\n      tag_5\n      jumpi\n      dup1\n      0x24dd7d0e\n      eq\n      tag_6\n      jumpi\n      dup1\n      0x30304093\n      eq\n      tag_7\n      jumpi\n    tag_1:\n      0x00\n      dup1\n      revert\n        /* \"QuestEnigme.sol\":5378:5755  function withdrawBalanceQuest(address recipient) public payable onlyPlayer {... */\n    tag_2:\n      tag_31\n      0x04\n      dup1\n      calldatasize\n      sub\n      dup2\n      add\n      swap1\n      tag_32\n      swap2\n      swap1\n      tag_33\n      jump\t// in\n    tag_32:\n      tag_34\n      jump\t// in\n    tag_31:\n      stop\n        /* \"QuestEnigme.sol\":4272:4447  function questTitleChange(string memory newNameQuest) public restricted returns( string memory ){... */\n    tag_3:\n      callvalue\n      dup1\n      iszero\n      tag_35\n      jumpi\n      0x00\n      dup1\n      revert\n    tag_35:\n      pop\n      tag_36\n      0x04\n      dup1\n      calldatasize\n      sub\n      dup2\n      add\n      swap1\n      tag_37\n      swap2\n      swap1\n      tag_38\n      jump\t// in\n    tag_37:\n      tag_39\n      jump\t// in\n    tag_36:\n      mload(0x40)\n      tag_40\n      swap2\n      swap1\n      tag_41\n      jump\t// in\n    tag_40:\n      mload(0x40)\n      dup1\n      swap2\n      sub\n      swap1\n      return\n        /* \"QuestEnigme.sol\":9635:9986  function getEnigmeSummary(uint index) public view returns(string memory, string memory, uint, bool) {... */\n    tag_4:\n      callvalue\n      dup1\n      iszero\n      tag_42\n      jumpi\n      0x00\n      dup1\n      revert\n    tag_42:\n      pop\n      tag_43\n      0x04\n      dup1\n      calldatasize\n      sub\n      dup2\n      add\n      swap1\n      tag_44\n      swap2\n      swap1\n      tag_45\n      jump\t// in\n    tag_44:\n      tag_46\n      jump\t// in\n    tag_43:\n      mload(0x40)\n      tag_47\n      swap5\n      swap4\n      swap3\n      swap2\n      swap1\n      tag_48\n      jump\t// in\n    tag_47:\n      mload(0x40)\n      dup1\n      swap2\n      sub\n      swap1\n      return\n        /* \"QuestEnigme.sol\":6839:7664  function tryEnigmePlayerReponse(uint indexEnigme, string memory reponsePlayer) public onlyPlayer returns(bool) {... */\n    tag_5:\n      callvalue\n      dup1\n      iszero\n      tag_49\n      jumpi\n      0x00\n      dup1\n      revert\n    tag_49:\n      pop\n      tag_50\n      0x04\n      dup1\n      calldatasize\n      sub\n      dup2\n      add\n      swap1\n      tag_51\n      swap2\n      swap1\n      tag_52\n      jump\t// in\n    tag_51:\n      tag_53\n      jump\t// in\n    tag_50:\n      mload(0x40)\n      tag_54\n      swap2\n      swap1\n      tag_55\n      jump\t// in\n    tag_54:\n      mload(0x40)\n      dup1\n      swap2\n      sub\n      swap1\n      return\n        /* \"QuestEnigme.sol\":4509:4606  function getQuestTitle() public view returns ( string memory  ){... */\n    tag_6:\n      callvalue\n      dup1\n      iszero\n      tag_56\n      jumpi\n      0x00\n      dup1\n      revert\n    tag_56:\n      pop\n      tag_57\n      tag_58\n      jump\t// in\n    tag_57:\n      mload(0x40)\n      tag_59\n      swap2\n      swap1\n      tag_41\n      jump\t// in\n    tag_59:\n      mload(0x40)\n      dup1\n      swap2\n      sub\n      swap1\n      return\n        /* \"QuestEnigme.sol\":3072:3102  string public questDescription */\n    tag_7:\n      callvalue\n      dup1\n      iszero\n      tag_60\n      jumpi\n      0x00\n      dup1\n      revert\n    tag_60:\n      pop\n      tag_61\n      tag_62\n      jump\t// in\n    tag_61:\n      mload(0x40)\n      tag_63\n      swap2\n      swap1\n      tag_41\n      jump\t// in\n    tag_63:\n      mload(0x40)\n      dup1\n      swap2\n      sub\n      swap1\n      return\n        /* \"QuestEnigme.sol\":8911:9478  function enigmeClueUnlockChange(uint indexEnigme, uint indexEnigmeClue, uint newEnigmeClueUnlock) public restricted{... */\n    tag_8:\n      callvalue\n      dup1\n      iszero\n      tag_64\n      jumpi\n      0x00\n      dup1\n      revert\n    tag_64:\n      pop\n      tag_65\n      0x04\n      dup1\n      calldatasize\n      sub\n      dup2\n      add\n      swap1\n      tag_66\n      swap2\n      swap1\n      tag_67\n      jump\t// in\n    tag_66:\n      tag_68\n      jump\t// in\n    tag_65:\n      stop\n        /* \"QuestEnigme.sol\":4813:5182  function getQuestSummary() public view returns(address, string memory, string memory, string memory, uint, uint, uint, bool) {... */\n    tag_9:\n      callvalue\n      dup1\n      iszero\n      tag_69\n      jumpi\n      0x00\n      dup1\n      revert\n    tag_69:\n      pop\n      tag_70\n      tag_71\n      jump\t// in\n    tag_70:\n      mload(0x40)\n      tag_72\n      swap9\n      swap8\n      swap7\n      swap6\n      swap5\n      swap4\n      swap3\n      swap2\n      swap1\n      tag_73\n      jump\t// in\n    tag_72:\n      mload(0x40)\n      dup1\n      swap2\n      sub\n      swap1\n      return\n        /* \"QuestEnigme.sol\":2986:3008  address public manager */\n    tag_10:\n      callvalue\n      dup1\n      iszero\n      tag_74\n      jumpi\n      0x00\n      dup1\n      revert\n    tag_74:\n      pop\n      tag_75\n      tag_76\n      jump\t// in\n    tag_75:\n      mload(0x40)\n      tag_77\n      swap2\n      swap1\n      tag_78\n      jump\t// in\n    tag_77:\n      mload(0x40)\n      dup1\n      swap2\n      sub\n      swap1\n      return\n        /* \"QuestEnigme.sol\":4705:4803  function getQuestBalance() public view returns (uint){... */\n    tag_11:\n      callvalue\n      dup1\n      iszero\n      tag_79\n      jumpi\n      0x00\n      dup1\n      revert\n    tag_79:\n      pop\n      tag_80\n      tag_81\n      jump\t// in\n    tag_80:\n      mload(0x40)\n      tag_82\n      swap2\n      swap1\n      tag_83\n      jump\t// in\n    tag_82:\n      mload(0x40)\n      dup1\n      swap2\n      sub\n      swap1\n      return\n        /* \"QuestEnigme.sol\":8211:8371  function enigmeTitleChange(uint indexEnigme, string memory newNameEnigme) public restricted{... */\n    tag_12:\n      callvalue\n      dup1\n      iszero\n      tag_84\n      jumpi\n      0x00\n      dup1\n      revert\n    tag_84:\n      pop\n      tag_85\n      0x04\n      dup1\n      calldatasize\n      sub\n      dup2\n      add\n      swap1\n      tag_86\n      swap2\n      swap1\n      tag_52\n      jump\t// in\n    tag_86:\n      tag_87\n      jump\t// in\n    tag_85:\n      stop\n        /* \"QuestEnigme.sol\":2896:2919  Enigme[] public enigmes */\n    tag_13:\n      callvalue\n      dup1\n      iszero\n      tag_88\n      jumpi\n      0x00\n      dup1\n      revert\n    tag_88:\n      pop\n      tag_89\n      0x04\n      dup1\n      calldatasize\n      sub\n      dup2\n      add\n      swap1\n      tag_90\n      swap2\n      swap1\n      tag_45\n      jump\t// in\n    tag_90:\n      tag_91\n      jump\t// in\n    tag_89:\n      mload(0x40)\n      tag_92\n      swap12\n      swap11\n      swap10\n      swap9\n      swap8\n      swap7\n      swap6\n      swap5\n      swap4\n      swap3\n      swap2\n      swap1\n      tag_93\n      jump\t// in\n    tag_92:\n      mload(0x40)\n      dup1\n      swap2\n      sub\n      swap1\n      return\n        /* \"QuestEnigme.sol\":3251:3277  bool public questCompleted */\n    tag_14:\n      callvalue\n      dup1\n      iszero\n      tag_94\n      jumpi\n      0x00\n      dup1\n      revert\n    tag_94:\n      pop\n      tag_95\n      tag_96\n      jump\t// in\n    tag_95:\n      mload(0x40)\n      tag_97\n      swap2\n      swap1\n      tag_55\n      jump\t// in\n    tag_97:\n      mload(0x40)\n      dup1\n      swap2\n      sub\n      swap1\n      return\n        /* \"QuestEnigme.sol\":9992:10158  function getEnigmePlayersResponses(uint enigmeIndex) public view returns(string[] memory){... */\n    tag_15:\n      callvalue\n      dup1\n      iszero\n      tag_98\n      jumpi\n      0x00\n      dup1\n      revert\n    tag_98:\n      pop\n      tag_99\n      0x04\n      dup1\n      calldatasize\n      sub\n      dup2\n      add\n      swap1\n      tag_100\n      swap2\n      swap1\n      tag_45\n      jump\t// in\n    tag_100:\n      tag_101\n      jump\t// in\n    tag_99:\n      mload(0x40)\n      tag_102\n      swap2\n      swap1\n      tag_103\n      jump\t// in\n    tag_102:\n      mload(0x40)\n      dup1\n      swap2\n      sub\n      swap1\n      return\n        /* \"QuestEnigme.sol\":4612:4699  function getQuestPrice() public view returns (uint){... */\n    tag_16:\n      callvalue\n      dup1\n      iszero\n      tag_104\n      jumpi\n      0x00\n      dup1\n      revert\n    tag_104:\n      pop\n      tag_105\n      tag_106\n      jump\t// in\n    tag_105:\n      mload(0x40)\n      tag_107\n      swap2\n      swap1\n      tag_83\n      jump\t// in\n    tag_107:\n      mload(0x40)\n      dup1\n      swap2\n      sub\n      swap1\n      return\n        /* \"QuestEnigme.sol\":3185:3209  uint public playersCount */\n    tag_17:\n      callvalue\n      dup1\n      iszero\n      tag_108\n      jumpi\n      0x00\n      dup1\n      revert\n    tag_108:\n      pop\n      tag_109\n      tag_110\n      jump\t// in\n    tag_109:\n      mload(0x40)\n      tag_111\n      swap2\n      swap1\n      tag_83\n      jump\t// in\n    tag_111:\n      mload(0x40)\n      dup1\n      swap2\n      sub\n      swap1\n      return\n        /* \"QuestEnigme.sol\":3990:4240  function getInQuest () public payable {... */\n    tag_18:\n      tag_112\n      tag_113\n      jump\t// in\n    tag_112:\n      stop\n        /* \"QuestEnigme.sol\":3108:3134  string public questPicture */\n    tag_19:\n      callvalue\n      dup1\n      iszero\n      tag_114\n      jumpi\n      0x00\n      dup1\n      revert\n    tag_114:\n      pop\n      tag_115\n      tag_116\n      jump\t// in\n    tag_115:\n      mload(0x40)\n      tag_117\n      swap2\n      swap1\n      tag_41\n      jump\t// in\n    tag_117:\n      mload(0x40)\n      dup1\n      swap2\n      sub\n      swap1\n      return\n        /* \"QuestEnigme.sol\":9539:9629  function getEnigmeCount() public view returns(uint) {... */\n    tag_20:\n      callvalue\n      dup1\n      iszero\n      tag_118\n      jumpi\n      0x00\n      dup1\n      revert\n    tag_118:\n      pop\n      tag_119\n      tag_120\n      jump\t// in\n    tag_119:\n      mload(0x40)\n      tag_121\n      swap2\n      swap1\n      tag_83\n      jump\t// in\n    tag_121:\n      mload(0x40)\n      dup1\n      swap2\n      sub\n      swap1\n      return\n        /* \"QuestEnigme.sol\":3140:3179  mapping(address => bool) public players */\n    tag_21:\n      callvalue\n      dup1\n      iszero\n      tag_122\n      jumpi\n      0x00\n      dup1\n      revert\n    tag_122:\n      pop\n      tag_123\n      0x04\n      dup1\n      calldatasize\n      sub\n      dup2\n      add\n      swap1\n      tag_124\n      swap2\n      swap1\n      tag_33\n      jump\t// in\n    tag_124:\n      tag_125\n      jump\t// in\n    tag_123:\n      mload(0x40)\n      tag_126\n      swap2\n      swap1\n      tag_55\n      jump\t// in\n    tag_126:\n      mload(0x40)\n      dup1\n      swap2\n      sub\n      swap1\n      return\n        /* \"QuestEnigme.sol\":3044:3066  uint public questPrice */\n    tag_22:\n      callvalue\n      dup1\n      iszero\n      tag_127\n      jumpi\n      0x00\n      dup1\n      revert\n    tag_127:\n      pop\n      tag_128\n      tag_129\n      jump\t// in\n    tag_128:\n      mload(0x40)\n      tag_130\n      swap2\n      swap1\n      tag_83\n      jump\t// in\n    tag_130:\n      mload(0x40)\n      dup1\n      swap2\n      sub\n      swap1\n      return\n        /* \"QuestEnigme.sol\":3215:3245  uint public questResponseCount */\n    tag_23:\n      callvalue\n      dup1\n      iszero\n      tag_131\n      jumpi\n      0x00\n      dup1\n      revert\n    tag_131:\n      pop\n      tag_132\n      tag_133\n      jump\t// in\n    tag_132:\n      mload(0x40)\n      tag_134\n      swap2\n      swap1\n      tag_83\n      jump\t// in\n    tag_134:\n      mload(0x40)\n      dup1\n      swap2\n      sub\n      swap1\n      return\n        /* \"QuestEnigme.sol\":5883:6797  function createEnigme(string memory titleEnigme, string memory contentEnigme, string memory reponseEnigme, string memory clueEnigme1, string memory clueEnigme2, string memory clueEnigme3) public restricted {... */\n    tag_24:\n      callvalue\n      dup1\n      iszero\n      tag_135\n      jumpi\n      0x00\n      dup1\n      revert\n    tag_135:\n      pop\n      tag_136\n      0x04\n      dup1\n      calldatasize\n      sub\n      dup2\n      add\n      swap1\n      tag_137\n      swap2\n      swap1\n      tag_138\n      jump\t// in\n    tag_137:\n      tag_139\n      jump\t// in\n    tag_136:\n      stop\n        /* \"QuestEnigme.sol\":3014:3038  string public questTitle */\n    tag_25:\n      callvalue\n      dup1\n      iszero\n      tag_140\n      jumpi\n      0x00\n      dup1\n      revert\n    tag_140:\n      pop\n      tag_141\n      tag_142\n      jump\t// in\n    tag_141:\n      mload(0x40)\n      tag_143\n      swap2\n      swap1\n      tag_41\n      jump\t// in\n    tag_143:\n      mload(0x40)\n      dup1\n      swap2\n      sub\n      swap1\n      return\n        /* \"QuestEnigme.sol\":8377:8905  function enigmeClueChange(uint indexEnigme, uint indexEnigmeClue, string memory newEnigmeClue) public restricted{... */\n    tag_26:\n      callvalue\n      dup1\n      iszero\n      tag_144\n      jumpi\n      0x00\n      dup1\n      revert\n    tag_144:\n      pop\n      tag_145\n      0x04\n      dup1\n      calldatasize\n      sub\n      dup2\n      add\n      swap1\n      tag_146\n      swap2\n      swap1\n      tag_147\n      jump\t// in\n    tag_146:\n      tag_148\n      jump\t// in\n    tag_145:\n      stop\n        /* \"QuestEnigme.sol\":5378:5755  function withdrawBalanceQuest(address recipient) public payable onlyPlayer {... */\n    tag_34:\n        /* \"QuestEnigme.sol\":3434:3438  true */\n      0x01\n        /* \"QuestEnigme.sol\":3411:3438  players[msg.sender] == true */\n      iszero\n      iszero\n        /* \"QuestEnigme.sol\":3411:3418  players */\n      0x06\n        /* \"QuestEnigme.sol\":3411:3430  players[msg.sender] */\n      0x00\n        /* \"QuestEnigme.sol\":3419:3429  msg.sender */\n      caller\n        /* \"QuestEnigme.sol\":3411:3430  players[msg.sender] */\n      0xffffffffffffffffffffffffffffffffffffffff\n      and\n      0xffffffffffffffffffffffffffffffffffffffff\n      and\n      dup2\n      mstore\n      0x20\n      add\n      swap1\n      dup2\n      mstore\n      0x20\n      add\n      0x00\n      keccak256\n      0x00\n      swap1\n      sload\n      swap1\n      0x0100\n      exp\n      swap1\n      div\n      0xff\n      and\n        /* \"QuestEnigme.sol\":3411:3438  players[msg.sender] == true */\n      iszero\n      iszero\n      eq\n        /* \"QuestEnigme.sol\":3403:3439  require(players[msg.sender] == true) */\n      tag_150\n      jumpi\n      0x00\n      dup1\n      revert\n    tag_150:\n        /* \"QuestEnigme.sol\":5464:5470  uint i */\n      0x00\n        /* \"QuestEnigme.sol\":5509:5510  0 */\n      dup1\n        /* \"QuestEnigme.sol\":5492:5499  enigmes */\n      dup1\n        /* \"QuestEnigme.sol\":5492:5506  enigmes.length */\n      dup1\n      sload\n      swap1\n      pop\n        /* \"QuestEnigme.sol\":5492:5510  enigmes.length > 0 */\n      gt\n        /* \"QuestEnigme.sol\":5484:5511  require(enigmes.length > 0) */\n      tag_152\n      jumpi\n      0x00\n      dup1\n      revert\n    tag_152:\n        /* \"QuestEnigme.sol\":5521:5634  while(i < enigmes.length){... */\n    tag_153:\n        /* \"QuestEnigme.sol\":5531:5538  enigmes */\n      0x00\n        /* \"QuestEnigme.sol\":5531:5545  enigmes.length */\n      dup1\n      sload\n      swap1\n      pop\n        /* \"QuestEnigme.sol\":5527:5528  i */\n      dup2\n        /* \"QuestEnigme.sol\":5527:5545  i < enigmes.length */\n      lt\n        /* \"QuestEnigme.sol\":5521:5634  while(i < enigmes.length){... */\n      iszero\n      tag_154\n      jumpi\n        /* \"QuestEnigme.sol\":5568:5575  enigmes */\n      0x00\n        /* \"QuestEnigme.sol\":5576:5577  i */\n      dup2\n        /* \"QuestEnigme.sol\":5568:5578  enigmes[i] */\n      dup2\n      sload\n      dup2\n      lt\n      tag_155\n      jumpi\n      tag_156\n      tag_157\n      jump\t// in\n    tag_156:\n    tag_155:\n      swap1\n      0x00\n      mstore\n      keccak256(0x00, 0x20)\n      swap1\n      0x0e\n      mul\n      add\n        /* \"QuestEnigme.sol\":5568:5593  enigmes[i].enigmeFinishBy */\n      0x0a\n      add\n        /* \"QuestEnigme.sol\":5568:5605  enigmes[i].enigmeFinishBy[msg.sender] */\n      0x00\n        /* \"QuestEnigme.sol\":5594:5604  msg.sender */\n      caller\n        /* \"QuestEnigme.sol\":5568:5605  enigmes[i].enigmeFinishBy[msg.sender] */\n      0xffffffffffffffffffffffffffffffffffffffff\n      and\n      0xffffffffffffffffffffffffffffffffffffffff\n      and\n      dup2\n      mstore\n      0x20\n      add\n      swap1\n      dup2\n      mstore\n      0x20\n      add\n      0x00\n      keccak256\n      0x00\n      swap1\n      sload\n      swap1\n      0x0100\n      exp\n      swap1\n      div\n      0xff\n      and\n        /* \"QuestEnigme.sol\":5560:5606  require(enigmes[i].enigmeFinishBy[msg.sender]) */\n      tag_159\n      jumpi\n      0x00\n      dup1\n      revert\n    tag_159:\n        /* \"QuestEnigme.sol\":5620:5623  i++ */\n      dup1\n      dup1\n      tag_160\n      swap1\n      tag_161\n      jump\t// in\n    tag_160:\n      swap2\n      pop\n      pop\n        /* \"QuestEnigme.sol\":5521:5634  while(i < enigmes.length){... */\n      jump(tag_153)\n    tag_154:\n        /* \"QuestEnigme.sol\":5651:5660  recipient */\n      dup2\n        /* \"QuestEnigme.sol\":5643:5670  payable(recipient).transfer */\n      0xffffffffffffffffffffffffffffffffffffffff\n      and\n        /* \"QuestEnigme.sol\":5643:5693  payable(recipient).transfer(address(this).balance) */\n      0x08fc\n        /* \"QuestEnigme.sol\":5671:5692  address(this).balance */\n      selfbalance\n        /* \"QuestEnigme.sol\":5643:5693  payable(recipient).transfer(address(this).balance) */\n      swap1\n      dup2\n      iszero\n      mul\n      swap1\n      mload(0x40)\n      0x00\n      mload(0x40)\n      dup1\n      dup4\n      sub\n      dup2\n      dup6\n      dup9\n      dup9\n      call\n      swap4\n      pop\n      pop\n      pop\n      pop\n      iszero\n      dup1\n      iszero\n      tag_163\n      jumpi\n      returndatasize\n      0x00\n      dup1\n      returndatacopy\n      revert(0x00, returndatasize)\n    tag_163:\n      pop\n        /* \"QuestEnigme.sol\":5720:5724  true */\n      0x01\n        /* \"QuestEnigme.sol\":5703:5717  questCompleted */\n      0x09\n      0x00\n        /* \"QuestEnigme.sol\":5703:5724  questCompleted = true */\n      0x0100\n      exp\n      dup2\n      sload\n      dup2\n      0xff\n      mul\n      not\n      and\n      swap1\n      dup4\n      iszero\n      iszero\n      mul\n      or\n      swap1\n      sstore\n      pop\n        /* \"QuestEnigme.sol\":5747:5748  0 */\n      0x00\n        /* \"QuestEnigme.sol\":5734:5744  questPrice */\n      0x03\n        /* \"QuestEnigme.sol\":5734:5748  questPrice = 0 */\n      dup2\n      swap1\n      sstore\n      pop\n        /* \"QuestEnigme.sol\":5453:5755  {... */\n      pop\n        /* \"QuestEnigme.sol\":5378:5755  function withdrawBalanceQuest(address recipient) public payable onlyPlayer {... */\n      pop\n      jump\t// out\n        /* \"QuestEnigme.sol\":4272:4447  function questTitleChange(string memory newNameQuest) public restricted returns( string memory ){... */\n    tag_39:\n        /* \"QuestEnigme.sol\":4353:4366  string memory */\n      0x60\n        /* \"QuestEnigme.sol\":3339:3346  manager */\n      0x01\n      0x00\n      swap1\n      sload\n      swap1\n      0x0100\n      exp\n      swap1\n      div\n      0xffffffffffffffffffffffffffffffffffffffff\n      and\n        /* \"QuestEnigme.sol\":3325:3346  msg.sender == manager */\n      0xffffffffffffffffffffffffffffffffffffffff\n      and\n        /* \"QuestEnigme.sol\":3325:3335  msg.sender */\n      caller\n        /* \"QuestEnigme.sol\":3325:3346  msg.sender == manager */\n      0xffffffffffffffffffffffffffffffffffffffff\n      and\n      eq\n        /* \"QuestEnigme.sol\":3317:3347  require(msg.sender == manager) */\n      tag_165\n      jumpi\n      0x00\n      dup1\n      revert\n    tag_165:\n        /* \"QuestEnigme.sol\":4395:4407  newNameQuest */\n      dup2\n        /* \"QuestEnigme.sol\":4382:4392  questTitle */\n      0x02\n        /* \"QuestEnigme.sol\":4382:4407  questTitle = newNameQuest */\n      swap1\n      dup1\n      mload\n      swap1\n      0x20\n      add\n      swap1\n      tag_167\n      swap3\n      swap2\n      swap1\n      tag_168\n      jump\t// in\n    tag_167:\n      pop\n        /* \"QuestEnigme.sol\":4429:4439  questTitle */\n      0x02\n        /* \"QuestEnigme.sol\":4421:4440  return (questTitle) */\n      dup1\n      sload\n      tag_169\n      swap1\n      tag_170\n      jump\t// in\n    tag_169:\n      dup1\n      0x1f\n      add\n      0x20\n      dup1\n      swap2\n      div\n      mul\n      0x20\n      add\n      mload(0x40)\n      swap1\n      dup2\n      add\n      0x40\n      mstore\n      dup1\n      swap3\n      swap2\n      swap1\n      dup2\n      dup2\n      mstore\n      0x20\n      add\n      dup3\n      dup1\n      sload\n      tag_171\n      swap1\n      tag_170\n      jump\t// in\n    tag_171:\n      dup1\n      iszero\n      tag_172\n      jumpi\n      dup1\n      0x1f\n      lt\n      tag_173\n      jumpi\n      0x0100\n      dup1\n      dup4\n      sload\n      div\n      mul\n      dup4\n      mstore\n      swap2\n      0x20\n      add\n      swap2\n      jump(tag_172)\n    tag_173:\n      dup3\n      add\n      swap2\n      swap1\n      0x00\n      mstore\n      keccak256(0x00, 0x20)\n      swap1\n    tag_174:\n      dup2\n      sload\n      dup2\n      mstore\n      swap1\n      0x01\n      add\n      swap1\n      0x20\n      add\n      dup1\n      dup4\n      gt\n      tag_174\n      jumpi\n      dup3\n      swap1\n      sub\n      0x1f\n      and\n      dup3\n      add\n      swap2\n    tag_172:\n      pop\n      pop\n      pop\n      pop\n      pop\n      swap1\n      pop\n        /* \"QuestEnigme.sol\":4272:4447  function questTitleChange(string memory newNameQuest) public restricted returns( string memory ){... */\n      swap2\n      swap1\n      pop\n      jump\t// out\n        /* \"QuestEnigme.sol\":9635:9986  function getEnigmeSummary(uint index) public view returns(string memory, string memory, uint, bool) {... */\n    tag_46:\n        /* \"QuestEnigme.sol\":9693:9706  string memory */\n      0x60\n        /* \"QuestEnigme.sol\":9708:9721  string memory */\n      dup1\n        /* \"QuestEnigme.sol\":9723:9727  uint */\n      0x00\n        /* \"QuestEnigme.sol\":9729:9733  bool */\n      dup1\n        /* \"QuestEnigme.sol\":9765:9772  enigmes */\n      0x00\n        /* \"QuestEnigme.sol\":9773:9778  index */\n      dup6\n        /* \"QuestEnigme.sol\":9765:9779  enigmes[index] */\n      dup2\n      sload\n      dup2\n      lt\n      tag_176\n      jumpi\n      tag_177\n      tag_157\n      jump\t// in\n    tag_177:\n    tag_176:\n      swap1\n      0x00\n      mstore\n      keccak256(0x00, 0x20)\n      swap1\n      0x0e\n      mul\n      add\n        /* \"QuestEnigme.sol\":9765:9791  enigmes[index].enigmeTitle */\n      0x00\n      add\n        /* \"QuestEnigme.sol\":9805:9812  enigmes */\n      0x00\n        /* \"QuestEnigme.sol\":9813:9818  index */\n      dup7\n        /* \"QuestEnigme.sol\":9805:9819  enigmes[index] */\n      dup2\n      sload\n      dup2\n      lt\n      tag_179\n      jumpi\n      tag_180\n      tag_157\n      jump\t// in\n    tag_180:\n    tag_179:\n      swap1\n      0x00\n      mstore\n      keccak256(0x00, 0x20)\n      swap1\n      0x0e\n      mul\n      add\n        /* \"QuestEnigme.sol\":9805:9833  enigmes[index].enigmeContent */\n      0x01\n      add\n        /* \"QuestEnigme.sol\":9892:9899  enigmes */\n      0x00\n        /* \"QuestEnigme.sol\":9900:9905  index */\n      dup8\n        /* \"QuestEnigme.sol\":9892:9906  enigmes[index] */\n      dup2\n      sload\n      dup2\n      lt\n      tag_182\n      jumpi\n      tag_183\n      tag_157\n      jump\t// in\n    tag_183:\n    tag_182:\n      swap1\n      0x00\n      mstore\n      keccak256(0x00, 0x20)\n      swap1\n      0x0e\n      mul\n      add\n        /* \"QuestEnigme.sol\":9892:9926  enigmes[index].enigmeResponseCount */\n      0x08\n      add\n      sload\n        /* \"QuestEnigme.sol\":9940:9947  enigmes */\n      0x00\n        /* \"QuestEnigme.sol\":9948:9953  index */\n      dup9\n        /* \"QuestEnigme.sol\":9940:9954  enigmes[index] */\n      dup2\n      sload\n      dup2\n      lt\n      tag_185\n      jumpi\n      tag_186\n      tag_157\n      jump\t// in\n    tag_186:\n    tag_185:\n      swap1\n      0x00\n      mstore\n      keccak256(0x00, 0x20)\n      swap1\n      0x0e\n      mul\n      add\n        /* \"QuestEnigme.sol\":9940:9969  enigmes[index].enigmeComplete */\n      0x09\n      add\n      0x00\n      swap1\n      sload\n      swap1\n      0x0100\n      exp\n      swap1\n      div\n      0xff\n      and\n        /* \"QuestEnigme.sol\":9745:9979  return(... */\n      dup4\n      dup1\n      sload\n      tag_188\n      swap1\n      tag_170\n      jump\t// in\n    tag_188:\n      dup1\n      0x1f\n      add\n      0x20\n      dup1\n      swap2\n      div\n      mul\n      0x20\n      add\n      mload(0x40)\n      swap1\n      dup2\n      add\n      0x40\n      mstore\n      dup1\n      swap3\n      swap2\n      swap1\n      dup2\n      dup2\n      mstore\n      0x20\n      add\n      dup3\n      dup1\n      sload\n      tag_189\n      swap1\n      tag_170\n      jump\t// in\n    tag_189:\n      dup1\n      iszero\n      tag_190\n      jumpi\n      dup1\n      0x1f\n      lt\n      tag_191\n      jumpi\n      0x0100\n      dup1\n      dup4\n      sload\n      div\n      mul\n      dup4\n      mstore\n      swap2\n      0x20\n      add\n      swap2\n      jump(tag_190)\n    tag_191:\n      dup3\n      add\n      swap2\n      swap1\n      0x00\n      mstore\n      keccak256(0x00, 0x20)\n      swap1\n    tag_192:\n      dup2\n      sload\n      dup2\n      mstore\n      swap1\n      0x01\n      add\n      swap1\n      0x20\n      add\n      dup1\n      dup4\n      gt\n      tag_192\n      jumpi\n      dup3\n      swap1\n      sub\n      0x1f\n      and\n      dup3\n      add\n      swap2\n    tag_190:\n      pop\n      pop\n      pop\n      pop\n      pop\n      swap4\n      pop\n      dup3\n      dup1\n      sload\n      tag_193\n      swap1\n      tag_170\n      jump\t// in\n    tag_193:\n      dup1\n      0x1f\n      add\n      0x20\n      dup1\n      swap2\n      div\n      mul\n      0x20\n      add\n      mload(0x40)\n      swap1\n      dup2\n      add\n      0x40\n      mstore\n      dup1\n      swap3\n      swap2\n      swap1\n      dup2\n      dup2\n      mstore\n      0x20\n      add\n      dup3\n      dup1\n      sload\n      tag_194\n      swap1\n      tag_170\n      jump\t// in\n    tag_194:\n      dup1\n      iszero\n      tag_195\n      jumpi\n      dup1\n      0x1f\n      lt\n      tag_196\n      jumpi\n      0x0100\n      dup1\n      dup4\n      sload\n      div\n      mul\n      dup4\n      mstore\n      swap2\n      0x20\n      add\n      swap2\n      jump(tag_195)\n    tag_196:\n      dup3\n      add\n      swap2\n      swap1\n      0x00\n      mstore\n      keccak256(0x00, 0x20)\n      swap1\n    tag_197:\n      dup2\n      sload\n      dup2\n      mstore\n      swap1\n      0x01\n      add\n      swap1\n      0x20\n      add\n      dup1\n      dup4\n      gt\n      tag_197\n      jumpi\n      dup3\n      swap1\n      sub\n      0x1f\n      and\n      dup3\n      add\n      swap2\n    tag_195:\n      pop\n      pop\n      pop\n      pop\n      pop\n      swap3\n      pop\n      swap4\n      pop\n      swap4\n      pop\n      swap4\n      pop\n      swap4\n      pop\n        /* \"QuestEnigme.sol\":9635:9986  function getEnigmeSummary(uint index) public view returns(string memory, string memory, uint, bool) {... */\n      swap2\n      swap4\n      pop\n      swap2\n      swap4\n      jump\t// out\n        /* \"QuestEnigme.sol\":6839:7664  function tryEnigmePlayerReponse(uint indexEnigme, string memory reponsePlayer) public onlyPlayer returns(bool) {... */\n    tag_53:\n        /* \"QuestEnigme.sol\":6944:6948  bool */\n      0x00\n        /* \"QuestEnigme.sol\":3434:3438  true */\n      0x01\n        /* \"QuestEnigme.sol\":3411:3438  players[msg.sender] == true */\n      iszero\n      iszero\n        /* \"QuestEnigme.sol\":3411:3418  players */\n      0x06\n        /* \"QuestEnigme.sol\":3411:3430  players[msg.sender] */\n      0x00\n        /* \"QuestEnigme.sol\":3419:3429  msg.sender */\n      caller\n        /* \"QuestEnigme.sol\":3411:3430  players[msg.sender] */\n      0xffffffffffffffffffffffffffffffffffffffff\n      and\n      0xffffffffffffffffffffffffffffffffffffffff\n      and\n      dup2\n      mstore\n      0x20\n      add\n      swap1\n      dup2\n      mstore\n      0x20\n      add\n      0x00\n      keccak256\n      0x00\n      swap1\n      sload\n      swap1\n      0x0100\n      exp\n      swap1\n      div\n      0xff\n      and\n        /* \"QuestEnigme.sol\":3411:3438  players[msg.sender] == true */\n      iszero\n      iszero\n      eq\n        /* \"QuestEnigme.sol\":3403:3439  require(players[msg.sender] == true) */\n      tag_199\n      jumpi\n      0x00\n      dup1\n      revert\n    tag_199:\n        /* \"QuestEnigme.sol\":6960:6981  Enigme storage enigme */\n      0x00\n        /* \"QuestEnigme.sol\":6984:6991  enigmes */\n      dup1\n        /* \"QuestEnigme.sol\":6992:7003  indexEnigme */\n      dup5\n        /* \"QuestEnigme.sol\":6984:7004  enigmes[indexEnigme] */\n      dup2\n      sload\n      dup2\n      lt\n      tag_201\n      jumpi\n      tag_202\n      tag_157\n      jump\t// in\n    tag_202:\n    tag_201:\n      swap1\n      0x00\n      mstore\n      keccak256(0x00, 0x20)\n      swap1\n      0x0e\n      mul\n      add\n        /* \"QuestEnigme.sol\":6960:7004  Enigme storage enigme = enigmes[indexEnigme] */\n      swap1\n      pop\n        /* \"QuestEnigme.sol\":7019:7025  enigme */\n      dup1\n        /* \"QuestEnigme.sol\":7019:7037  enigme.tryResponse */\n      0x0b\n      add\n        /* \"QuestEnigme.sol\":7038:7051  reponsePlayer */\n      dup4\n        /* \"QuestEnigme.sol\":7019:7052  enigme.tryResponse[reponsePlayer] */\n      mload(0x40)\n      tag_204\n      swap2\n      swap1\n      tag_205\n      jump\t// in\n    tag_204:\n      swap1\n      dup2\n      mstore\n      0x20\n      add\n      mload(0x40)\n      dup1\n      swap2\n      sub\n      swap1\n      keccak256\n      0x00\n      swap1\n      sload\n      swap1\n      0x0100\n      exp\n      swap1\n      div\n      0xff\n      and\n        /* \"QuestEnigme.sol\":7016:7657  if(enigme.tryResponse[reponsePlayer]){... */\n      iszero\n      tag_206\n      jumpi\n        /* \"QuestEnigme.sol\":7113:7118  false */\n      0x00\n        /* \"QuestEnigme.sol\":7076:7118  enigme.enigmeFinishBy[msg.sender] == false */\n      iszero\n      iszero\n        /* \"QuestEnigme.sol\":7076:7082  enigme */\n      dup2\n        /* \"QuestEnigme.sol\":7076:7097  enigme.enigmeFinishBy */\n      0x0a\n      add\n        /* \"QuestEnigme.sol\":7076:7109  enigme.enigmeFinishBy[msg.sender] */\n      0x00\n        /* \"QuestEnigme.sol\":7098:7108  msg.sender */\n      caller\n        /* \"QuestEnigme.sol\":7076:7109  enigme.enigmeFinishBy[msg.sender] */\n      0xffffffffffffffffffffffffffffffffffffffff\n      and\n      0xffffffffffffffffffffffffffffffffffffffff\n      and\n      dup2\n      mstore\n      0x20\n      add\n      swap1\n      dup2\n      mstore\n      0x20\n      add\n      0x00\n      keccak256\n      0x00\n      swap1\n      sload\n      swap1\n      0x0100\n      exp\n      swap1\n      div\n      0xff\n      and\n        /* \"QuestEnigme.sol\":7076:7118  enigme.enigmeFinishBy[msg.sender] == false */\n      iszero\n      iszero\n      eq\n        /* \"QuestEnigme.sol\":7068:7156  require(enigme.enigmeFinishBy[msg.sender] == false, \"Vous avez deja fini cette Enigme.\") */\n      tag_207\n      jumpi\n      mload(0x40)\n      0x08c379a000000000000000000000000000000000000000000000000000000000\n      dup2\n      mstore\n      0x04\n      add\n      tag_208\n      swap1\n      tag_209\n      jump\t// in\n    tag_208:\n      mload(0x40)\n      dup1\n      swap2\n      sub\n      swap1\n      revert\n    tag_207:\n        /* \"QuestEnigme.sol\":7312:7316  true */\n      0x01\n        /* \"QuestEnigme.sol\":7276:7282  enigme */\n      dup2\n        /* \"QuestEnigme.sol\":7276:7297  enigme.enigmeFinishBy */\n      0x0a\n      add\n        /* \"QuestEnigme.sol\":7276:7309  enigme.enigmeFinishBy[msg.sender] */\n      0x00\n        /* \"QuestEnigme.sol\":7298:7308  msg.sender */\n      caller\n        /* \"QuestEnigme.sol\":7276:7309  enigme.enigmeFinishBy[msg.sender] */\n      0xffffffffffffffffffffffffffffffffffffffff\n      and\n      0xffffffffffffffffffffffffffffffffffffffff\n      and\n      dup2\n      mstore\n      0x20\n      add\n      swap1\n      dup2\n      mstore\n      0x20\n      add\n      0x00\n      keccak256\n      0x00\n        /* \"QuestEnigme.sol\":7276:7316  enigme.enigmeFinishBy[msg.sender] = true */\n      0x0100\n      exp\n      dup2\n      sload\n      dup2\n      0xff\n      mul\n      not\n      and\n      swap1\n      dup4\n      iszero\n      iszero\n      mul\n      or\n      swap1\n      sstore\n      pop\n        /* \"QuestEnigme.sol\":7330:7336  enigme */\n      dup1\n        /* \"QuestEnigme.sol\":7330:7356  enigme.enigmeFinishByCount */\n      0x0d\n      add\n      0x00\n        /* \"QuestEnigme.sol\":7330:7358  enigme.enigmeFinishByCount++ */\n      dup2\n      sload\n      dup1\n      swap3\n      swap2\n      swap1\n      tag_210\n      swap1\n      tag_161\n      jump\t// in\n    tag_210:\n      swap2\n      swap1\n      pop\n      sstore\n      pop\n        /* \"QuestEnigme.sol\":7379:7383  true */\n      0x01\n        /* \"QuestEnigme.sol\":7372:7384  return(true) */\n      swap2\n      pop\n      pop\n      jump(tag_200)\n        /* \"QuestEnigme.sol\":7016:7657  if(enigme.tryResponse[reponsePlayer]){... */\n    tag_206:\n        /* \"QuestEnigme.sol\":7423:7429  enigme */\n      dup1\n        /* \"QuestEnigme.sol\":7423:7452  enigme.enigmePlayersResponses */\n      0x0c\n      add\n        /* \"QuestEnigme.sol\":7458:7471  reponsePlayer */\n      dup4\n        /* \"QuestEnigme.sol\":7423:7472  enigme.enigmePlayersResponses.push(reponsePlayer) */\n      swap1\n      dup1\n      0x01\n      dup2\n      sload\n      add\n      dup1\n      dup3\n      sstore\n      dup1\n      swap2\n      pop\n      pop\n      0x01\n      swap1\n      sub\n      swap1\n      0x00\n      mstore\n      keccak256(0x00, 0x20)\n      add\n      0x00\n      swap1\n      swap2\n      swap1\n      swap2\n      swap1\n      swap2\n      pop\n      swap1\n      dup1\n      mload\n      swap1\n      0x20\n      add\n      swap1\n      tag_213\n      swap3\n      swap2\n      swap1\n      tag_168\n      jump\t// in\n    tag_213:\n      pop\n        /* \"QuestEnigme.sol\":7486:7492  enigme */\n      dup1\n        /* \"QuestEnigme.sol\":7486:7512  enigme.enigmeResponseCount */\n      0x08\n      add\n      0x00\n        /* \"QuestEnigme.sol\":7486:7514  enigme.enigmeResponseCount++ */\n      dup2\n      sload\n      dup1\n      swap3\n      swap2\n      swap1\n      tag_214\n      swap1\n      tag_161\n      jump\t// in\n    tag_214:\n      swap2\n      swap1\n      pop\n      sstore\n      pop\n        /* \"QuestEnigme.sol\":7528:7546  questResponseCount */\n      0x08\n      0x00\n        /* \"QuestEnigme.sol\":7528:7548  questResponseCount++ */\n      dup2\n      sload\n      dup1\n      swap3\n      swap2\n      swap1\n      tag_215\n      swap1\n      tag_161\n      jump\t// in\n    tag_215:\n      swap2\n      swap1\n      pop\n      sstore\n      pop\n        /* \"QuestEnigme.sol\":7640:7645  false */\n      0x00\n        /* \"QuestEnigme.sol\":7632:7646  return (false) */\n      swap2\n      pop\n      pop\n        /* \"QuestEnigme.sol\":3449:3450  _ */\n    tag_200:\n        /* \"QuestEnigme.sol\":6839:7664  function tryEnigmePlayerReponse(uint indexEnigme, string memory reponsePlayer) public onlyPlayer returns(bool) {... */\n      swap3\n      swap2\n      pop\n      pop\n      jump\t// out\n        /* \"QuestEnigme.sol\":4509:4606  function getQuestTitle() public view returns ( string memory  ){... */\n    tag_58:\n        /* \"QuestEnigme.sol\":4556:4569  string memory */\n      0x60\n        /* \"QuestEnigme.sol\":4589:4599  questTitle */\n      0x02\n        /* \"QuestEnigme.sol\":4582:4599  return questTitle */\n      dup1\n      sload\n      tag_217\n      swap1\n      tag_170\n      jump\t// in\n    tag_217:\n      dup1\n      0x1f\n      add\n      0x20\n      dup1\n      swap2\n      div\n      mul\n      0x20\n      add\n      mload(0x40)\n      swap1\n      dup2\n      add\n      0x40\n      mstore\n      dup1\n      swap3\n      swap2\n      swap1\n      dup2\n      dup2\n      mstore\n      0x20\n      add\n      dup3\n      dup1\n      sload\n      tag_218\n      swap1\n      tag_170\n      jump\t// in\n    tag_218:\n      dup1\n      iszero\n      tag_219\n      jumpi\n      dup1\n      0x1f\n      lt\n      tag_220\n      jumpi\n      0x0100\n      dup1\n      dup4\n      sload\n      div\n      mul\n      dup4\n      mstore\n      swap2\n      0x20\n      add\n      swap2\n      jump(tag_219)\n    tag_220:\n      dup3\n      add\n      swap2\n      swap1\n      0x00\n      mstore\n      keccak256(0x00, 0x20)\n      swap1\n    tag_221:\n      dup2\n      sload\n      dup2\n      mstore\n      swap1\n      0x01\n      add\n      swap1\n      0x20\n      add\n      dup1\n      dup4\n      gt\n      tag_221\n      jumpi\n      dup3\n      swap1\n      sub\n      0x1f\n      and\n      dup3\n      add\n      swap2\n    tag_219:\n      pop\n      pop\n      pop\n      pop\n      pop\n      swap1\n      pop\n        /* \"QuestEnigme.sol\":4509:4606  function getQuestTitle() public view returns ( string memory  ){... */\n      swap1\n      jump\t// out\n        /* \"QuestEnigme.sol\":3072:3102  string public questDescription */\n    tag_62:\n      0x04\n      dup1\n      sload\n      tag_222\n      swap1\n      tag_170\n      jump\t// in\n    tag_222:\n      dup1\n      0x1f\n      add\n      0x20\n      dup1\n      swap2\n      div\n      mul\n      0x20\n      add\n      mload(0x40)\n      swap1\n      dup2\n      add\n      0x40\n      mstore\n      dup1\n      swap3\n      swap2\n      swap1\n      dup2\n      dup2\n      mstore\n      0x20\n      add\n      dup3\n      dup1\n      sload\n      tag_223\n      swap1\n      tag_170\n      jump\t// in\n    tag_223:\n      dup1\n      iszero\n      tag_224\n      jumpi\n      dup1\n      0x1f\n      lt\n      tag_225\n      jumpi\n      0x0100\n      dup1\n      dup4\n      sload\n      div\n      mul\n      dup4\n      mstore\n      swap2\n      0x20\n      add\n      swap2\n      jump(tag_224)\n    tag_225:\n      dup3\n      add\n      swap2\n      swap1\n      0x00\n      mstore\n      keccak256(0x00, 0x20)\n      swap1\n    tag_226:\n      dup2\n      sload\n      dup2\n      mstore\n      swap1\n      0x01\n      add\n      swap1\n      0x20\n      add\n      dup1\n      dup4\n      gt\n      tag_226\n      jumpi\n      dup3\n      swap1\n      sub\n      0x1f\n      and\n      dup3\n      add\n      swap2\n    tag_224:\n      pop\n      pop\n      pop\n      pop\n      pop\n      dup2\n      jump\t// out\n        /* \"QuestEnigme.sol\":8911:9478  function enigmeClueUnlockChange(uint indexEnigme, uint indexEnigmeClue, uint newEnigmeClueUnlock) public restricted{... */\n    tag_68:\n        /* \"QuestEnigme.sol\":3339:3346  manager */\n      0x01\n      0x00\n      swap1\n      sload\n      swap1\n      0x0100\n      exp\n      swap1\n      div\n      0xffffffffffffffffffffffffffffffffffffffff\n      and\n        /* \"QuestEnigme.sol\":3325:3346  msg.sender == manager */\n      0xffffffffffffffffffffffffffffffffffffffff\n      and\n        /* \"QuestEnigme.sol\":3325:3335  msg.sender */\n      caller\n        /* \"QuestEnigme.sol\":3325:3346  msg.sender == manager */\n      0xffffffffffffffffffffffffffffffffffffffff\n      and\n      eq\n        /* \"QuestEnigme.sol\":3317:3347  require(msg.sender == manager) */\n      tag_228\n      jumpi\n      0x00\n      dup1\n      revert\n    tag_228:\n        /* \"QuestEnigme.sol\":9040:9061  Enigme storage enigme */\n      0x00\n        /* \"QuestEnigme.sol\":9064:9071  enigmes */\n      dup1\n        /* \"QuestEnigme.sol\":9072:9083  indexEnigme */\n      dup5\n        /* \"QuestEnigme.sol\":9064:9084  enigmes[indexEnigme] */\n      dup2\n      sload\n      dup2\n      lt\n      tag_230\n      jumpi\n      tag_231\n      tag_157\n      jump\t// in\n    tag_231:\n    tag_230:\n      swap1\n      0x00\n      mstore\n      keccak256(0x00, 0x20)\n      swap1\n      0x0e\n      mul\n      add\n        /* \"QuestEnigme.sol\":9040:9084  Enigme storage enigme = enigmes[indexEnigme] */\n      swap1\n      pop\n        /* \"QuestEnigme.sol\":9126:9127  1 */\n      0x01\n        /* \"QuestEnigme.sol\":9107:9122  indexEnigmeClue */\n      dup4\n        /* \"QuestEnigme.sol\":9107:9127  indexEnigmeClue >= 1 */\n      lt\n      iszero\n        /* \"QuestEnigme.sol\":9107:9151  indexEnigmeClue >= 1 && indexEnigmeClue <= 3 */\n      dup1\n      iszero\n      tag_233\n      jumpi\n      pop\n        /* \"QuestEnigme.sol\":9150:9151  3 */\n      0x03\n        /* \"QuestEnigme.sol\":9131:9146  indexEnigmeClue */\n      dup4\n        /* \"QuestEnigme.sol\":9131:9151  indexEnigmeClue <= 3 */\n      gt\n      iszero\n        /* \"QuestEnigme.sol\":9107:9151  indexEnigmeClue >= 1 && indexEnigmeClue <= 3 */\n    tag_233:\n        /* \"QuestEnigme.sol\":9099:9152  require(indexEnigmeClue >= 1 && indexEnigmeClue <= 3) */\n      tag_234\n      jumpi\n      0x00\n      dup1\n      revert\n    tag_234:\n        /* \"QuestEnigme.sol\":9188:9189  1 */\n      0x01\n        /* \"QuestEnigme.sol\":9169:9184  indexEnigmeClue */\n      dup4\n        /* \"QuestEnigme.sol\":9169:9189  indexEnigmeClue == 1 */\n      eq\n        /* \"QuestEnigme.sol\":9166:9471  if(indexEnigmeClue == 1){... */\n      iszero\n      tag_235\n      jumpi\n        /* \"QuestEnigme.sol\":9235:9254  newEnigmeClueUnlock */\n      dup2\n        /* \"QuestEnigme.sol\":9208:9214  enigme */\n      dup2\n        /* \"QuestEnigme.sol\":9208:9232  enigme.enigmeClue1Unlock */\n      0x03\n      add\n        /* \"QuestEnigme.sol\":9208:9254  enigme.enigmeClue1Unlock = newEnigmeClueUnlock */\n      dup2\n      swap1\n      sstore\n      pop\n        /* \"QuestEnigme.sol\":9166:9471  if(indexEnigmeClue == 1){... */\n      jump(tag_236)\n    tag_235:\n        /* \"QuestEnigme.sol\":9310:9311  2 */\n      0x02\n        /* \"QuestEnigme.sol\":9291:9306  indexEnigmeClue */\n      dup4\n        /* \"QuestEnigme.sol\":9291:9311  indexEnigmeClue == 2 */\n      eq\n        /* \"QuestEnigme.sol\":9287:9471  if (indexEnigmeClue == 2){... */\n      iszero\n      tag_237\n      jumpi\n        /* \"QuestEnigme.sol\":9357:9376  newEnigmeClueUnlock */\n      dup2\n        /* \"QuestEnigme.sol\":9330:9336  enigme */\n      dup2\n        /* \"QuestEnigme.sol\":9330:9354  enigme.enigmeClue2Unlock */\n      0x05\n      add\n        /* \"QuestEnigme.sol\":9330:9376  enigme.enigmeClue2Unlock = newEnigmeClueUnlock */\n      dup2\n      swap1\n      sstore\n      pop\n        /* \"QuestEnigme.sol\":9287:9471  if (indexEnigmeClue == 2){... */\n      jump(tag_238)\n    tag_237:\n        /* \"QuestEnigme.sol\":9452:9471  newEnigmeClueUnlock */\n      dup2\n        /* \"QuestEnigme.sol\":9425:9431  enigme */\n      dup2\n        /* \"QuestEnigme.sol\":9425:9449  enigme.enigmeClue3Unlock */\n      0x07\n      add\n        /* \"QuestEnigme.sol\":9425:9471  enigme.enigmeClue3Unlock = newEnigmeClueUnlock */\n      dup2\n      swap1\n      sstore\n      pop\n        /* \"QuestEnigme.sol\":9287:9471  if (indexEnigmeClue == 2){... */\n    tag_238:\n        /* \"QuestEnigme.sol\":9166:9471  if(indexEnigmeClue == 1){... */\n    tag_236:\n        /* \"QuestEnigme.sol\":9026:9478  {... */\n      pop\n        /* \"QuestEnigme.sol\":8911:9478  function enigmeClueUnlockChange(uint indexEnigme, uint indexEnigmeClue, uint newEnigmeClueUnlock) public restricted{... */\n      pop\n      pop\n      pop\n      jump\t// out\n        /* \"QuestEnigme.sol\":4813:5182  function getQuestSummary() public view returns(address, string memory, string memory, string memory, uint, uint, uint, bool) {... */\n    tag_71:\n        /* \"QuestEnigme.sol\":4860:4867  address */\n      0x00\n        /* \"QuestEnigme.sol\":4869:4882  string memory */\n      0x60\n        /* \"QuestEnigme.sol\":4884:4897  string memory */\n      dup1\n        /* \"QuestEnigme.sol\":4899:4912  string memory */\n      0x60\n        /* \"QuestEnigme.sol\":4914:4918  uint */\n      0x00\n        /* \"QuestEnigme.sol\":4920:4924  uint */\n      dup1\n        /* \"QuestEnigme.sol\":4926:4930  uint */\n      0x00\n        /* \"QuestEnigme.sol\":4932:4936  bool */\n      dup1\n        /* \"QuestEnigme.sol\":4968:4975  manager */\n      0x01\n      0x00\n      swap1\n      sload\n      swap1\n      0x0100\n      exp\n      swap1\n      div\n      0xffffffffffffffffffffffffffffffffffffffff\n      and\n        /* \"QuestEnigme.sol\":4989:4999  questTitle */\n      0x02\n        /* \"QuestEnigme.sol\":5013:5029  questDescription */\n      0x04\n        /* \"QuestEnigme.sol\":5043:5055  questPicture */\n      0x05\n        /* \"QuestEnigme.sol\":5069:5079  questPrice */\n      sload(0x03)\n        /* \"QuestEnigme.sol\":5093:5105  playersCount */\n      sload(0x07)\n        /* \"QuestEnigme.sol\":5119:5137  questResponseCount */\n      sload(0x08)\n        /* \"QuestEnigme.sol\":5151:5165  questCompleted */\n      0x09\n      0x00\n      swap1\n      sload\n      swap1\n      0x0100\n      exp\n      swap1\n      div\n      0xff\n      and\n        /* \"QuestEnigme.sol\":4948:5175  return(... */\n      dup7\n      dup1\n      sload\n      tag_240\n      swap1\n      tag_170\n      jump\t// in\n    tag_240:\n      dup1\n      0x1f\n      add\n      0x20\n      dup1\n      swap2\n      div\n      mul\n      0x20\n      add\n      mload(0x40)\n      swap1\n      dup2\n      add\n      0x40\n      mstore\n      dup1\n      swap3\n      swap2\n      swap1\n      dup2\n      dup2\n      mstore\n      0x20\n      add\n      dup3\n      dup1\n      sload\n      tag_241\n      swap1\n      tag_170\n      jump\t// in\n    tag_241:\n      dup1\n      iszero\n      tag_242\n      jumpi\n      dup1\n      0x1f\n      lt\n      tag_243\n      jumpi\n      0x0100\n      dup1\n      dup4\n      sload\n      div\n      mul\n      dup4\n      mstore\n      swap2\n      0x20\n      add\n      swap2\n      jump(tag_242)\n    tag_243:\n      dup3\n      add\n      swap2\n      swap1\n      0x00\n      mstore\n      keccak256(0x00, 0x20)\n      swap1\n    tag_244:\n      dup2\n      sload\n      dup2\n      mstore\n      swap1\n      0x01\n      add\n      swap1\n      0x20\n      add\n      dup1\n      dup4\n      gt\n      tag_244\n      jumpi\n      dup3\n      swap1\n      sub\n      0x1f\n      and\n      dup3\n      add\n      swap2\n    tag_242:\n      pop\n      pop\n      pop\n      pop\n      pop\n      swap7\n      pop\n      dup6\n      dup1\n      sload\n      tag_245\n      swap1\n      tag_170\n      jump\t// in\n    tag_245:\n      dup1\n      0x1f\n      add\n      0x20\n      dup1\n      swap2\n      div\n      mul\n      0x20\n      add\n      mload(0x40)\n      swap1\n      dup2\n      add\n      0x40\n      mstore\n      dup1\n      swap3\n      swap2\n      swap1\n      dup2\n      dup2\n      mstore\n      0x20\n      add\n      dup3\n      dup1\n      sload\n      tag_246\n      swap1\n      tag_170\n      jump\t// in\n    tag_246:\n      dup1\n      iszero\n      tag_247\n      jumpi\n      dup1\n      0x1f\n      lt\n      tag_248\n      jumpi\n      0x0100\n      dup1\n      dup4\n      sload\n      div\n      mul\n      dup4\n      mstore\n      swap2\n      0x20\n      add\n      swap2\n      jump(tag_247)\n    tag_248:\n      dup3\n      add\n      swap2\n      swap1\n      0x00\n      mstore\n      keccak256(0x00, 0x20)\n      swap1\n    tag_249:\n      dup2\n      sload\n      dup2\n      mstore\n      swap1\n      0x01\n      add\n      swap1\n      0x20\n      add\n      dup1\n      dup4\n      gt\n      tag_249\n      jumpi\n      dup3\n      swap1\n      sub\n      0x1f\n      and\n      dup3\n      add\n      swap2\n    tag_247:\n      pop\n      pop\n      pop\n      pop\n      pop\n      swap6\n      pop\n      dup5\n      dup1\n      sload\n      tag_250\n      swap1\n      tag_170\n      jump\t// in\n    tag_250:\n      dup1\n      0x1f\n      add\n      0x20\n      dup1\n      swap2\n      div\n      mul\n      0x20\n      add\n      mload(0x40)\n      swap1\n      dup2\n      add\n      0x40\n      mstore\n      dup1\n      swap3\n      swap2\n      swap1\n      dup2\n      dup2\n      mstore\n      0x20\n      add\n      dup3\n      dup1\n      sload\n      tag_251\n      swap1\n      tag_170\n      jump\t// in\n    tag_251:\n      dup1\n      iszero\n      tag_252\n      jumpi\n      dup1\n      0x1f\n      lt\n      tag_253\n      jumpi\n      0x0100\n      dup1\n      dup4\n      sload\n      div\n      mul\n      dup4\n      mstore\n      swap2\n      0x20\n      add\n      swap2\n      jump(tag_252)\n    tag_253:\n      dup3\n      add\n      swap2\n      swap1\n      0x00\n      mstore\n      keccak256(0x00, 0x20)\n      swap1\n    tag_254:\n      dup2\n      sload\n      dup2\n      mstore\n      swap1\n      0x01\n      add\n      swap1\n      0x20\n      add\n      dup1\n      dup4\n      gt\n      tag_254\n      jumpi\n      dup3\n      swap1\n      sub\n      0x1f\n      and\n      dup3\n      add\n      swap2\n    tag_252:\n      pop\n      pop\n      pop\n      pop\n      pop\n      swap5\n      pop\n      swap8\n      pop\n      swap8\n      pop\n      swap8\n      pop\n      swap8\n      pop\n      swap8\n      pop\n      swap8\n      pop\n      swap8\n      pop\n      swap8\n      pop\n        /* \"QuestEnigme.sol\":4813:5182  function getQuestSummary() public view returns(address, string memory, string memory, string memory, uint, uint, uint, bool) {... */\n      swap1\n      swap2\n      swap3\n      swap4\n      swap5\n      swap6\n      swap7\n      swap8\n      jump\t// out\n        /* \"QuestEnigme.sol\":2986:3008  address public manager */\n    tag_76:\n      0x01\n      0x00\n      swap1\n      sload\n      swap1\n      0x0100\n      exp\n      swap1\n      div\n      0xffffffffffffffffffffffffffffffffffffffff\n      and\n      dup2\n      jump\t// out\n        /* \"QuestEnigme.sol\":4705:4803  function getQuestBalance() public view returns (uint){... */\n    tag_81:\n        /* \"QuestEnigme.sol\":4753:4757  uint */\n      0x00\n        /* \"QuestEnigme.sol\":4775:4796  address(this).balance */\n      selfbalance\n        /* \"QuestEnigme.sol\":4768:4796  return address(this).balance */\n      swap1\n      pop\n        /* \"QuestEnigme.sol\":4705:4803  function getQuestBalance() public view returns (uint){... */\n      swap1\n      jump\t// out\n        /* \"QuestEnigme.sol\":8211:8371  function enigmeTitleChange(uint indexEnigme, string memory newNameEnigme) public restricted{... */\n    tag_87:\n        /* \"QuestEnigme.sol\":3339:3346  manager */\n      0x01\n      0x00\n      swap1\n      sload\n      swap1\n      0x0100\n      exp\n      swap1\n      div\n      0xffffffffffffffffffffffffffffffffffffffff\n      and\n        /* \"QuestEnigme.sol\":3325:3346  msg.sender == manager */\n      0xffffffffffffffffffffffffffffffffffffffff\n      and\n        /* \"QuestEnigme.sol\":3325:3335  msg.sender */\n      caller\n        /* \"QuestEnigme.sol\":3325:3346  msg.sender == manager */\n      0xffffffffffffffffffffffffffffffffffffffff\n      and\n      eq\n        /* \"QuestEnigme.sol\":3317:3347  require(msg.sender == manager) */\n      tag_257\n      jumpi\n      0x00\n      dup1\n      revert\n    tag_257:\n        /* \"QuestEnigme.sol\":8351:8364  newNameEnigme */\n      dup1\n        /* \"QuestEnigme.sol\":8316:8323  enigmes */\n      0x00\n        /* \"QuestEnigme.sol\":8324:8335  indexEnigme */\n      dup4\n        /* \"QuestEnigme.sol\":8316:8336  enigmes[indexEnigme] */\n      dup2\n      sload\n      dup2\n      lt\n      tag_259\n      jumpi\n      tag_260\n      tag_157\n      jump\t// in\n    tag_260:\n    tag_259:\n      swap1\n      0x00\n      mstore\n      keccak256(0x00, 0x20)\n      swap1\n      0x0e\n      mul\n      add\n        /* \"QuestEnigme.sol\":8316:8348  enigmes[indexEnigme].enigmeTitle */\n      0x00\n      add\n        /* \"QuestEnigme.sol\":8316:8364  enigmes[indexEnigme].enigmeTitle = newNameEnigme */\n      swap1\n      dup1\n      mload\n      swap1\n      0x20\n      add\n      swap1\n      tag_262\n      swap3\n      swap2\n      swap1\n      tag_168\n      jump\t// in\n    tag_262:\n      pop\n        /* \"QuestEnigme.sol\":8211:8371  function enigmeTitleChange(uint indexEnigme, string memory newNameEnigme) public restricted{... */\n      pop\n      pop\n      jump\t// out\n        /* \"QuestEnigme.sol\":2896:2919  Enigme[] public enigmes */\n    tag_91:\n      0x00\n      dup2\n      dup2\n      sload\n      dup2\n      lt\n      tag_263\n      jumpi\n      0x00\n      dup1\n      revert\n    tag_263:\n      swap1\n      0x00\n      mstore\n      keccak256(0x00, 0x20)\n      swap1\n      0x0e\n      mul\n      add\n      0x00\n      swap2\n      pop\n      swap1\n      pop\n      dup1\n      0x00\n      add\n      dup1\n      sload\n      tag_265\n      swap1\n      tag_170\n      jump\t// in\n    tag_265:\n      dup1\n      0x1f\n      add\n      0x20\n      dup1\n      swap2\n      div\n      mul\n      0x20\n      add\n      mload(0x40)\n      swap1\n      dup2\n      add\n      0x40\n      mstore\n      dup1\n      swap3\n      swap2\n      swap1\n      dup2\n      dup2\n      mstore\n      0x20\n      add\n      dup3\n      dup1\n      sload\n      tag_266\n      swap1\n      tag_170\n      jump\t// in\n    tag_266:\n      dup1\n      iszero\n      tag_267\n      jumpi\n      dup1\n      0x1f\n      lt\n      tag_268\n      jumpi\n      0x0100\n      dup1\n      dup4\n      sload\n      div\n      mul\n      dup4\n      mstore\n      swap2\n      0x20\n      add\n      swap2\n      jump(tag_267)\n    tag_268:\n      dup3\n      add\n      swap2\n      swap1\n      0x00\n      mstore\n      keccak256(0x00, 0x20)\n      swap1\n    tag_269:\n      dup2\n      sload\n      dup2\n      mstore\n      swap1\n      0x01\n      add\n      swap1\n      0x20\n      add\n      dup1\n      dup4\n      gt\n      tag_269\n      jumpi\n      dup3\n      swap1\n      sub\n      0x1f\n      and\n      dup3\n      add\n      swap2\n    tag_267:\n      pop\n      pop\n      pop\n      pop\n      pop\n      swap1\n      dup1\n      0x01\n      add\n      dup1\n      sload\n      tag_270\n      swap1\n      tag_170\n      jump\t// in\n    tag_270:\n      dup1\n      0x1f\n      add\n      0x20\n      dup1\n      swap2\n      div\n      mul\n      0x20\n      add\n      mload(0x40)\n      swap1\n      dup2\n      add\n      0x40\n      mstore\n      dup1\n      swap3\n      swap2\n      swap1\n      dup2\n      dup2\n      mstore\n      0x20\n      add\n      dup3\n      dup1\n      sload\n      tag_271\n      swap1\n      tag_170\n      jump\t// in\n    tag_271:\n      dup1\n      iszero\n      tag_272\n      jumpi\n      dup1\n      0x1f\n      lt\n      tag_273\n      jumpi\n      0x0100\n      dup1\n      dup4\n      sload\n      div\n      mul\n      dup4\n      mstore\n      swap2\n      0x20\n      add\n      swap2\n      jump(tag_272)\n    tag_273:\n      dup3\n      add\n      swap2\n      swap1\n      0x00\n      mstore\n      keccak256(0x00, 0x20)\n      swap1\n    tag_274:\n      dup2\n      sload\n      dup2\n      mstore\n      swap1\n      0x01\n      add\n      swap1\n      0x20\n      add\n      dup1\n      dup4\n      gt\n      tag_274\n      jumpi\n      dup3\n      swap1\n      sub\n      0x1f\n      and\n      dup3\n      add\n      swap2\n    tag_272:\n      pop\n      pop\n      pop\n      pop\n      pop\n      swap1\n      dup1\n      0x02\n      add\n      dup1\n      sload\n      tag_275\n      swap1\n      tag_170\n      jump\t// in\n    tag_275:\n      dup1\n      0x1f\n      add\n      0x20\n      dup1\n      swap2\n      div\n      mul\n      0x20\n      add\n      mload(0x40)\n      swap1\n      dup2\n      add\n      0x40\n      mstore\n      dup1\n      swap3\n      swap2\n      swap1\n      dup2\n      dup2\n      mstore\n      0x20\n      add\n      dup3\n      dup1\n      sload\n      tag_276\n      swap1\n      tag_170\n      jump\t// in\n    tag_276:\n      dup1\n      iszero\n      tag_277\n      jumpi\n      dup1\n      0x1f\n      lt\n      tag_278\n      jumpi\n      0x0100\n      dup1\n      dup4\n      sload\n      div\n      mul\n      dup4\n      mstore\n      swap2\n      0x20\n      add\n      swap2\n      jump(tag_277)\n    tag_278:\n      dup3\n      add\n      swap2\n      swap1\n      0x00\n      mstore\n      keccak256(0x00, 0x20)\n      swap1\n    tag_279:\n      dup2\n      sload\n      dup2\n      mstore\n      swap1\n      0x01\n      add\n      swap1\n      0x20\n      add\n      dup1\n      dup4\n      gt\n      tag_279\n      jumpi\n      dup3\n      swap1\n      sub\n      0x1f\n      and\n      dup3\n      add\n      swap2\n    tag_277:\n      pop\n      pop\n      pop\n      pop\n      pop\n      swap1\n      dup1\n      0x03\n      add\n      sload\n      swap1\n      dup1\n      0x04\n      add\n      dup1\n      sload\n      tag_280\n      swap1\n      tag_170\n      jump\t// in\n    tag_280:\n      dup1\n      0x1f\n      add\n      0x20\n      dup1\n      swap2\n      div\n      mul\n      0x20\n      add\n      mload(0x40)\n      swap1\n      dup2\n      add\n      0x40\n      mstore\n      dup1\n      swap3\n      swap2\n      swap1\n      dup2\n      dup2\n      mstore\n      0x20\n      add\n      dup3\n      dup1\n      sload\n      tag_281\n      swap1\n      tag_170\n      jump\t// in\n    tag_281:\n      dup1\n      iszero\n      tag_282\n      jumpi\n      dup1\n      0x1f\n      lt\n      tag_283\n      jumpi\n      0x0100\n      dup1\n      dup4\n      sload\n      div\n      mul\n      dup4\n      mstore\n      swap2\n      0x20\n      add\n      swap2\n      jump(tag_282)\n    tag_283:\n      dup3\n      add\n      swap2\n      swap1\n      0x00\n      mstore\n      keccak256(0x00, 0x20)\n      swap1\n    tag_284:\n      dup2\n      sload\n      dup2\n      mstore\n      swap1\n      0x01\n      add\n      swap1\n      0x20\n      add\n      dup1\n      dup4\n      gt\n      tag_284\n      jumpi\n      dup3\n      swap1\n      sub\n      0x1f\n      and\n      dup3\n      add\n      swap2\n    tag_282:\n      pop\n      pop\n      pop\n      pop\n      pop\n      swap1\n      dup1\n      0x05\n      add\n      sload\n      swap1\n      dup1\n      0x06\n      add\n      dup1\n      sload\n      tag_285\n      swap1\n      tag_170\n      jump\t// in\n    tag_285:\n      dup1\n      0x1f\n      add\n      0x20\n      dup1\n      swap2\n      div\n      mul\n      0x20\n      add\n      mload(0x40)\n      swap1\n      dup2\n      add\n      0x40\n      mstore\n      dup1\n      swap3\n      swap2\n      swap1\n      dup2\n      dup2\n      mstore\n      0x20\n      add\n      dup3\n      dup1\n      sload\n      tag_286\n      swap1\n      tag_170\n      jump\t// in\n    tag_286:\n      dup1\n      iszero\n      tag_287\n      jumpi\n      dup1\n      0x1f\n      lt\n      tag_288\n      jumpi\n      0x0100\n      dup1\n      dup4\n      sload\n      div\n      mul\n      dup4\n      mstore\n      swap2\n      0x20\n      add\n      swap2\n      jump(tag_287)\n    tag_288:\n      dup3\n      add\n      swap2\n      swap1\n      0x00\n      mstore\n      keccak256(0x00, 0x20)\n      swap1\n    tag_289:\n      dup2\n      sload\n      dup2\n      mstore\n      swap1\n      0x01\n      add\n      swap1\n      0x20\n      add\n      dup1\n      dup4\n      gt\n      tag_289\n      jumpi\n      dup3\n      swap1\n      sub\n      0x1f\n      and\n      dup3\n      add\n      swap2\n    tag_287:\n      pop\n      pop\n      pop\n      pop\n      pop\n      swap1\n      dup1\n      0x07\n      add\n      sload\n      swap1\n      dup1\n      0x08\n      add\n      sload\n      swap1\n      dup1\n      0x09\n      add\n      0x00\n      swap1\n      sload\n      swap1\n      0x0100\n      exp\n      swap1\n      div\n      0xff\n      and\n      swap1\n      dup1\n      0x0d\n      add\n      sload\n      swap1\n      pop\n      dup12\n      jump\t// out\n        /* \"QuestEnigme.sol\":3251:3277  bool public questCompleted */\n    tag_96:\n      0x09\n      0x00\n      swap1\n      sload\n      swap1\n      0x0100\n      exp\n      swap1\n      div\n      0xff\n      and\n      dup2\n      jump\t// out\n        /* \"QuestEnigme.sol\":9992:10158  function getEnigmePlayersResponses(uint enigmeIndex) public view returns(string[] memory){... */\n    tag_101:\n        /* \"QuestEnigme.sol\":10065:10080  string[] memory */\n      0x60\n        /* \"QuestEnigme.sol\":10107:10114  enigmes */\n      0x00\n        /* \"QuestEnigme.sol\":10115:10126  enigmeIndex */\n      dup3\n        /* \"QuestEnigme.sol\":10107:10127  enigmes[enigmeIndex] */\n      dup2\n      sload\n      dup2\n      lt\n      tag_291\n      jumpi\n      tag_292\n      tag_157\n      jump\t// in\n    tag_292:\n    tag_291:\n      swap1\n      0x00\n      mstore\n      keccak256(0x00, 0x20)\n      swap1\n      0x0e\n      mul\n      add\n        /* \"QuestEnigme.sol\":10107:10150  enigmes[enigmeIndex].enigmePlayersResponses */\n      0x0c\n      add\n        /* \"QuestEnigme.sol\":10100:10151  return(enigmes[enigmeIndex].enigmePlayersResponses) */\n      dup1\n      sload\n      dup1\n      0x20\n      mul\n      0x20\n      add\n      mload(0x40)\n      swap1\n      dup2\n      add\n      0x40\n      mstore\n      dup1\n      swap3\n      swap2\n      swap1\n      dup2\n      dup2\n      mstore\n      0x20\n      add\n      0x00\n      swap1\n    tag_294:\n      dup3\n      dup3\n      lt\n      iszero\n      tag_295\n      jumpi\n      dup4\n      dup3\n      swap1\n      0x00\n      mstore\n      keccak256(0x00, 0x20)\n      add\n      dup1\n      sload\n      tag_297\n      swap1\n      tag_170\n      jump\t// in\n    tag_297:\n      dup1\n      0x1f\n      add\n      0x20\n      dup1\n      swap2\n      div\n      mul\n      0x20\n      add\n      mload(0x40)\n      swap1\n      dup2\n      add\n      0x40\n      mstore\n      dup1\n      swap3\n      swap2\n      swap1\n      dup2\n      dup2\n      mstore\n      0x20\n      add\n      dup3\n      dup1\n      sload\n      tag_298\n      swap1\n      tag_170\n      jump\t// in\n    tag_298:\n      dup1\n      iszero\n      tag_299\n      jumpi\n      dup1\n      0x1f\n      lt\n      tag_300\n      jumpi\n      0x0100\n      dup1\n      dup4\n      sload\n      div\n      mul\n      dup4\n      mstore\n      swap2\n      0x20\n      add\n      swap2\n      jump(tag_299)\n    tag_300:\n      dup3\n      add\n      swap2\n      swap1\n      0x00\n      mstore\n      keccak256(0x00, 0x20)\n      swap1\n    tag_301:\n      dup2\n      sload\n      dup2\n      mstore\n      swap1\n      0x01\n      add\n      swap1\n      0x20\n      add\n      dup1\n      dup4\n      gt\n      tag_301\n      jumpi\n      dup3\n      swap1\n      sub\n      0x1f\n      and\n      dup3\n      add\n      swap2\n    tag_299:\n      pop\n      pop\n      pop\n      pop\n      pop\n      dup2\n      mstore\n      0x20\n      add\n      swap1\n      0x01\n      add\n      swap1\n      jump(tag_294)\n    tag_295:\n      pop\n      pop\n      pop\n      pop\n      swap1\n      pop\n        /* \"QuestEnigme.sol\":9992:10158  function getEnigmePlayersResponses(uint enigmeIndex) public view returns(string[] memory){... */\n      swap2\n      swap1\n      pop\n      jump\t// out\n        /* \"QuestEnigme.sol\":4612:4699  function getQuestPrice() public view returns (uint){... */\n    tag_106:\n        /* \"QuestEnigme.sol\":4658:4662  uint */\n      0x00\n        /* \"QuestEnigme.sol\":4681:4691  questPrice */\n      sload(0x03)\n        /* \"QuestEnigme.sol\":4673:4692  return (questPrice) */\n      swap1\n      pop\n        /* \"QuestEnigme.sol\":4612:4699  function getQuestPrice() public view returns (uint){... */\n      swap1\n      jump\t// out\n        /* \"QuestEnigme.sol\":3185:3209  uint public playersCount */\n    tag_110:\n      sload(0x07)\n      dup2\n      jump\t// out\n        /* \"QuestEnigme.sol\":3990:4240  function getInQuest () public payable {... */\n    tag_113:\n        /* \"QuestEnigme.sol\":4063:4073  questPrice */\n      sload(0x03)\n        /* \"QuestEnigme.sol\":4050:4059  msg.value */\n      callvalue\n        /* \"QuestEnigme.sol\":4050:4073  msg.value == questPrice */\n      eq\n        /* \"QuestEnigme.sol\":4042:4074  require(msg.value == questPrice) */\n      tag_304\n      jumpi\n      0x00\n      dup1\n      revert\n    tag_304:\n        /* \"QuestEnigme.sol\":4119:4124  false */\n      0x00\n        /* \"QuestEnigme.sol\":4096:4124  players[msg.sender] == false */\n      iszero\n      iszero\n        /* \"QuestEnigme.sol\":4096:4103  players */\n      0x06\n        /* \"QuestEnigme.sol\":4096:4115  players[msg.sender] */\n      0x00\n        /* \"QuestEnigme.sol\":4104:4114  msg.sender */\n      caller\n        /* \"QuestEnigme.sol\":4096:4115  players[msg.sender] */\n      0xffffffffffffffffffffffffffffffffffffffff\n      and\n      0xffffffffffffffffffffffffffffffffffffffff\n      and\n      dup2\n      mstore\n      0x20\n      add\n      swap1\n      dup2\n      mstore\n      0x20\n      add\n      0x00\n      keccak256\n      0x00\n      swap1\n      sload\n      swap1\n      0x0100\n      exp\n      swap1\n      div\n      0xff\n      and\n        /* \"QuestEnigme.sol\":4096:4124  players[msg.sender] == false */\n      iszero\n      iszero\n      eq\n        /* \"QuestEnigme.sol\":4088:4165  require(players[msg.sender] == false, \"Vous avez deja paye pour cette Quete\") */\n      tag_305\n      jumpi\n      mload(0x40)\n      0x08c379a000000000000000000000000000000000000000000000000000000000\n      dup2\n      mstore\n      0x04\n      add\n      tag_306\n      swap1\n      tag_307\n      jump\t// in\n    tag_306:\n      mload(0x40)\n      dup1\n      swap2\n      sub\n      swap1\n      revert\n    tag_305:\n        /* \"QuestEnigme.sol\":4201:4205  true */\n      0x01\n        /* \"QuestEnigme.sol\":4179:4186  players */\n      0x06\n        /* \"QuestEnigme.sol\":4179:4198  players[msg.sender] */\n      0x00\n        /* \"QuestEnigme.sol\":4187:4197  msg.sender */\n      caller\n        /* \"QuestEnigme.sol\":4179:4198  players[msg.sender] */\n      0xffffffffffffffffffffffffffffffffffffffff\n      and\n      0xffffffffffffffffffffffffffffffffffffffff\n      and\n      dup2\n      mstore\n      0x20\n      add\n      swap1\n      dup2\n      mstore\n      0x20\n      add\n      0x00\n      keccak256\n      0x00\n        /* \"QuestEnigme.sol\":4179:4205  players[msg.sender] = true */\n      0x0100\n      exp\n      dup2\n      sload\n      dup2\n      0xff\n      mul\n      not\n      and\n      swap1\n      dup4\n      iszero\n      iszero\n      mul\n      or\n      swap1\n      sstore\n      pop\n        /* \"QuestEnigme.sol\":4219:4231  playersCount */\n      0x07\n      0x00\n        /* \"QuestEnigme.sol\":4219:4233  playersCount++ */\n      dup2\n      sload\n      dup1\n      swap3\n      swap2\n      swap1\n      tag_308\n      swap1\n      tag_161\n      jump\t// in\n    tag_308:\n      swap2\n      swap1\n      pop\n      sstore\n      pop\n        /* \"QuestEnigme.sol\":3990:4240  function getInQuest () public payable {... */\n      jump\t// out\n        /* \"QuestEnigme.sol\":3108:3134  string public questPicture */\n    tag_116:\n      0x05\n      dup1\n      sload\n      tag_309\n      swap1\n      tag_170\n      jump\t// in\n    tag_309:\n      dup1\n      0x1f\n      add\n      0x20\n      dup1\n      swap2\n      div\n      mul\n      0x20\n      add\n      mload(0x40)\n      swap1\n      dup2\n      add\n      0x40\n      mstore\n      dup1\n      swap3\n      swap2\n      swap1\n      dup2\n      dup2\n      mstore\n      0x20\n      add\n      dup3\n      dup1\n      sload\n      tag_310\n      swap1\n      tag_170\n      jump\t// in\n    tag_310:\n      dup1\n      iszero\n      tag_311\n      jumpi\n      dup1\n      0x1f\n      lt\n      tag_312\n      jumpi\n      0x0100\n      dup1\n      dup4\n      sload\n      div\n      mul\n      dup4\n      mstore\n      swap2\n      0x20\n      add\n      swap2\n      jump(tag_311)\n    tag_312:\n      dup3\n      add\n      swap2\n      swap1\n      0x00\n      mstore\n      keccak256(0x00, 0x20)\n      swap1\n    tag_313:\n      dup2\n      sload\n      dup2\n      mstore\n      swap1\n      0x01\n      add\n      swap1\n      0x20\n      add\n      dup1\n      dup4\n      gt\n      tag_313\n      jumpi\n      dup3\n      swap1\n      sub\n      0x1f\n      and\n      dup3\n      add\n      swap2\n    tag_311:\n      pop\n      pop\n      pop\n      pop\n      pop\n      dup2\n      jump\t// out\n        /* \"QuestEnigme.sol\":9539:9629  function getEnigmeCount() public view returns(uint) {... */\n    tag_120:\n        /* \"QuestEnigme.sol\":9585:9589  uint */\n      0x00\n        /* \"QuestEnigme.sol\":9608:9615  enigmes */\n      dup1\n        /* \"QuestEnigme.sol\":9608:9622  enigmes.length */\n      dup1\n      sload\n      swap1\n      pop\n        /* \"QuestEnigme.sol\":9601:9622  return enigmes.length */\n      swap1\n      pop\n        /* \"QuestEnigme.sol\":9539:9629  function getEnigmeCount() public view returns(uint) {... */\n      swap1\n      jump\t// out\n        /* \"QuestEnigme.sol\":3140:3179  mapping(address => bool) public players */\n    tag_125:\n      mstore(0x20, 0x06)\n      dup1\n      0x00\n      mstore\n      keccak256(0x00, 0x40)\n      0x00\n      swap2\n      pop\n      sload\n      swap1\n      0x0100\n      exp\n      swap1\n      div\n      0xff\n      and\n      dup2\n      jump\t// out\n        /* \"QuestEnigme.sol\":3044:3066  uint public questPrice */\n    tag_129:\n      sload(0x03)\n      dup2\n      jump\t// out\n        /* \"QuestEnigme.sol\":3215:3245  uint public questResponseCount */\n    tag_133:\n      sload(0x08)\n      dup2\n      jump\t// out\n        /* \"QuestEnigme.sol\":5883:6797  function createEnigme(string memory titleEnigme, string memory contentEnigme, string memory reponseEnigme, string memory clueEnigme1, string memory clueEnigme2, string memory clueEnigme3) public restricted {... */\n    tag_139:\n        /* \"QuestEnigme.sol\":3339:3346  manager */\n      0x01\n      0x00\n      swap1\n      sload\n      swap1\n      0x0100\n      exp\n      swap1\n      div\n      0xffffffffffffffffffffffffffffffffffffffff\n      and\n        /* \"QuestEnigme.sol\":3325:3346  msg.sender == manager */\n      0xffffffffffffffffffffffffffffffffffffffff\n      and\n        /* \"QuestEnigme.sol\":3325:3335  msg.sender */\n      caller\n        /* \"QuestEnigme.sol\":3325:3346  msg.sender == manager */\n      0xffffffffffffffffffffffffffffffffffffffff\n      and\n      eq\n        /* \"QuestEnigme.sol\":3317:3347  require(msg.sender == manager) */\n      tag_316\n      jumpi\n      0x00\n      dup1\n      revert\n    tag_316:\n        /* \"QuestEnigme.sol\":6097:6121  Enigme storage newEnigme */\n      0x00\n        /* \"QuestEnigme.sol\":6124:6131  enigmes */\n      dup1\n        /* \"QuestEnigme.sol\":6124:6138  enigmes.push() */\n      0x01\n      dup2\n      0x01\n      dup2\n      sload\n      add\n      dup1\n      dup3\n      sstore\n      dup1\n      swap2\n      pop\n      pop\n      sub\n      swap1\n      0x00\n      mstore\n      keccak256(0x00, 0x20)\n      swap1\n      0x0e\n      mul\n      add\n        /* \"QuestEnigme.sol\":6097:6138  Enigme storage newEnigme = enigmes.push() */\n      swap1\n      pop\n        /* \"QuestEnigme.sol\":6176:6187  titleEnigme */\n      dup7\n        /* \"QuestEnigme.sol\":6152:6161  newEnigme */\n      dup2\n        /* \"QuestEnigme.sol\":6152:6173  newEnigme.enigmeTitle */\n      0x00\n      add\n        /* \"QuestEnigme.sol\":6152:6187  newEnigme.enigmeTitle = titleEnigme */\n      swap1\n      dup1\n      mload\n      swap1\n      0x20\n      add\n      swap1\n      tag_319\n      swap3\n      swap2\n      swap1\n      tag_168\n      jump\t// in\n    tag_319:\n      pop\n        /* \"QuestEnigme.sol\":6229:6242  contentEnigme */\n      dup6\n        /* \"QuestEnigme.sol\":6203:6212  newEnigme */\n      dup2\n        /* \"QuestEnigme.sol\":6203:6226  newEnigme.enigmeContent */\n      0x01\n      add\n        /* \"QuestEnigme.sol\":6203:6242  newEnigme.enigmeContent = contentEnigme */\n      swap1\n      dup1\n      mload\n      swap1\n      0x20\n      add\n      swap1\n      tag_320\n      swap3\n      swap2\n      swap1\n      tag_168\n      jump\t// in\n    tag_320:\n      pop\n        /* \"QuestEnigme.sol\":6280:6291  clueEnigme1 */\n      dup4\n        /* \"QuestEnigme.sol\":6256:6265  newEnigme */\n      dup2\n        /* \"QuestEnigme.sol\":6256:6277  newEnigme.enigmeClue1 */\n      0x02\n      add\n        /* \"QuestEnigme.sol\":6256:6291  newEnigme.enigmeClue1 = clueEnigme1 */\n      swap1\n      dup1\n      mload\n      swap1\n      0x20\n      add\n      swap1\n      tag_321\n      swap3\n      swap2\n      swap1\n      tag_168\n      jump\t// in\n    tag_321:\n      pop\n        /* \"QuestEnigme.sol\":6335:6338  100 */\n      0x64\n        /* \"QuestEnigme.sol\":6305:6314  newEnigme */\n      dup2\n        /* \"QuestEnigme.sol\":6305:6332  newEnigme.enigmeClue1Unlock */\n      0x03\n      add\n        /* \"QuestEnigme.sol\":6305:6338  newEnigme.enigmeClue1Unlock = 100 */\n      dup2\n      swap1\n      sstore\n      pop\n        /* \"QuestEnigme.sol\":6376:6387  clueEnigme2 */\n      dup3\n        /* \"QuestEnigme.sol\":6352:6361  newEnigme */\n      dup2\n        /* \"QuestEnigme.sol\":6352:6373  newEnigme.enigmeClue2 */\n      0x04\n      add\n        /* \"QuestEnigme.sol\":6352:6387  newEnigme.enigmeClue2 = clueEnigme2 */\n      swap1\n      dup1\n      mload\n      swap1\n      0x20\n      add\n      swap1\n      tag_322\n      swap3\n      swap2\n      swap1\n      tag_168\n      jump\t// in\n    tag_322:\n      pop\n        /* \"QuestEnigme.sol\":6431:6434  200 */\n      0xc8\n        /* \"QuestEnigme.sol\":6401:6410  newEnigme */\n      dup2\n        /* \"QuestEnigme.sol\":6401:6428  newEnigme.enigmeClue2Unlock */\n      0x05\n      add\n        /* \"QuestEnigme.sol\":6401:6434  newEnigme.enigmeClue2Unlock = 200 */\n      dup2\n      swap1\n      sstore\n      pop\n        /* \"QuestEnigme.sol\":6472:6483  clueEnigme3 */\n      dup2\n        /* \"QuestEnigme.sol\":6448:6457  newEnigme */\n      dup2\n        /* \"QuestEnigme.sol\":6448:6469  newEnigme.enigmeClue3 */\n      0x06\n      add\n        /* \"QuestEnigme.sol\":6448:6483  newEnigme.enigmeClue3 = clueEnigme3 */\n      swap1\n      dup1\n      mload\n      swap1\n      0x20\n      add\n      swap1\n      tag_323\n      swap3\n      swap2\n      swap1\n      tag_168\n      jump\t// in\n    tag_323:\n      pop\n        /* \"QuestEnigme.sol\":6527:6530  300 */\n      0x012c\n        /* \"QuestEnigme.sol\":6497:6506  newEnigme */\n      dup2\n        /* \"QuestEnigme.sol\":6497:6524  newEnigme.enigmeClue3Unlock */\n      0x07\n      add\n        /* \"QuestEnigme.sol\":6497:6530  newEnigme.enigmeClue3Unlock = 300 */\n      dup2\n      swap1\n      sstore\n      pop\n        /* \"QuestEnigme.sol\":6621:6622  0 */\n      0x00\n        /* \"QuestEnigme.sol\":6589:6598  newEnigme */\n      dup2\n        /* \"QuestEnigme.sol\":6589:6618  newEnigme.enigmeResponseCount */\n      0x08\n      add\n        /* \"QuestEnigme.sol\":6589:6622  newEnigme.enigmeResponseCount = 0 */\n      dup2\n      swap1\n      sstore\n      pop\n        /* \"QuestEnigme.sol\":6663:6668  false */\n      0x00\n        /* \"QuestEnigme.sol\":6636:6645  newEnigme */\n      dup2\n        /* \"QuestEnigme.sol\":6636:6660  newEnigme.enigmeComplete */\n      0x09\n      add\n      0x00\n        /* \"QuestEnigme.sol\":6636:6668  newEnigme.enigmeComplete = false */\n      0x0100\n      exp\n      dup2\n      sload\n      dup2\n      0xff\n      mul\n      not\n      and\n      swap1\n      dup4\n      iszero\n      iszero\n      mul\n      or\n      swap1\n      sstore\n      pop\n        /* \"QuestEnigme.sol\":6714:6715  0 */\n      0x00\n        /* \"QuestEnigme.sol\":6682:6691  newEnigme */\n      dup2\n        /* \"QuestEnigme.sol\":6682:6711  newEnigme.enigmeFinishByCount */\n      0x0d\n      add\n        /* \"QuestEnigme.sol\":6682:6715  newEnigme.enigmeFinishByCount = 0 */\n      dup2\n      swap1\n      sstore\n      pop\n        /* \"QuestEnigme.sol\":6768:6772  true */\n      0x01\n        /* \"QuestEnigme.sol\":6729:6738  newEnigme */\n      dup2\n        /* \"QuestEnigme.sol\":6729:6750  newEnigme.tryResponse */\n      0x0b\n      add\n        /* \"QuestEnigme.sol\":6751:6764  reponseEnigme */\n      dup7\n        /* \"QuestEnigme.sol\":6729:6765  newEnigme.tryResponse[reponseEnigme] */\n      mload(0x40)\n      tag_324\n      swap2\n      swap1\n      tag_205\n      jump\t// in\n    tag_324:\n      swap1\n      dup2\n      mstore\n      0x20\n      add\n      mload(0x40)\n      dup1\n      swap2\n      sub\n      swap1\n      keccak256\n      0x00\n        /* \"QuestEnigme.sol\":6729:6772  newEnigme.tryResponse[reponseEnigme] = true */\n      0x0100\n      exp\n      dup2\n      sload\n      dup2\n      0xff\n      mul\n      not\n      and\n      swap1\n      dup4\n      iszero\n      iszero\n      mul\n      or\n      swap1\n      sstore\n      pop\n        /* \"QuestEnigme.sol\":6089:6797  {... */\n      pop\n        /* \"QuestEnigme.sol\":5883:6797  function createEnigme(string memory titleEnigme, string memory contentEnigme, string memory reponseEnigme, string memory clueEnigme1, string memory clueEnigme2, string memory clueEnigme3) public restricted {... */\n      pop\n      pop\n      pop\n      pop\n      pop\n      pop\n      jump\t// out\n        /* \"QuestEnigme.sol\":3014:3038  string public questTitle */\n    tag_142:\n      0x02\n      dup1\n      sload\n      tag_325\n      swap1\n      tag_170\n      jump\t// in\n    tag_325:\n      dup1\n      0x1f\n      add\n      0x20\n      dup1\n      swap2\n      div\n      mul\n      0x20\n      add\n      mload(0x40)\n      swap1\n      dup2\n      add\n      0x40\n      mstore\n      dup1\n      swap3\n      swap2\n      swap1\n      dup2\n      dup2\n      mstore\n      0x20\n      add\n      dup3\n      dup1\n      sload\n      tag_326\n      swap1\n      tag_170\n      jump\t// in\n    tag_326:\n      dup1\n      iszero\n      tag_327\n      jumpi\n      dup1\n      0x1f\n      lt\n      tag_328\n      jumpi\n      0x0100\n      dup1\n      dup4\n      sload\n      div\n      mul\n      dup4\n      mstore\n      swap2\n      0x20\n      add\n      swap2\n      jump(tag_327)\n    tag_328:\n      dup3\n      add\n      swap2\n      swap1\n      0x00\n      mstore\n      keccak256(0x00, 0x20)\n      swap1\n    tag_329:\n      dup2\n      sload\n      dup2\n      mstore\n      swap1\n      0x01\n      add\n      swap1\n      0x20\n      add\n      dup1\n      dup4\n      gt\n      tag_329\n      jumpi\n      dup3\n      swap1\n      sub\n      0x1f\n      and\n      dup3\n      add\n      swap2\n    tag_327:\n      pop\n      pop\n      pop\n      pop\n      pop\n      dup2\n      jump\t// out\n        /* \"QuestEnigme.sol\":8377:8905  function enigmeClueChange(uint indexEnigme, uint indexEnigmeClue, string memory newEnigmeClue) public restricted{... */\n    tag_148:\n        /* \"QuestEnigme.sol\":3339:3346  manager */\n      0x01\n      0x00\n      swap1\n      sload\n      swap1\n      0x0100\n      exp\n      swap1\n      div\n      0xffffffffffffffffffffffffffffffffffffffff\n      and\n        /* \"QuestEnigme.sol\":3325:3346  msg.sender == manager */\n      0xffffffffffffffffffffffffffffffffffffffff\n      and\n        /* \"QuestEnigme.sol\":3325:3335  msg.sender */\n      caller\n        /* \"QuestEnigme.sol\":3325:3346  msg.sender == manager */\n      0xffffffffffffffffffffffffffffffffffffffff\n      and\n      eq\n        /* \"QuestEnigme.sol\":3317:3347  require(msg.sender == manager) */\n      tag_331\n      jumpi\n      0x00\n      dup1\n      revert\n    tag_331:\n        /* \"QuestEnigme.sol\":8503:8524  Enigme storage enigme */\n      0x00\n        /* \"QuestEnigme.sol\":8527:8534  enigmes */\n      dup1\n        /* \"QuestEnigme.sol\":8535:8546  indexEnigme */\n      dup5\n        /* \"QuestEnigme.sol\":8527:8547  enigmes[indexEnigme] */\n      dup2\n      sload\n      dup2\n      lt\n      tag_333\n      jumpi\n      tag_334\n      tag_157\n      jump\t// in\n    tag_334:\n    tag_333:\n      swap1\n      0x00\n      mstore\n      keccak256(0x00, 0x20)\n      swap1\n      0x0e\n      mul\n      add\n        /* \"QuestEnigme.sol\":8503:8547  Enigme storage enigme = enigmes[indexEnigme] */\n      swap1\n      pop\n        /* \"QuestEnigme.sol\":8589:8590  1 */\n      0x01\n        /* \"QuestEnigme.sol\":8570:8585  indexEnigmeClue */\n      dup4\n        /* \"QuestEnigme.sol\":8570:8590  indexEnigmeClue >= 1 */\n      lt\n      iszero\n        /* \"QuestEnigme.sol\":8570:8614  indexEnigmeClue >= 1 && indexEnigmeClue <= 3 */\n      dup1\n      iszero\n      tag_336\n      jumpi\n      pop\n        /* \"QuestEnigme.sol\":8613:8614  3 */\n      0x03\n        /* \"QuestEnigme.sol\":8594:8609  indexEnigmeClue */\n      dup4\n        /* \"QuestEnigme.sol\":8594:8614  indexEnigmeClue <= 3 */\n      gt\n      iszero\n        /* \"QuestEnigme.sol\":8570:8614  indexEnigmeClue >= 1 && indexEnigmeClue <= 3 */\n    tag_336:\n        /* \"QuestEnigme.sol\":8562:8615  require(indexEnigmeClue >= 1 && indexEnigmeClue <= 3) */\n      tag_337\n      jumpi\n      0x00\n      dup1\n      revert\n    tag_337:\n        /* \"QuestEnigme.sol\":8651:8652  1 */\n      0x01\n        /* \"QuestEnigme.sol\":8632:8647  indexEnigmeClue */\n      dup4\n        /* \"QuestEnigme.sol\":8632:8652  indexEnigmeClue == 1 */\n      eq\n        /* \"QuestEnigme.sol\":8629:8898  if(indexEnigmeClue == 1){... */\n      iszero\n      tag_338\n      jumpi\n        /* \"QuestEnigme.sol\":8692:8705  newEnigmeClue */\n      dup2\n        /* \"QuestEnigme.sol\":8671:8677  enigme */\n      dup2\n        /* \"QuestEnigme.sol\":8671:8689  enigme.enigmeClue1 */\n      0x02\n      add\n        /* \"QuestEnigme.sol\":8671:8705  enigme.enigmeClue1 = newEnigmeClue */\n      swap1\n      dup1\n      mload\n      swap1\n      0x20\n      add\n      swap1\n      tag_339\n      swap3\n      swap2\n      swap1\n      tag_168\n      jump\t// in\n    tag_339:\n      pop\n        /* \"QuestEnigme.sol\":8629:8898  if(indexEnigmeClue == 1){... */\n      jump(tag_340)\n    tag_338:\n        /* \"QuestEnigme.sol\":8761:8762  2 */\n      0x02\n        /* \"QuestEnigme.sol\":8742:8757  indexEnigmeClue */\n      dup4\n        /* \"QuestEnigme.sol\":8742:8762  indexEnigmeClue == 2 */\n      eq\n        /* \"QuestEnigme.sol\":8738:8898  if (indexEnigmeClue == 2){... */\n      iszero\n      tag_341\n      jumpi\n        /* \"QuestEnigme.sol\":8802:8815  newEnigmeClue */\n      dup2\n        /* \"QuestEnigme.sol\":8781:8787  enigme */\n      dup2\n        /* \"QuestEnigme.sol\":8781:8799  enigme.enigmeClue2 */\n      0x04\n      add\n        /* \"QuestEnigme.sol\":8781:8815  enigme.enigmeClue2 = newEnigmeClue */\n      swap1\n      dup1\n      mload\n      swap1\n      0x20\n      add\n      swap1\n      tag_342\n      swap3\n      swap2\n      swap1\n      tag_168\n      jump\t// in\n    tag_342:\n      pop\n        /* \"QuestEnigme.sol\":8738:8898  if (indexEnigmeClue == 2){... */\n      jump(tag_343)\n    tag_341:\n        /* \"QuestEnigme.sol\":8885:8898  newEnigmeClue */\n      dup2\n        /* \"QuestEnigme.sol\":8864:8870  enigme */\n      dup2\n        /* \"QuestEnigme.sol\":8864:8882  enigme.enigmeClue3 */\n      0x06\n      add\n        /* \"QuestEnigme.sol\":8864:8898  enigme.enigmeClue3 = newEnigmeClue */\n      swap1\n      dup1\n      mload\n      swap1\n      0x20\n      add\n      swap1\n      tag_344\n      swap3\n      swap2\n      swap1\n      tag_168\n      jump\t// in\n    tag_344:\n      pop\n        /* \"QuestEnigme.sol\":8738:8898  if (indexEnigmeClue == 2){... */\n    tag_343:\n        /* \"QuestEnigme.sol\":8629:8898  if(indexEnigmeClue == 1){... */\n    tag_340:\n        /* \"QuestEnigme.sol\":8489:8905  {... */\n      pop\n        /* \"QuestEnigme.sol\":8377:8905  function enigmeClueChange(uint indexEnigme, uint indexEnigmeClue, string memory newEnigmeClue) public restricted{... */\n      pop\n      pop\n      pop\n      jump\t// out\n    tag_168:\n      dup3\n      dup1\n      sload\n      tag_345\n      swap1\n      tag_170\n      jump\t// in\n    tag_345:\n      swap1\n      0x00\n      mstore\n      keccak256(0x00, 0x20)\n      swap1\n      0x1f\n      add\n      0x20\n      swap1\n      div\n      dup2\n      add\n      swap3\n      dup3\n      tag_347\n      jumpi\n      0x00\n      dup6\n      sstore\n      jump(tag_346)\n    tag_347:\n      dup3\n      0x1f\n      lt\n      tag_348\n      jumpi\n      dup1\n      mload\n      not(0xff)\n      and\n      dup4\n      dup1\n      add\n      or\n      dup6\n      sstore\n      jump(tag_346)\n    tag_348:\n      dup3\n      dup1\n      add\n      0x01\n      add\n      dup6\n      sstore\n      dup3\n      iszero\n      tag_346\n      jumpi\n      swap2\n      dup3\n      add\n    tag_349:\n      dup3\n      dup2\n      gt\n      iszero\n      tag_350\n      jumpi\n      dup3\n      mload\n      dup3\n      sstore\n      swap2\n      0x20\n      add\n      swap2\n      swap1\n      0x01\n      add\n      swap1\n      jump(tag_349)\n    tag_350:\n    tag_346:\n      pop\n      swap1\n      pop\n      tag_351\n      swap2\n      swap1\n      tag_352\n      jump\t// in\n    tag_351:\n      pop\n      swap1\n      jump\t// out\n    tag_352:\n    tag_353:\n      dup1\n      dup3\n      gt\n      iszero\n      tag_354\n      jumpi\n      0x00\n      dup2\n      0x00\n      swap1\n      sstore\n      pop\n      0x01\n      add\n      jump(tag_353)\n    tag_354:\n      pop\n      swap1\n      jump\t// out\n        /* \"#utility.yul\":7:82   */\n    tag_355:\n        /* \"#utility.yul\":40:46   */\n      0x00\n        /* \"#utility.yul\":73:75   */\n      0x40\n        /* \"#utility.yul\":67:76   */\n      mload\n        /* \"#utility.yul\":57:76   */\n      swap1\n      pop\n        /* \"#utility.yul\":7:82   */\n      swap1\n      jump\t// out\n        /* \"#utility.yul\":88:205   */\n    tag_356:\n        /* \"#utility.yul\":197:198   */\n      0x00\n        /* \"#utility.yul\":194:195   */\n      dup1\n        /* \"#utility.yul\":187:199   */\n      revert\n        /* \"#utility.yul\":211:328   */\n    tag_357:\n        /* \"#utility.yul\":320:321   */\n      0x00\n        /* \"#utility.yul\":317:318   */\n      dup1\n        /* \"#utility.yul\":310:322   */\n      revert\n        /* \"#utility.yul\":334:460   */\n    tag_358:\n        /* \"#utility.yul\":371:378   */\n      0x00\n        /* \"#utility.yul\":411:453   */\n      0xffffffffffffffffffffffffffffffffffffffff\n        /* \"#utility.yul\":404:409   */\n      dup3\n        /* \"#utility.yul\":400:454   */\n      and\n        /* \"#utility.yul\":389:454   */\n      swap1\n      pop\n        /* \"#utility.yul\":334:460   */\n      swap2\n      swap1\n      pop\n      jump\t// out\n        /* \"#utility.yul\":466:562   */\n    tag_359:\n        /* \"#utility.yul\":503:510   */\n      0x00\n        /* \"#utility.yul\":532:556   */\n      tag_405\n        /* \"#utility.yul\":550:555   */\n      dup3\n        /* \"#utility.yul\":532:556   */\n      tag_358\n      jump\t// in\n    tag_405:\n        /* \"#utility.yul\":521:556   */\n      swap1\n      pop\n        /* \"#utility.yul\":466:562   */\n      swap2\n      swap1\n      pop\n      jump\t// out\n        /* \"#utility.yul\":568:690   */\n    tag_360:\n        /* \"#utility.yul\":641:665   */\n      tag_407\n        /* \"#utility.yul\":659:664   */\n      dup2\n        /* \"#utility.yul\":641:665   */\n      tag_359\n      jump\t// in\n    tag_407:\n        /* \"#utility.yul\":634:639   */\n      dup2\n        /* \"#utility.yul\":631:666   */\n      eq\n        /* \"#utility.yul\":621:684   */\n      tag_408\n      jumpi\n        /* \"#utility.yul\":680:681   */\n      0x00\n        /* \"#utility.yul\":677:678   */\n      dup1\n        /* \"#utility.yul\":670:682   */\n      revert\n        /* \"#utility.yul\":621:684   */\n    tag_408:\n        /* \"#utility.yul\":568:690   */\n      pop\n      jump\t// out\n        /* \"#utility.yul\":696:835   */\n    tag_361:\n        /* \"#utility.yul\":742:747   */\n      0x00\n        /* \"#utility.yul\":780:786   */\n      dup2\n        /* \"#utility.yul\":767:787   */\n      calldataload\n        /* \"#utility.yul\":758:787   */\n      swap1\n      pop\n        /* \"#utility.yul\":796:829   */\n      tag_410\n        /* \"#utility.yul\":823:828   */\n      dup2\n        /* \"#utility.yul\":796:829   */\n      tag_360\n      jump\t// in\n    tag_410:\n        /* \"#utility.yul\":696:835   */\n      swap3\n      swap2\n      pop\n      pop\n      jump\t// out\n        /* \"#utility.yul\":841:1170   */\n    tag_33:\n        /* \"#utility.yul\":900:906   */\n      0x00\n        /* \"#utility.yul\":949:951   */\n      0x20\n        /* \"#utility.yul\":937:946   */\n      dup3\n        /* \"#utility.yul\":928:935   */\n      dup5\n        /* \"#utility.yul\":924:947   */\n      sub\n        /* \"#utility.yul\":920:952   */\n      slt\n        /* \"#utility.yul\":917:1036   */\n      iszero\n      tag_412\n      jumpi\n        /* \"#utility.yul\":955:1034   */\n      tag_413\n      tag_356\n      jump\t// in\n    tag_413:\n        /* \"#utility.yul\":917:1036   */\n    tag_412:\n        /* \"#utility.yul\":1075:1076   */\n      0x00\n        /* \"#utility.yul\":1100:1153   */\n      tag_414\n        /* \"#utility.yul\":1145:1152   */\n      dup5\n        /* \"#utility.yul\":1136:1142   */\n      dup3\n        /* \"#utility.yul\":1125:1134   */\n      dup6\n        /* \"#utility.yul\":1121:1143   */\n      add\n        /* \"#utility.yul\":1100:1153   */\n      tag_361\n      jump\t// in\n    tag_414:\n        /* \"#utility.yul\":1090:1153   */\n      swap2\n      pop\n        /* \"#utility.yul\":1046:1163   */\n      pop\n        /* \"#utility.yul\":841:1170   */\n      swap3\n      swap2\n      pop\n      pop\n      jump\t// out\n        /* \"#utility.yul\":1176:1293   */\n    tag_362:\n        /* \"#utility.yul\":1285:1286   */\n      0x00\n        /* \"#utility.yul\":1282:1283   */\n      dup1\n        /* \"#utility.yul\":1275:1287   */\n      revert\n        /* \"#utility.yul\":1299:1416   */\n    tag_363:\n        /* \"#utility.yul\":1408:1409   */\n      0x00\n        /* \"#utility.yul\":1405:1406   */\n      dup1\n        /* \"#utility.yul\":1398:1410   */\n      revert\n        /* \"#utility.yul\":1422:1524   */\n    tag_364:\n        /* \"#utility.yul\":1463:1469   */\n      0x00\n        /* \"#utility.yul\":1514:1516   */\n      0x1f\n        /* \"#utility.yul\":1510:1517   */\n      not\n        /* \"#utility.yul\":1505:1507   */\n      0x1f\n        /* \"#utility.yul\":1498:1503   */\n      dup4\n        /* \"#utility.yul\":1494:1508   */\n      add\n        /* \"#utility.yul\":1490:1518   */\n      and\n        /* \"#utility.yul\":1480:1518   */\n      swap1\n      pop\n        /* \"#utility.yul\":1422:1524   */\n      swap2\n      swap1\n      pop\n      jump\t// out\n        /* \"#utility.yul\":1530:1710   */\n    tag_365:\n        /* \"#utility.yul\":1578:1655   */\n      0x4e487b7100000000000000000000000000000000000000000000000000000000\n        /* \"#utility.yul\":1575:1576   */\n      0x00\n        /* \"#utility.yul\":1568:1656   */\n      mstore\n        /* \"#utility.yul\":1675:1679   */\n      0x41\n        /* \"#utility.yul\":1672:1673   */\n      0x04\n        /* \"#utility.yul\":1665:1680   */\n      mstore\n        /* \"#utility.yul\":1699:1703   */\n      0x24\n        /* \"#utility.yul\":1696:1697   */\n      0x00\n        /* \"#utility.yul\":1689:1704   */\n      revert\n        /* \"#utility.yul\":1716:1997   */\n    tag_366:\n        /* \"#utility.yul\":1799:1826   */\n      tag_420\n        /* \"#utility.yul\":1821:1825   */\n      dup3\n        /* \"#utility.yul\":1799:1826   */\n      tag_364\n      jump\t// in\n    tag_420:\n        /* \"#utility.yul\":1791:1797   */\n      dup2\n        /* \"#utility.yul\":1787:1827   */\n      add\n        /* \"#utility.yul\":1929:1935   */\n      dup2\n        /* \"#utility.yul\":1917:1927   */\n      dup2\n        /* \"#utility.yul\":1914:1936   */\n      lt\n        /* \"#utility.yul\":1893:1911   */\n      0xffffffffffffffff\n        /* \"#utility.yul\":1881:1891   */\n      dup3\n        /* \"#utility.yul\":1878:1912   */\n      gt\n        /* \"#utility.yul\":1875:1937   */\n      or\n        /* \"#utility.yul\":1872:1960   */\n      iszero\n      tag_421\n      jumpi\n        /* \"#utility.yul\":1940:1958   */\n      tag_422\n      tag_365\n      jump\t// in\n    tag_422:\n        /* \"#utility.yul\":1872:1960   */\n    tag_421:\n        /* \"#utility.yul\":1980:1990   */\n      dup1\n        /* \"#utility.yul\":1976:1978   */\n      0x40\n        /* \"#utility.yul\":1969:1991   */\n      mstore\n        /* \"#utility.yul\":1759:1997   */\n      pop\n        /* \"#utility.yul\":1716:1997   */\n      pop\n      pop\n      jump\t// out\n        /* \"#utility.yul\":2003:2132   */\n    tag_367:\n        /* \"#utility.yul\":2037:2043   */\n      0x00\n        /* \"#utility.yul\":2064:2084   */\n      tag_424\n      tag_355\n      jump\t// in\n    tag_424:\n        /* \"#utility.yul\":2054:2084   */\n      swap1\n      pop\n        /* \"#utility.yul\":2093:2126   */\n      tag_425\n        /* \"#utility.yul\":2121:2125   */\n      dup3\n        /* \"#utility.yul\":2113:2119   */\n      dup3\n        /* \"#utility.yul\":2093:2126   */\n      tag_366\n      jump\t// in\n    tag_425:\n        /* \"#utility.yul\":2003:2132   */\n      swap2\n      swap1\n      pop\n      jump\t// out\n        /* \"#utility.yul\":2138:2446   */\n    tag_368:\n        /* \"#utility.yul\":2200:2204   */\n      0x00\n        /* \"#utility.yul\":2290:2308   */\n      0xffffffffffffffff\n        /* \"#utility.yul\":2282:2288   */\n      dup3\n        /* \"#utility.yul\":2279:2309   */\n      gt\n        /* \"#utility.yul\":2276:2332   */\n      iszero\n      tag_427\n      jumpi\n        /* \"#utility.yul\":2312:2330   */\n      tag_428\n      tag_365\n      jump\t// in\n    tag_428:\n        /* \"#utility.yul\":2276:2332   */\n    tag_427:\n        /* \"#utility.yul\":2350:2379   */\n      tag_429\n        /* \"#utility.yul\":2372:2378   */\n      dup3\n        /* \"#utility.yul\":2350:2379   */\n      tag_364\n      jump\t// in\n    tag_429:\n        /* \"#utility.yul\":2342:2379   */\n      swap1\n      pop\n        /* \"#utility.yul\":2434:2438   */\n      0x20\n        /* \"#utility.yul\":2428:2432   */\n      dup2\n        /* \"#utility.yul\":2424:2439   */\n      add\n        /* \"#utility.yul\":2416:2439   */\n      swap1\n      pop\n        /* \"#utility.yul\":2138:2446   */\n      swap2\n      swap1\n      pop\n      jump\t// out\n        /* \"#utility.yul\":2452:2606   */\n    tag_369:\n        /* \"#utility.yul\":2536:2542   */\n      dup3\n        /* \"#utility.yul\":2531:2534   */\n      dup2\n        /* \"#utility.yul\":2526:2529   */\n      dup4\n        /* \"#utility.yul\":2513:2543   */\n      calldatacopy\n        /* \"#utility.yul\":2598:2599   */\n      0x00\n        /* \"#utility.yul\":2589:2595   */\n      dup4\n        /* \"#utility.yul\":2584:2587   */\n      dup4\n        /* \"#utility.yul\":2580:2596   */\n      add\n        /* \"#utility.yul\":2573:2600   */\n      mstore\n        /* \"#utility.yul\":2452:2606   */\n      pop\n      pop\n      pop\n      jump\t// out\n        /* \"#utility.yul\":2612:3024   */\n    tag_370:\n        /* \"#utility.yul\":2690:2695   */\n      0x00\n        /* \"#utility.yul\":2715:2781   */\n      tag_432\n        /* \"#utility.yul\":2731:2780   */\n      tag_433\n        /* \"#utility.yul\":2773:2779   */\n      dup5\n        /* \"#utility.yul\":2731:2780   */\n      tag_368\n      jump\t// in\n    tag_433:\n        /* \"#utility.yul\":2715:2781   */\n      tag_367\n      jump\t// in\n    tag_432:\n        /* \"#utility.yul\":2706:2781   */\n      swap1\n      pop\n        /* \"#utility.yul\":2804:2810   */\n      dup3\n        /* \"#utility.yul\":2797:2802   */\n      dup2\n        /* \"#utility.yul\":2790:2811   */\n      mstore\n        /* \"#utility.yul\":2842:2846   */\n      0x20\n        /* \"#utility.yul\":2835:2840   */\n      dup2\n        /* \"#utility.yul\":2831:2847   */\n      add\n        /* \"#utility.yul\":2880:2883   */\n      dup5\n        /* \"#utility.yul\":2871:2877   */\n      dup5\n        /* \"#utility.yul\":2866:2869   */\n      dup5\n        /* \"#utility.yul\":2862:2878   */\n      add\n        /* \"#utility.yul\":2859:2884   */\n      gt\n        /* \"#utility.yul\":2856:2968   */\n      iszero\n      tag_434\n      jumpi\n        /* \"#utility.yul\":2887:2966   */\n      tag_435\n      tag_363\n      jump\t// in\n    tag_435:\n        /* \"#utility.yul\":2856:2968   */\n    tag_434:\n        /* \"#utility.yul\":2977:3018   */\n      tag_436\n        /* \"#utility.yul\":3011:3017   */\n      dup5\n        /* \"#utility.yul\":3006:3009   */\n      dup3\n        /* \"#utility.yul\":3001:3004   */\n      dup6\n        /* \"#utility.yul\":2977:3018   */\n      tag_369\n      jump\t// in\n    tag_436:\n        /* \"#utility.yul\":2696:3024   */\n      pop\n        /* \"#utility.yul\":2612:3024   */\n      swap4\n      swap3\n      pop\n      pop\n      pop\n      jump\t// out\n        /* \"#utility.yul\":3044:3384   */\n    tag_371:\n        /* \"#utility.yul\":3100:3105   */\n      0x00\n        /* \"#utility.yul\":3149:3152   */\n      dup3\n        /* \"#utility.yul\":3142:3146   */\n      0x1f\n        /* \"#utility.yul\":3134:3140   */\n      dup4\n        /* \"#utility.yul\":3130:3147   */\n      add\n        /* \"#utility.yul\":3126:3153   */\n      slt\n        /* \"#utility.yul\":3116:3238   */\n      tag_438\n      jumpi\n        /* \"#utility.yul\":3157:3236   */\n      tag_439\n      tag_362\n      jump\t// in\n    tag_439:\n        /* \"#utility.yul\":3116:3238   */\n    tag_438:\n        /* \"#utility.yul\":3274:3280   */\n      dup2\n        /* \"#utility.yul\":3261:3281   */\n      calldataload\n        /* \"#utility.yul\":3299:3378   */\n      tag_440\n        /* \"#utility.yul\":3374:3377   */\n      dup5\n        /* \"#utility.yul\":3366:3372   */\n      dup3\n        /* \"#utility.yul\":3359:3363   */\n      0x20\n        /* \"#utility.yul\":3351:3357   */\n      dup7\n        /* \"#utility.yul\":3347:3364   */\n      add\n        /* \"#utility.yul\":3299:3378   */\n      tag_370\n      jump\t// in\n    tag_440:\n        /* \"#utility.yul\":3290:3378   */\n      swap2\n      pop\n        /* \"#utility.yul\":3106:3384   */\n      pop\n        /* \"#utility.yul\":3044:3384   */\n      swap3\n      swap2\n      pop\n      pop\n      jump\t// out\n        /* \"#utility.yul\":3390:3899   */\n    tag_38:\n        /* \"#utility.yul\":3459:3465   */\n      0x00\n        /* \"#utility.yul\":3508:3510   */\n      0x20\n        /* \"#utility.yul\":3496:3505   */\n      dup3\n        /* \"#utility.yul\":3487:3494   */\n      dup5\n        /* \"#utility.yul\":3483:3506   */\n      sub\n        /* \"#utility.yul\":3479:3511   */\n      slt\n        /* \"#utility.yul\":3476:3595   */\n      iszero\n      tag_442\n      jumpi\n        /* \"#utility.yul\":3514:3593   */\n      tag_443\n      tag_356\n      jump\t// in\n    tag_443:\n        /* \"#utility.yul\":3476:3595   */\n    tag_442:\n        /* \"#utility.yul\":3662:3663   */\n      0x00\n        /* \"#utility.yul\":3651:3660   */\n      dup3\n        /* \"#utility.yul\":3647:3664   */\n      add\n        /* \"#utility.yul\":3634:3665   */\n      calldataload\n        /* \"#utility.yul\":3692:3710   */\n      0xffffffffffffffff\n        /* \"#utility.yul\":3684:3690   */\n      dup2\n        /* \"#utility.yul\":3681:3711   */\n      gt\n        /* \"#utility.yul\":3678:3795   */\n      iszero\n      tag_444\n      jumpi\n        /* \"#utility.yul\":3714:3793   */\n      tag_445\n      tag_357\n      jump\t// in\n    tag_445:\n        /* \"#utility.yul\":3678:3795   */\n    tag_444:\n        /* \"#utility.yul\":3819:3882   */\n      tag_446\n        /* \"#utility.yul\":3874:3881   */\n      dup5\n        /* \"#utility.yul\":3865:3871   */\n      dup3\n        /* \"#utility.yul\":3854:3863   */\n      dup6\n        /* \"#utility.yul\":3850:3872   */\n      add\n        /* \"#utility.yul\":3819:3882   */\n      tag_371\n      jump\t// in\n    tag_446:\n        /* \"#utility.yul\":3809:3882   */\n      swap2\n      pop\n        /* \"#utility.yul\":3605:3892   */\n      pop\n        /* \"#utility.yul\":3390:3899   */\n      swap3\n      swap2\n      pop\n      pop\n      jump\t// out\n        /* \"#utility.yul\":3905:4004   */\n    tag_372:\n        /* \"#utility.yul\":3957:3963   */\n      0x00\n        /* \"#utility.yul\":3991:3996   */\n      dup2\n        /* \"#utility.yul\":3985:3997   */\n      mload\n        /* \"#utility.yul\":3975:3997   */\n      swap1\n      pop\n        /* \"#utility.yul\":3905:4004   */\n      swap2\n      swap1\n      pop\n      jump\t// out\n        /* \"#utility.yul\":4010:4179   */\n    tag_373:\n        /* \"#utility.yul\":4094:4105   */\n      0x00\n        /* \"#utility.yul\":4128:4134   */\n      dup3\n        /* \"#utility.yul\":4123:4126   */\n      dup3\n        /* \"#utility.yul\":4116:4135   */\n      mstore\n        /* \"#utility.yul\":4168:4172   */\n      0x20\n        /* \"#utility.yul\":4163:4166   */\n      dup3\n        /* \"#utility.yul\":4159:4173   */\n      add\n        /* \"#utility.yul\":4144:4173   */\n      swap1\n      pop\n        /* \"#utility.yul\":4010:4179   */\n      swap3\n      swap2\n      pop\n      pop\n      jump\t// out\n        /* \"#utility.yul\":4185:4492   */\n    tag_374:\n        /* \"#utility.yul\":4253:4254   */\n      0x00\n        /* \"#utility.yul\":4263:4376   */\n    tag_450:\n        /* \"#utility.yul\":4277:4283   */\n      dup4\n        /* \"#utility.yul\":4274:4275   */\n      dup2\n        /* \"#utility.yul\":4271:4284   */\n      lt\n        /* \"#utility.yul\":4263:4376   */\n      iszero\n      tag_452\n      jumpi\n        /* \"#utility.yul\":4362:4363   */\n      dup1\n        /* \"#utility.yul\":4357:4360   */\n      dup3\n        /* \"#utility.yul\":4353:4364   */\n      add\n        /* \"#utility.yul\":4347:4365   */\n      mload\n        /* \"#utility.yul\":4343:4344   */\n      dup2\n        /* \"#utility.yul\":4338:4341   */\n      dup5\n        /* \"#utility.yul\":4334:4345   */\n      add\n        /* \"#utility.yul\":4327:4366   */\n      mstore\n        /* \"#utility.yul\":4299:4301   */\n      0x20\n        /* \"#utility.yul\":4296:4297   */\n      dup2\n        /* \"#utility.yul\":4292:4302   */\n      add\n        /* \"#utility.yul\":4287:4302   */\n      swap1\n      pop\n        /* \"#utility.yul\":4263:4376   */\n      jump(tag_450)\n    tag_452:\n        /* \"#utility.yul\":4394:4400   */\n      dup4\n        /* \"#utility.yul\":4391:4392   */\n      dup2\n        /* \"#utility.yul\":4388:4401   */\n      gt\n        /* \"#utility.yul\":4385:4486   */\n      iszero\n      tag_453\n      jumpi\n        /* \"#utility.yul\":4474:4475   */\n      0x00\n        /* \"#utility.yul\":4465:4471   */\n      dup5\n        /* \"#utility.yul\":4460:4463   */\n      dup5\n        /* \"#utility.yul\":4456:4472   */\n      add\n        /* \"#utility.yul\":4449:4476   */\n      mstore\n        /* \"#utility.yul\":4385:4486   */\n    tag_453:\n        /* \"#utility.yul\":4234:4492   */\n      pop\n        /* \"#utility.yul\":4185:4492   */\n      pop\n      pop\n      pop\n      jump\t// out\n        /* \"#utility.yul\":4498:4862   */\n    tag_375:\n        /* \"#utility.yul\":4586:4589   */\n      0x00\n        /* \"#utility.yul\":4614:4653   */\n      tag_455\n        /* \"#utility.yul\":4647:4652   */\n      dup3\n        /* \"#utility.yul\":4614:4653   */\n      tag_372\n      jump\t// in\n    tag_455:\n        /* \"#utility.yul\":4669:4740   */\n      tag_456\n        /* \"#utility.yul\":4733:4739   */\n      dup2\n        /* \"#utility.yul\":4728:4731   */\n      dup6\n        /* \"#utility.yul\":4669:4740   */\n      tag_373\n      jump\t// in\n    tag_456:\n        /* \"#utility.yul\":4662:4740   */\n      swap4\n      pop\n        /* \"#utility.yul\":4749:4801   */\n      tag_457\n        /* \"#utility.yul\":4794:4800   */\n      dup2\n        /* \"#utility.yul\":4789:4792   */\n      dup6\n        /* \"#utility.yul\":4782:4786   */\n      0x20\n        /* \"#utility.yul\":4775:4780   */\n      dup7\n        /* \"#utility.yul\":4771:4787   */\n      add\n        /* \"#utility.yul\":4749:4801   */\n      tag_374\n      jump\t// in\n    tag_457:\n        /* \"#utility.yul\":4826:4855   */\n      tag_458\n        /* \"#utility.yul\":4848:4854   */\n      dup2\n        /* \"#utility.yul\":4826:4855   */\n      tag_364\n      jump\t// in\n    tag_458:\n        /* \"#utility.yul\":4821:4824   */\n      dup5\n        /* \"#utility.yul\":4817:4856   */\n      add\n        /* \"#utility.yul\":4810:4856   */\n      swap2\n      pop\n        /* \"#utility.yul\":4590:4862   */\n      pop\n        /* \"#utility.yul\":4498:4862   */\n      swap3\n      swap2\n      pop\n      pop\n      jump\t// out\n        /* \"#utility.yul\":4868:5181   */\n    tag_41:\n        /* \"#utility.yul\":4981:4985   */\n      0x00\n        /* \"#utility.yul\":5019:5021   */\n      0x20\n        /* \"#utility.yul\":5008:5017   */\n      dup3\n        /* \"#utility.yul\":5004:5022   */\n      add\n        /* \"#utility.yul\":4996:5022   */\n      swap1\n      pop\n        /* \"#utility.yul\":5068:5077   */\n      dup2\n        /* \"#utility.yul\":5062:5066   */\n      dup2\n        /* \"#utility.yul\":5058:5078   */\n      sub\n        /* \"#utility.yul\":5054:5055   */\n      0x00\n        /* \"#utility.yul\":5043:5052   */\n      dup4\n        /* \"#utility.yul\":5039:5056   */\n      add\n        /* \"#utility.yul\":5032:5079   */\n      mstore\n        /* \"#utility.yul\":5096:5174   */\n      tag_460\n        /* \"#utility.yul\":5169:5173   */\n      dup2\n        /* \"#utility.yul\":5160:5166   */\n      dup5\n        /* \"#utility.yul\":5096:5174   */\n      tag_375\n      jump\t// in\n    tag_460:\n        /* \"#utility.yul\":5088:5174   */\n      swap1\n      pop\n        /* \"#utility.yul\":4868:5181   */\n      swap3\n      swap2\n      pop\n      pop\n      jump\t// out\n        /* \"#utility.yul\":5187:5264   */\n    tag_376:\n        /* \"#utility.yul\":5224:5231   */\n      0x00\n        /* \"#utility.yul\":5253:5258   */\n      dup2\n        /* \"#utility.yul\":5242:5258   */\n      swap1\n      pop\n        /* \"#utility.yul\":5187:5264   */\n      swap2\n      swap1\n      pop\n      jump\t// out\n        /* \"#utility.yul\":5270:5392   */\n    tag_377:\n        /* \"#utility.yul\":5343:5367   */\n      tag_463\n        /* \"#utility.yul\":5361:5366   */\n      dup2\n        /* \"#utility.yul\":5343:5367   */\n      tag_376\n      jump\t// in\n    tag_463:\n        /* \"#utility.yul\":5336:5341   */\n      dup2\n        /* \"#utility.yul\":5333:5368   */\n      eq\n        /* \"#utility.yul\":5323:5386   */\n      tag_464\n      jumpi\n        /* \"#utility.yul\":5382:5383   */\n      0x00\n        /* \"#utility.yul\":5379:5380   */\n      dup1\n        /* \"#utility.yul\":5372:5384   */\n      revert\n        /* \"#utility.yul\":5323:5386   */\n    tag_464:\n        /* \"#utility.yul\":5270:5392   */\n      pop\n      jump\t// out\n        /* \"#utility.yul\":5398:5537   */\n    tag_378:\n        /* \"#utility.yul\":5444:5449   */\n      0x00\n        /* \"#utility.yul\":5482:5488   */\n      dup2\n        /* \"#utility.yul\":5469:5489   */\n      calldataload\n        /* \"#utility.yul\":5460:5489   */\n      swap1\n      pop\n        /* \"#utility.yul\":5498:5531   */\n      tag_466\n        /* \"#utility.yul\":5525:5530   */\n      dup2\n        /* \"#utility.yul\":5498:5531   */\n      tag_377\n      jump\t// in\n    tag_466:\n        /* \"#utility.yul\":5398:5537   */\n      swap3\n      swap2\n      pop\n      pop\n      jump\t// out\n        /* \"#utility.yul\":5543:5872   */\n    tag_45:\n        /* \"#utility.yul\":5602:5608   */\n      0x00\n        /* \"#utility.yul\":5651:5653   */\n      0x20\n        /* \"#utility.yul\":5639:5648   */\n      dup3\n        /* \"#utility.yul\":5630:5637   */\n      dup5\n        /* \"#utility.yul\":5626:5649   */\n      sub\n        /* \"#utility.yul\":5622:5654   */\n      slt\n        /* \"#utility.yul\":5619:5738   */\n      iszero\n      tag_468\n      jumpi\n        /* \"#utility.yul\":5657:5736   */\n      tag_469\n      tag_356\n      jump\t// in\n    tag_469:\n        /* \"#utility.yul\":5619:5738   */\n    tag_468:\n        /* \"#utility.yul\":5777:5778   */\n      0x00\n        /* \"#utility.yul\":5802:5855   */\n      tag_470\n        /* \"#utility.yul\":5847:5854   */\n      dup5\n        /* \"#utility.yul\":5838:5844   */\n      dup3\n        /* \"#utility.yul\":5827:5836   */\n      dup6\n        /* \"#utility.yul\":5823:5845   */\n      add\n        /* \"#utility.yul\":5802:5855   */\n      tag_378\n      jump\t// in\n    tag_470:\n        /* \"#utility.yul\":5792:5855   */\n      swap2\n      pop\n        /* \"#utility.yul\":5748:5865   */\n      pop\n        /* \"#utility.yul\":5543:5872   */\n      swap3\n      swap2\n      pop\n      pop\n      jump\t// out\n        /* \"#utility.yul\":5878:5996   */\n    tag_379:\n        /* \"#utility.yul\":5965:5989   */\n      tag_472\n        /* \"#utility.yul\":5983:5988   */\n      dup2\n        /* \"#utility.yul\":5965:5989   */\n      tag_376\n      jump\t// in\n    tag_472:\n        /* \"#utility.yul\":5960:5963   */\n      dup3\n        /* \"#utility.yul\":5953:5990   */\n      mstore\n        /* \"#utility.yul\":5878:5996   */\n      pop\n      pop\n      jump\t// out\n        /* \"#utility.yul\":6002:6092   */\n    tag_380:\n        /* \"#utility.yul\":6036:6043   */\n      0x00\n        /* \"#utility.yul\":6079:6084   */\n      dup2\n        /* \"#utility.yul\":6072:6085   */\n      iszero\n        /* \"#utility.yul\":6065:6086   */\n      iszero\n        /* \"#utility.yul\":6054:6086   */\n      swap1\n      pop\n        /* \"#utility.yul\":6002:6092   */\n      swap2\n      swap1\n      pop\n      jump\t// out\n        /* \"#utility.yul\":6098:6207   */\n    tag_381:\n        /* \"#utility.yul\":6179:6200   */\n      tag_475\n        /* \"#utility.yul\":6194:6199   */\n      dup2\n        /* \"#utility.yul\":6179:6200   */\n      tag_380\n      jump\t// in\n    tag_475:\n        /* \"#utility.yul\":6174:6177   */\n      dup3\n        /* \"#utility.yul\":6167:6201   */\n      mstore\n        /* \"#utility.yul\":6098:6207   */\n      pop\n      pop\n      jump\t// out\n        /* \"#utility.yul\":6213:6936   */\n    tag_48:\n        /* \"#utility.yul\":6424:6428   */\n      0x00\n        /* \"#utility.yul\":6462:6465   */\n      0x80\n        /* \"#utility.yul\":6451:6460   */\n      dup3\n        /* \"#utility.yul\":6447:6466   */\n      add\n        /* \"#utility.yul\":6439:6466   */\n      swap1\n      pop\n        /* \"#utility.yul\":6512:6521   */\n      dup2\n        /* \"#utility.yul\":6506:6510   */\n      dup2\n        /* \"#utility.yul\":6502:6522   */\n      sub\n        /* \"#utility.yul\":6498:6499   */\n      0x00\n        /* \"#utility.yul\":6487:6496   */\n      dup4\n        /* \"#utility.yul\":6483:6500   */\n      add\n        /* \"#utility.yul\":6476:6523   */\n      mstore\n        /* \"#utility.yul\":6540:6618   */\n      tag_477\n        /* \"#utility.yul\":6613:6617   */\n      dup2\n        /* \"#utility.yul\":6604:6610   */\n      dup8\n        /* \"#utility.yul\":6540:6618   */\n      tag_375\n      jump\t// in\n    tag_477:\n        /* \"#utility.yul\":6532:6618   */\n      swap1\n      pop\n        /* \"#utility.yul\":6665:6674   */\n      dup2\n        /* \"#utility.yul\":6659:6663   */\n      dup2\n        /* \"#utility.yul\":6655:6675   */\n      sub\n        /* \"#utility.yul\":6650:6652   */\n      0x20\n        /* \"#utility.yul\":6639:6648   */\n      dup4\n        /* \"#utility.yul\":6635:6653   */\n      add\n        /* \"#utility.yul\":6628:6676   */\n      mstore\n        /* \"#utility.yul\":6693:6771   */\n      tag_478\n        /* \"#utility.yul\":6766:6770   */\n      dup2\n        /* \"#utility.yul\":6757:6763   */\n      dup7\n        /* \"#utility.yul\":6693:6771   */\n      tag_375\n      jump\t// in\n    tag_478:\n        /* \"#utility.yul\":6685:6771   */\n      swap1\n      pop\n        /* \"#utility.yul\":6781:6853   */\n      tag_479\n        /* \"#utility.yul\":6849:6851   */\n      0x40\n        /* \"#utility.yul\":6838:6847   */\n      dup4\n        /* \"#utility.yul\":6834:6852   */\n      add\n        /* \"#utility.yul\":6825:6831   */\n      dup6\n        /* \"#utility.yul\":6781:6853   */\n      tag_379\n      jump\t// in\n    tag_479:\n        /* \"#utility.yul\":6863:6929   */\n      tag_480\n        /* \"#utility.yul\":6925:6927   */\n      0x60\n        /* \"#utility.yul\":6914:6923   */\n      dup4\n        /* \"#utility.yul\":6910:6928   */\n      add\n        /* \"#utility.yul\":6901:6907   */\n      dup5\n        /* \"#utility.yul\":6863:6929   */\n      tag_381\n      jump\t// in\n    tag_480:\n        /* \"#utility.yul\":6213:6936   */\n      swap6\n      swap5\n      pop\n      pop\n      pop\n      pop\n      pop\n      jump\t// out\n        /* \"#utility.yul\":6942:7596   */\n    tag_52:\n        /* \"#utility.yul\":7020:7026   */\n      0x00\n        /* \"#utility.yul\":7028:7034   */\n      dup1\n        /* \"#utility.yul\":7077:7079   */\n      0x40\n        /* \"#utility.yul\":7065:7074   */\n      dup4\n        /* \"#utility.yul\":7056:7063   */\n      dup6\n        /* \"#utility.yul\":7052:7075   */\n      sub\n        /* \"#utility.yul\":7048:7080   */\n      slt\n        /* \"#utility.yul\":7045:7164   */\n      iszero\n      tag_482\n      jumpi\n        /* \"#utility.yul\":7083:7162   */\n      tag_483\n      tag_356\n      jump\t// in\n    tag_483:\n        /* \"#utility.yul\":7045:7164   */\n    tag_482:\n        /* \"#utility.yul\":7203:7204   */\n      0x00\n        /* \"#utility.yul\":7228:7281   */\n      tag_484\n        /* \"#utility.yul\":7273:7280   */\n      dup6\n        /* \"#utility.yul\":7264:7270   */\n      dup3\n        /* \"#utility.yul\":7253:7262   */\n      dup7\n        /* \"#utility.yul\":7249:7271   */\n      add\n        /* \"#utility.yul\":7228:7281   */\n      tag_378\n      jump\t// in\n    tag_484:\n        /* \"#utility.yul\":7218:7281   */\n      swap3\n      pop\n        /* \"#utility.yul\":7174:7291   */\n      pop\n        /* \"#utility.yul\":7358:7360   */\n      0x20\n        /* \"#utility.yul\":7347:7356   */\n      dup4\n        /* \"#utility.yul\":7343:7361   */\n      add\n        /* \"#utility.yul\":7330:7362   */\n      calldataload\n        /* \"#utility.yul\":7389:7407   */\n      0xffffffffffffffff\n        /* \"#utility.yul\":7381:7387   */\n      dup2\n        /* \"#utility.yul\":7378:7408   */\n      gt\n        /* \"#utility.yul\":7375:7492   */\n      iszero\n      tag_485\n      jumpi\n        /* \"#utility.yul\":7411:7490   */\n      tag_486\n      tag_357\n      jump\t// in\n    tag_486:\n        /* \"#utility.yul\":7375:7492   */\n    tag_485:\n        /* \"#utility.yul\":7516:7579   */\n      tag_487\n        /* \"#utility.yul\":7571:7578   */\n      dup6\n        /* \"#utility.yul\":7562:7568   */\n      dup3\n        /* \"#utility.yul\":7551:7560   */\n      dup7\n        /* \"#utility.yul\":7547:7569   */\n      add\n        /* \"#utility.yul\":7516:7579   */\n      tag_371\n      jump\t// in\n    tag_487:\n        /* \"#utility.yul\":7506:7579   */\n      swap2\n      pop\n        /* \"#utility.yul\":7301:7589   */\n      pop\n        /* \"#utility.yul\":6942:7596   */\n      swap3\n      pop\n      swap3\n      swap1\n      pop\n      jump\t// out\n        /* \"#utility.yul\":7602:7812   */\n    tag_55:\n        /* \"#utility.yul\":7689:7693   */\n      0x00\n        /* \"#utility.yul\":7727:7729   */\n      0x20\n        /* \"#utility.yul\":7716:7725   */\n      dup3\n        /* \"#utility.yul\":7712:7730   */\n      add\n        /* \"#utility.yul\":7704:7730   */\n      swap1\n      pop\n        /* \"#utility.yul\":7740:7805   */\n      tag_489\n        /* \"#utility.yul\":7802:7803   */\n      0x00\n        /* \"#utility.yul\":7791:7800   */\n      dup4\n        /* \"#utility.yul\":7787:7804   */\n      add\n        /* \"#utility.yul\":7778:7784   */\n      dup5\n        /* \"#utility.yul\":7740:7805   */\n      tag_381\n      jump\t// in\n    tag_489:\n        /* \"#utility.yul\":7602:7812   */\n      swap3\n      swap2\n      pop\n      pop\n      jump\t// out\n        /* \"#utility.yul\":7818:8437   */\n    tag_67:\n        /* \"#utility.yul\":7895:7901   */\n      0x00\n        /* \"#utility.yul\":7903:7909   */\n      dup1\n        /* \"#utility.yul\":7911:7917   */\n      0x00\n        /* \"#utility.yul\":7960:7962   */\n      0x60\n        /* \"#utility.yul\":7948:7957   */\n      dup5\n        /* \"#utility.yul\":7939:7946   */\n      dup7\n        /* \"#utility.yul\":7935:7958   */\n      sub\n        /* \"#utility.yul\":7931:7963   */\n      slt\n        /* \"#utility.yul\":7928:8047   */\n      iszero\n      tag_491\n      jumpi\n        /* \"#utility.yul\":7966:8045   */\n      tag_492\n      tag_356\n      jump\t// in\n    tag_492:\n        /* \"#utility.yul\":7928:8047   */\n    tag_491:\n        /* \"#utility.yul\":8086:8087   */\n      0x00\n        /* \"#utility.yul\":8111:8164   */\n      tag_493\n        /* \"#utility.yul\":8156:8163   */\n      dup7\n        /* \"#utility.yul\":8147:8153   */\n      dup3\n        /* \"#utility.yul\":8136:8145   */\n      dup8\n        /* \"#utility.yul\":8132:8154   */\n      add\n        /* \"#utility.yul\":8111:8164   */\n      tag_378\n      jump\t// in\n    tag_493:\n        /* \"#utility.yul\":8101:8164   */\n      swap4\n      pop\n        /* \"#utility.yul\":8057:8174   */\n      pop\n        /* \"#utility.yul\":8213:8215   */\n      0x20\n        /* \"#utility.yul\":8239:8292   */\n      tag_494\n        /* \"#utility.yul\":8284:8291   */\n      dup7\n        /* \"#utility.yul\":8275:8281   */\n      dup3\n        /* \"#utility.yul\":8264:8273   */\n      dup8\n        /* \"#utility.yul\":8260:8282   */\n      add\n        /* \"#utility.yul\":8239:8292   */\n      tag_378\n      jump\t// in\n    tag_494:\n        /* \"#utility.yul\":8229:8292   */\n      swap3\n      pop\n        /* \"#utility.yul\":8184:8302   */\n      pop\n        /* \"#utility.yul\":8341:8343   */\n      0x40\n        /* \"#utility.yul\":8367:8420   */\n      tag_495\n        /* \"#utility.yul\":8412:8419   */\n      dup7\n        /* \"#utility.yul\":8403:8409   */\n      dup3\n        /* \"#utility.yul\":8392:8401   */\n      dup8\n        /* \"#utility.yul\":8388:8410   */\n      add\n        /* \"#utility.yul\":8367:8420   */\n      tag_378\n      jump\t// in\n    tag_495:\n        /* \"#utility.yul\":8357:8420   */\n      swap2\n      pop\n        /* \"#utility.yul\":8312:8430   */\n      pop\n        /* \"#utility.yul\":7818:8437   */\n      swap3\n      pop\n      swap3\n      pop\n      swap3\n      jump\t// out\n        /* \"#utility.yul\":8443:8561   */\n    tag_382:\n        /* \"#utility.yul\":8530:8554   */\n      tag_497\n        /* \"#utility.yul\":8548:8553   */\n      dup2\n        /* \"#utility.yul\":8530:8554   */\n      tag_359\n      jump\t// in\n    tag_497:\n        /* \"#utility.yul\":8525:8528   */\n      dup3\n        /* \"#utility.yul\":8518:8555   */\n      mstore\n        /* \"#utility.yul\":8443:8561   */\n      pop\n      pop\n      jump\t// out\n        /* \"#utility.yul\":8567:9825   */\n    tag_73:\n        /* \"#utility.yul\":8910:8914   */\n      0x00\n        /* \"#utility.yul\":8948:8951   */\n      0x0100\n        /* \"#utility.yul\":8937:8946   */\n      dup3\n        /* \"#utility.yul\":8933:8952   */\n      add\n        /* \"#utility.yul\":8925:8952   */\n      swap1\n      pop\n        /* \"#utility.yul\":8962:9033   */\n      tag_499\n        /* \"#utility.yul\":9030:9031   */\n      0x00\n        /* \"#utility.yul\":9019:9028   */\n      dup4\n        /* \"#utility.yul\":9015:9032   */\n      add\n        /* \"#utility.yul\":9006:9012   */\n      dup12\n        /* \"#utility.yul\":8962:9033   */\n      tag_382\n      jump\t// in\n    tag_499:\n        /* \"#utility.yul\":9080:9089   */\n      dup2\n        /* \"#utility.yul\":9074:9078   */\n      dup2\n        /* \"#utility.yul\":9070:9090   */\n      sub\n        /* \"#utility.yul\":9065:9067   */\n      0x20\n        /* \"#utility.yul\":9054:9063   */\n      dup4\n        /* \"#utility.yul\":9050:9068   */\n      add\n        /* \"#utility.yul\":9043:9091   */\n      mstore\n        /* \"#utility.yul\":9108:9186   */\n      tag_500\n        /* \"#utility.yul\":9181:9185   */\n      dup2\n        /* \"#utility.yul\":9172:9178   */\n      dup11\n        /* \"#utility.yul\":9108:9186   */\n      tag_375\n      jump\t// in\n    tag_500:\n        /* \"#utility.yul\":9100:9186   */\n      swap1\n      pop\n        /* \"#utility.yul\":9233:9242   */\n      dup2\n        /* \"#utility.yul\":9227:9231   */\n      dup2\n        /* \"#utility.yul\":9223:9243   */\n      sub\n        /* \"#utility.yul\":9218:9220   */\n      0x40\n        /* \"#utility.yul\":9207:9216   */\n      dup4\n        /* \"#utility.yul\":9203:9221   */\n      add\n        /* \"#utility.yul\":9196:9244   */\n      mstore\n        /* \"#utility.yul\":9261:9339   */\n      tag_501\n        /* \"#utility.yul\":9334:9338   */\n      dup2\n        /* \"#utility.yul\":9325:9331   */\n      dup10\n        /* \"#utility.yul\":9261:9339   */\n      tag_375\n      jump\t// in\n    tag_501:\n        /* \"#utility.yul\":9253:9339   */\n      swap1\n      pop\n        /* \"#utility.yul\":9386:9395   */\n      dup2\n        /* \"#utility.yul\":9380:9384   */\n      dup2\n        /* \"#utility.yul\":9376:9396   */\n      sub\n        /* \"#utility.yul\":9371:9373   */\n      0x60\n        /* \"#utility.yul\":9360:9369   */\n      dup4\n        /* \"#utility.yul\":9356:9374   */\n      add\n        /* \"#utility.yul\":9349:9397   */\n      mstore\n        /* \"#utility.yul\":9414:9492   */\n      tag_502\n        /* \"#utility.yul\":9487:9491   */\n      dup2\n        /* \"#utility.yul\":9478:9484   */\n      dup9\n        /* \"#utility.yul\":9414:9492   */\n      tag_375\n      jump\t// in\n    tag_502:\n        /* \"#utility.yul\":9406:9492   */\n      swap1\n      pop\n        /* \"#utility.yul\":9502:9575   */\n      tag_503\n        /* \"#utility.yul\":9570:9573   */\n      0x80\n        /* \"#utility.yul\":9559:9568   */\n      dup4\n        /* \"#utility.yul\":9555:9574   */\n      add\n        /* \"#utility.yul\":9546:9552   */\n      dup8\n        /* \"#utility.yul\":9502:9575   */\n      tag_379\n      jump\t// in\n    tag_503:\n        /* \"#utility.yul\":9585:9658   */\n      tag_504\n        /* \"#utility.yul\":9653:9656   */\n      0xa0\n        /* \"#utility.yul\":9642:9651   */\n      dup4\n        /* \"#utility.yul\":9638:9657   */\n      add\n        /* \"#utility.yul\":9629:9635   */\n      dup7\n        /* \"#utility.yul\":9585:9658   */\n      tag_379\n      jump\t// in\n    tag_504:\n        /* \"#utility.yul\":9668:9741   */\n      tag_505\n        /* \"#utility.yul\":9736:9739   */\n      0xc0\n        /* \"#utility.yul\":9725:9734   */\n      dup4\n        /* \"#utility.yul\":9721:9740   */\n      add\n        /* \"#utility.yul\":9712:9718   */\n      dup6\n        /* \"#utility.yul\":9668:9741   */\n      tag_379\n      jump\t// in\n    tag_505:\n        /* \"#utility.yul\":9751:9818   */\n      tag_506\n        /* \"#utility.yul\":9813:9816   */\n      0xe0\n        /* \"#utility.yul\":9802:9811   */\n      dup4\n        /* \"#utility.yul\":9798:9817   */\n      add\n        /* \"#utility.yul\":9789:9795   */\n      dup5\n        /* \"#utility.yul\":9751:9818   */\n      tag_381\n      jump\t// in\n    tag_506:\n        /* \"#utility.yul\":8567:9825   */\n      swap10\n      swap9\n      pop\n      pop\n      pop\n      pop\n      pop\n      pop\n      pop\n      pop\n      pop\n      jump\t// out\n        /* \"#utility.yul\":9831:10053   */\n    tag_78:\n        /* \"#utility.yul\":9924:9928   */\n      0x00\n        /* \"#utility.yul\":9962:9964   */\n      0x20\n        /* \"#utility.yul\":9951:9960   */\n      dup3\n        /* \"#utility.yul\":9947:9965   */\n      add\n        /* \"#utility.yul\":9939:9965   */\n      swap1\n      pop\n        /* \"#utility.yul\":9975:10046   */\n      tag_508\n        /* \"#utility.yul\":10043:10044   */\n      0x00\n        /* \"#utility.yul\":10032:10041   */\n      dup4\n        /* \"#utility.yul\":10028:10045   */\n      add\n        /* \"#utility.yul\":10019:10025   */\n      dup5\n        /* \"#utility.yul\":9975:10046   */\n      tag_382\n      jump\t// in\n    tag_508:\n        /* \"#utility.yul\":9831:10053   */\n      swap3\n      swap2\n      pop\n      pop\n      jump\t// out\n        /* \"#utility.yul\":10059:10281   */\n    tag_83:\n        /* \"#utility.yul\":10152:10156   */\n      0x00\n        /* \"#utility.yul\":10190:10192   */\n      0x20\n        /* \"#utility.yul\":10179:10188   */\n      dup3\n        /* \"#utility.yul\":10175:10193   */\n      add\n        /* \"#utility.yul\":10167:10193   */\n      swap1\n      pop\n        /* \"#utility.yul\":10203:10274   */\n      tag_510\n        /* \"#utility.yul\":10271:10272   */\n      0x00\n        /* \"#utility.yul\":10260:10269   */\n      dup4\n        /* \"#utility.yul\":10256:10273   */\n      add\n        /* \"#utility.yul\":10247:10253   */\n      dup5\n        /* \"#utility.yul\":10203:10274   */\n      tag_379\n      jump\t// in\n    tag_510:\n        /* \"#utility.yul\":10059:10281   */\n      swap3\n      swap2\n      pop\n      pop\n      jump\t// out\n        /* \"#utility.yul\":10287:12062   */\n    tag_93:\n        /* \"#utility.yul\":10755:10759   */\n      0x00\n        /* \"#utility.yul\":10793:10796   */\n      0x0160\n        /* \"#utility.yul\":10782:10791   */\n      dup3\n        /* \"#utility.yul\":10778:10797   */\n      add\n        /* \"#utility.yul\":10770:10797   */\n      swap1\n      pop\n        /* \"#utility.yul\":10843:10852   */\n      dup2\n        /* \"#utility.yul\":10837:10841   */\n      dup2\n        /* \"#utility.yul\":10833:10853   */\n      sub\n        /* \"#utility.yul\":10829:10830   */\n      0x00\n        /* \"#utility.yul\":10818:10827   */\n      dup4\n        /* \"#utility.yul\":10814:10831   */\n      add\n        /* \"#utility.yul\":10807:10854   */\n      mstore\n        /* \"#utility.yul\":10871:10949   */\n      tag_512\n        /* \"#utility.yul\":10944:10948   */\n      dup2\n        /* \"#utility.yul\":10935:10941   */\n      dup15\n        /* \"#utility.yul\":10871:10949   */\n      tag_375\n      jump\t// in\n    tag_512:\n        /* \"#utility.yul\":10863:10949   */\n      swap1\n      pop\n        /* \"#utility.yul\":10996:11005   */\n      dup2\n        /* \"#utility.yul\":10990:10994   */\n      dup2\n        /* \"#utility.yul\":10986:11006   */\n      sub\n        /* \"#utility.yul\":10981:10983   */\n      0x20\n        /* \"#utility.yul\":10970:10979   */\n      dup4\n        /* \"#utility.yul\":10966:10984   */\n      add\n        /* \"#utility.yul\":10959:11007   */\n      mstore\n        /* \"#utility.yul\":11024:11102   */\n      tag_513\n        /* \"#utility.yul\":11097:11101   */\n      dup2\n        /* \"#utility.yul\":11088:11094   */\n      dup14\n        /* \"#utility.yul\":11024:11102   */\n      tag_375\n      jump\t// in\n    tag_513:\n        /* \"#utility.yul\":11016:11102   */\n      swap1\n      pop\n        /* \"#utility.yul\":11149:11158   */\n      dup2\n        /* \"#utility.yul\":11143:11147   */\n      dup2\n        /* \"#utility.yul\":11139:11159   */\n      sub\n        /* \"#utility.yul\":11134:11136   */\n      0x40\n        /* \"#utility.yul\":11123:11132   */\n      dup4\n        /* \"#utility.yul\":11119:11137   */\n      add\n        /* \"#utility.yul\":11112:11160   */\n      mstore\n        /* \"#utility.yul\":11177:11255   */\n      tag_514\n        /* \"#utility.yul\":11250:11254   */\n      dup2\n        /* \"#utility.yul\":11241:11247   */\n      dup13\n        /* \"#utility.yul\":11177:11255   */\n      tag_375\n      jump\t// in\n    tag_514:\n        /* \"#utility.yul\":11169:11255   */\n      swap1\n      pop\n        /* \"#utility.yul\":11265:11337   */\n      tag_515\n        /* \"#utility.yul\":11333:11335   */\n      0x60\n        /* \"#utility.yul\":11322:11331   */\n      dup4\n        /* \"#utility.yul\":11318:11336   */\n      add\n        /* \"#utility.yul\":11309:11315   */\n      dup12\n        /* \"#utility.yul\":11265:11337   */\n      tag_379\n      jump\t// in\n    tag_515:\n        /* \"#utility.yul\":11385:11394   */\n      dup2\n        /* \"#utility.yul\":11379:11383   */\n      dup2\n        /* \"#utility.yul\":11375:11395   */\n      sub\n        /* \"#utility.yul\":11369:11372   */\n      0x80\n        /* \"#utility.yul\":11358:11367   */\n      dup4\n        /* \"#utility.yul\":11354:11373   */\n      add\n        /* \"#utility.yul\":11347:11396   */\n      mstore\n        /* \"#utility.yul\":11413:11491   */\n      tag_516\n        /* \"#utility.yul\":11486:11490   */\n      dup2\n        /* \"#utility.yul\":11477:11483   */\n      dup11\n        /* \"#utility.yul\":11413:11491   */\n      tag_375\n      jump\t// in\n    tag_516:\n        /* \"#utility.yul\":11405:11491   */\n      swap1\n      pop\n        /* \"#utility.yul\":11501:11574   */\n      tag_517\n        /* \"#utility.yul\":11569:11572   */\n      0xa0\n        /* \"#utility.yul\":11558:11567   */\n      dup4\n        /* \"#utility.yul\":11554:11573   */\n      add\n        /* \"#utility.yul\":11545:11551   */\n      dup10\n        /* \"#utility.yul\":11501:11574   */\n      tag_379\n      jump\t// in\n    tag_517:\n        /* \"#utility.yul\":11622:11631   */\n      dup2\n        /* \"#utility.yul\":11616:11620   */\n      dup2\n        /* \"#utility.yul\":11612:11632   */\n      sub\n        /* \"#utility.yul\":11606:11609   */\n      0xc0\n        /* \"#utility.yul\":11595:11604   */\n      dup4\n        /* \"#utility.yul\":11591:11610   */\n      add\n        /* \"#utility.yul\":11584:11633   */\n      mstore\n        /* \"#utility.yul\":11650:11728   */\n      tag_518\n        /* \"#utility.yul\":11723:11727   */\n      dup2\n        /* \"#utility.yul\":11714:11720   */\n      dup9\n        /* \"#utility.yul\":11650:11728   */\n      tag_375\n      jump\t// in\n    tag_518:\n        /* \"#utility.yul\":11642:11728   */\n      swap1\n      pop\n        /* \"#utility.yul\":11738:11811   */\n      tag_519\n        /* \"#utility.yul\":11806:11809   */\n      0xe0\n        /* \"#utility.yul\":11795:11804   */\n      dup4\n        /* \"#utility.yul\":11791:11810   */\n      add\n        /* \"#utility.yul\":11782:11788   */\n      dup8\n        /* \"#utility.yul\":11738:11811   */\n      tag_379\n      jump\t// in\n    tag_519:\n        /* \"#utility.yul\":11821:11894   */\n      tag_520\n        /* \"#utility.yul\":11889:11892   */\n      0x0100\n        /* \"#utility.yul\":11878:11887   */\n      dup4\n        /* \"#utility.yul\":11874:11893   */\n      add\n        /* \"#utility.yul\":11865:11871   */\n      dup7\n        /* \"#utility.yul\":11821:11894   */\n      tag_379\n      jump\t// in\n    tag_520:\n        /* \"#utility.yul\":11904:11971   */\n      tag_521\n        /* \"#utility.yul\":11966:11969   */\n      0x0120\n        /* \"#utility.yul\":11955:11964   */\n      dup4\n        /* \"#utility.yul\":11951:11970   */\n      add\n        /* \"#utility.yul\":11942:11948   */\n      dup6\n        /* \"#utility.yul\":11904:11971   */\n      tag_381\n      jump\t// in\n    tag_521:\n        /* \"#utility.yul\":11981:12055   */\n      tag_522\n        /* \"#utility.yul\":12050:12053   */\n      0x0140\n        /* \"#utility.yul\":12039:12048   */\n      dup4\n        /* \"#utility.yul\":12035:12054   */\n      add\n        /* \"#utility.yul\":12025:12032   */\n      dup5\n        /* \"#utility.yul\":11981:12055   */\n      tag_379\n      jump\t// in\n    tag_522:\n        /* \"#utility.yul\":10287:12062   */\n      swap13\n      swap12\n      pop\n      pop\n      pop\n      pop\n      pop\n      pop\n      pop\n      pop\n      pop\n      pop\n      pop\n      pop\n      jump\t// out\n        /* \"#utility.yul\":12068:12192   */\n    tag_383:\n        /* \"#utility.yul\":12145:12151   */\n      0x00\n        /* \"#utility.yul\":12179:12184   */\n      dup2\n        /* \"#utility.yul\":12173:12185   */\n      mload\n        /* \"#utility.yul\":12163:12185   */\n      swap1\n      pop\n        /* \"#utility.yul\":12068:12192   */\n      swap2\n      swap1\n      pop\n      jump\t// out\n        /* \"#utility.yul\":12198:12392   */\n    tag_384:\n        /* \"#utility.yul\":12307:12318   */\n      0x00\n        /* \"#utility.yul\":12341:12347   */\n      dup3\n        /* \"#utility.yul\":12336:12339   */\n      dup3\n        /* \"#utility.yul\":12329:12348   */\n      mstore\n        /* \"#utility.yul\":12381:12385   */\n      0x20\n        /* \"#utility.yul\":12376:12379   */\n      dup3\n        /* \"#utility.yul\":12372:12386   */\n      add\n        /* \"#utility.yul\":12357:12386   */\n      swap1\n      pop\n        /* \"#utility.yul\":12198:12392   */\n      swap3\n      swap2\n      pop\n      pop\n      jump\t// out\n        /* \"#utility.yul\":12398:12540   */\n    tag_385:\n        /* \"#utility.yul\":12475:12479   */\n      0x00\n        /* \"#utility.yul\":12498:12501   */\n      dup2\n        /* \"#utility.yul\":12490:12501   */\n      swap1\n      pop\n        /* \"#utility.yul\":12528:12532   */\n      0x20\n        /* \"#utility.yul\":12523:12526   */\n      dup3\n        /* \"#utility.yul\":12519:12533   */\n      add\n        /* \"#utility.yul\":12511:12533   */\n      swap1\n      pop\n        /* \"#utility.yul\":12398:12540   */\n      swap2\n      swap1\n      pop\n      jump\t// out\n        /* \"#utility.yul\":12546:12705   */\n    tag_386:\n        /* \"#utility.yul\":12620:12631   */\n      0x00\n        /* \"#utility.yul\":12654:12660   */\n      dup3\n        /* \"#utility.yul\":12649:12652   */\n      dup3\n        /* \"#utility.yul\":12642:12661   */\n      mstore\n        /* \"#utility.yul\":12694:12698   */\n      0x20\n        /* \"#utility.yul\":12689:12692   */\n      dup3\n        /* \"#utility.yul\":12685:12699   */\n      add\n        /* \"#utility.yul\":12670:12699   */\n      swap1\n      pop\n        /* \"#utility.yul\":12546:12705   */\n      swap3\n      swap2\n      pop\n      pop\n      jump\t// out\n        /* \"#utility.yul\":12711:13055   */\n    tag_387:\n        /* \"#utility.yul\":12789:12792   */\n      0x00\n        /* \"#utility.yul\":12817:12856   */\n      tag_528\n        /* \"#utility.yul\":12850:12855   */\n      dup3\n        /* \"#utility.yul\":12817:12856   */\n      tag_372\n      jump\t// in\n    tag_528:\n        /* \"#utility.yul\":12872:12933   */\n      tag_529\n        /* \"#utility.yul\":12926:12932   */\n      dup2\n        /* \"#utility.yul\":12921:12924   */\n      dup6\n        /* \"#utility.yul\":12872:12933   */\n      tag_386\n      jump\t// in\n    tag_529:\n        /* \"#utility.yul\":12865:12933   */\n      swap4\n      pop\n        /* \"#utility.yul\":12942:12994   */\n      tag_530\n        /* \"#utility.yul\":12987:12993   */\n      dup2\n        /* \"#utility.yul\":12982:12985   */\n      dup6\n        /* \"#utility.yul\":12975:12979   */\n      0x20\n        /* \"#utility.yul\":12968:12973   */\n      dup7\n        /* \"#utility.yul\":12964:12980   */\n      add\n        /* \"#utility.yul\":12942:12994   */\n      tag_374\n      jump\t// in\n    tag_530:\n        /* \"#utility.yul\":13019:13048   */\n      tag_531\n        /* \"#utility.yul\":13041:13047   */\n      dup2\n        /* \"#utility.yul\":13019:13048   */\n      tag_364\n      jump\t// in\n    tag_531:\n        /* \"#utility.yul\":13014:13017   */\n      dup5\n        /* \"#utility.yul\":13010:13049   */\n      add\n        /* \"#utility.yul\":13003:13049   */\n      swap2\n      pop\n        /* \"#utility.yul\":12793:13055   */\n      pop\n        /* \"#utility.yul\":12711:13055   */\n      swap3\n      swap2\n      pop\n      pop\n      jump\t// out\n        /* \"#utility.yul\":13061:13257   */\n    tag_388:\n        /* \"#utility.yul\":13150:13160   */\n      0x00\n        /* \"#utility.yul\":13185:13251   */\n      tag_533\n        /* \"#utility.yul\":13247:13250   */\n      dup4\n        /* \"#utility.yul\":13239:13245   */\n      dup4\n        /* \"#utility.yul\":13185:13251   */\n      tag_387\n      jump\t// in\n    tag_533:\n        /* \"#utility.yul\":13171:13251   */\n      swap1\n      pop\n        /* \"#utility.yul\":13061:13257   */\n      swap3\n      swap2\n      pop\n      pop\n      jump\t// out\n        /* \"#utility.yul\":13263:13386   */\n    tag_389:\n        /* \"#utility.yul\":13343:13347   */\n      0x00\n        /* \"#utility.yul\":13375:13379   */\n      0x20\n        /* \"#utility.yul\":13370:13373   */\n      dup3\n        /* \"#utility.yul\":13366:13380   */\n      add\n        /* \"#utility.yul\":13358:13380   */\n      swap1\n      pop\n        /* \"#utility.yul\":13263:13386   */\n      swap2\n      swap1\n      pop\n      jump\t// out\n        /* \"#utility.yul\":13420:14411   */\n    tag_390:\n        /* \"#utility.yul\":13559:13562   */\n      0x00\n        /* \"#utility.yul\":13588:13652   */\n      tag_536\n        /* \"#utility.yul\":13646:13651   */\n      dup3\n        /* \"#utility.yul\":13588:13652   */\n      tag_383\n      jump\t// in\n    tag_536:\n        /* \"#utility.yul\":13668:13764   */\n      tag_537\n        /* \"#utility.yul\":13757:13763   */\n      dup2\n        /* \"#utility.yul\":13752:13755   */\n      dup6\n        /* \"#utility.yul\":13668:13764   */\n      tag_384\n      jump\t// in\n    tag_537:\n        /* \"#utility.yul\":13661:13764   */\n      swap4\n      pop\n        /* \"#utility.yul\":13790:13793   */\n      dup4\n        /* \"#utility.yul\":13835:13839   */\n      0x20\n        /* \"#utility.yul\":13827:13833   */\n      dup3\n        /* \"#utility.yul\":13823:13840   */\n      mul\n        /* \"#utility.yul\":13818:13821   */\n      dup6\n        /* \"#utility.yul\":13814:13841   */\n      add\n        /* \"#utility.yul\":13865:13931   */\n      tag_538\n        /* \"#utility.yul\":13925:13930   */\n      dup6\n        /* \"#utility.yul\":13865:13931   */\n      tag_385\n      jump\t// in\n    tag_538:\n        /* \"#utility.yul\":13954:13961   */\n      dup1\n        /* \"#utility.yul\":13985:13986   */\n      0x00\n        /* \"#utility.yul\":13970:14366   */\n    tag_539:\n        /* \"#utility.yul\":13995:14001   */\n      dup6\n        /* \"#utility.yul\":13992:13993   */\n      dup2\n        /* \"#utility.yul\":13989:14002   */\n      lt\n        /* \"#utility.yul\":13970:14366   */\n      iszero\n      tag_541\n      jumpi\n        /* \"#utility.yul\":14066:14075   */\n      dup5\n        /* \"#utility.yul\":14060:14064   */\n      dup5\n        /* \"#utility.yul\":14056:14076   */\n      sub\n        /* \"#utility.yul\":14051:14054   */\n      dup10\n        /* \"#utility.yul\":14044:14077   */\n      mstore\n        /* \"#utility.yul\":14117:14123   */\n      dup2\n        /* \"#utility.yul\":14111:14124   */\n      mload\n        /* \"#utility.yul\":14145:14229   */\n      tag_542\n        /* \"#utility.yul\":14224:14228   */\n      dup6\n        /* \"#utility.yul\":14209:14222   */\n      dup3\n        /* \"#utility.yul\":14145:14229   */\n      tag_388\n      jump\t// in\n    tag_542:\n        /* \"#utility.yul\":14137:14229   */\n      swap5\n      pop\n        /* \"#utility.yul\":14252:14322   */\n      tag_543\n        /* \"#utility.yul\":14315:14321   */\n      dup4\n        /* \"#utility.yul\":14252:14322   */\n      tag_389\n      jump\t// in\n    tag_543:\n        /* \"#utility.yul\":14242:14322   */\n      swap3\n      pop\n        /* \"#utility.yul\":14351:14355   */\n      0x20\n        /* \"#utility.yul\":14346:14349   */\n      dup11\n        /* \"#utility.yul\":14342:14356   */\n      add\n        /* \"#utility.yul\":14335:14356   */\n      swap10\n      pop\n        /* \"#utility.yul\":14030:14366   */\n      pop\n        /* \"#utility.yul\":14017:14018   */\n      0x01\n        /* \"#utility.yul\":14014:14015   */\n      dup2\n        /* \"#utility.yul\":14010:14019   */\n      add\n        /* \"#utility.yul\":14005:14019   */\n      swap1\n      pop\n        /* \"#utility.yul\":13970:14366   */\n      jump(tag_539)\n    tag_541:\n        /* \"#utility.yul\":13974:13988   */\n      pop\n        /* \"#utility.yul\":14382:14386   */\n      dup3\n        /* \"#utility.yul\":14375:14386   */\n      swap8\n      pop\n        /* \"#utility.yul\":14402:14405   */\n      dup8\n        /* \"#utility.yul\":14395:14405   */\n      swap6\n      pop\n        /* \"#utility.yul\":13564:14411   */\n      pop\n      pop\n      pop\n      pop\n      pop\n        /* \"#utility.yul\":13420:14411   */\n      swap3\n      swap2\n      pop\n      pop\n      jump\t// out\n        /* \"#utility.yul\":14417:14830   */\n    tag_103:\n        /* \"#utility.yul\":14580:14584   */\n      0x00\n        /* \"#utility.yul\":14618:14620   */\n      0x20\n        /* \"#utility.yul\":14607:14616   */\n      dup3\n        /* \"#utility.yul\":14603:14621   */\n      add\n        /* \"#utility.yul\":14595:14621   */\n      swap1\n      pop\n        /* \"#utility.yul\":14667:14676   */\n      dup2\n        /* \"#utility.yul\":14661:14665   */\n      dup2\n        /* \"#utility.yul\":14657:14677   */\n      sub\n        /* \"#utility.yul\":14653:14654   */\n      0x00\n        /* \"#utility.yul\":14642:14651   */\n      dup4\n        /* \"#utility.yul\":14638:14655   */\n      add\n        /* \"#utility.yul\":14631:14678   */\n      mstore\n        /* \"#utility.yul\":14695:14823   */\n      tag_545\n        /* \"#utility.yul\":14818:14822   */\n      dup2\n        /* \"#utility.yul\":14809:14815   */\n      dup5\n        /* \"#utility.yul\":14695:14823   */\n      tag_390\n      jump\t// in\n    tag_545:\n        /* \"#utility.yul\":14687:14823   */\n      swap1\n      pop\n        /* \"#utility.yul\":14417:14830   */\n      swap3\n      swap2\n      pop\n      pop\n      jump\t// out\n        /* \"#utility.yul\":14836:16973   */\n    tag_138:\n        /* \"#utility.yul\":15000:15006   */\n      0x00\n        /* \"#utility.yul\":15008:15014   */\n      dup1\n        /* \"#utility.yul\":15016:15022   */\n      0x00\n        /* \"#utility.yul\":15024:15030   */\n      dup1\n        /* \"#utility.yul\":15032:15038   */\n      0x00\n        /* \"#utility.yul\":15040:15046   */\n      dup1\n        /* \"#utility.yul\":15089:15092   */\n      0xc0\n        /* \"#utility.yul\":15077:15086   */\n      dup8\n        /* \"#utility.yul\":15068:15075   */\n      dup10\n        /* \"#utility.yul\":15064:15087   */\n      sub\n        /* \"#utility.yul\":15060:15093   */\n      slt\n        /* \"#utility.yul\":15057:15177   */\n      iszero\n      tag_547\n      jumpi\n        /* \"#utility.yul\":15096:15175   */\n      tag_548\n      tag_356\n      jump\t// in\n    tag_548:\n        /* \"#utility.yul\":15057:15177   */\n    tag_547:\n        /* \"#utility.yul\":15244:15245   */\n      0x00\n        /* \"#utility.yul\":15233:15242   */\n      dup8\n        /* \"#utility.yul\":15229:15246   */\n      add\n        /* \"#utility.yul\":15216:15247   */\n      calldataload\n        /* \"#utility.yul\":15274:15292   */\n      0xffffffffffffffff\n        /* \"#utility.yul\":15266:15272   */\n      dup2\n        /* \"#utility.yul\":15263:15293   */\n      gt\n        /* \"#utility.yul\":15260:15377   */\n      iszero\n      tag_549\n      jumpi\n        /* \"#utility.yul\":15296:15375   */\n      tag_550\n      tag_357\n      jump\t// in\n    tag_550:\n        /* \"#utility.yul\":15260:15377   */\n    tag_549:\n        /* \"#utility.yul\":15401:15464   */\n      tag_551\n        /* \"#utility.yul\":15456:15463   */\n      dup10\n        /* \"#utility.yul\":15447:15453   */\n      dup3\n        /* \"#utility.yul\":15436:15445   */\n      dup11\n        /* \"#utility.yul\":15432:15454   */\n      add\n        /* \"#utility.yul\":15401:15464   */\n      tag_371\n      jump\t// in\n    tag_551:\n        /* \"#utility.yul\":15391:15464   */\n      swap7\n      pop\n        /* \"#utility.yul\":15187:15474   */\n      pop\n        /* \"#utility.yul\":15541:15543   */\n      0x20\n        /* \"#utility.yul\":15530:15539   */\n      dup8\n        /* \"#utility.yul\":15526:15544   */\n      add\n        /* \"#utility.yul\":15513:15545   */\n      calldataload\n        /* \"#utility.yul\":15572:15590   */\n      0xffffffffffffffff\n        /* \"#utility.yul\":15564:15570   */\n      dup2\n        /* \"#utility.yul\":15561:15591   */\n      gt\n        /* \"#utility.yul\":15558:15675   */\n      iszero\n      tag_552\n      jumpi\n        /* \"#utility.yul\":15594:15673   */\n      tag_553\n      tag_357\n      jump\t// in\n    tag_553:\n        /* \"#utility.yul\":15558:15675   */\n    tag_552:\n        /* \"#utility.yul\":15699:15762   */\n      tag_554\n        /* \"#utility.yul\":15754:15761   */\n      dup10\n        /* \"#utility.yul\":15745:15751   */\n      dup3\n        /* \"#utility.yul\":15734:15743   */\n      dup11\n        /* \"#utility.yul\":15730:15752   */\n      add\n        /* \"#utility.yul\":15699:15762   */\n      tag_371\n      jump\t// in\n    tag_554:\n        /* \"#utility.yul\":15689:15762   */\n      swap6\n      pop\n        /* \"#utility.yul\":15484:15772   */\n      pop\n        /* \"#utility.yul\":15839:15841   */\n      0x40\n        /* \"#utility.yul\":15828:15837   */\n      dup8\n        /* \"#utility.yul\":15824:15842   */\n      add\n        /* \"#utility.yul\":15811:15843   */\n      calldataload\n        /* \"#utility.yul\":15870:15888   */\n      0xffffffffffffffff\n        /* \"#utility.yul\":15862:15868   */\n      dup2\n        /* \"#utility.yul\":15859:15889   */\n      gt\n        /* \"#utility.yul\":15856:15973   */\n      iszero\n      tag_555\n      jumpi\n        /* \"#utility.yul\":15892:15971   */\n      tag_556\n      tag_357\n      jump\t// in\n    tag_556:\n        /* \"#utility.yul\":15856:15973   */\n    tag_555:\n        /* \"#utility.yul\":15997:16060   */\n      tag_557\n        /* \"#utility.yul\":16052:16059   */\n      dup10\n        /* \"#utility.yul\":16043:16049   */\n      dup3\n        /* \"#utility.yul\":16032:16041   */\n      dup11\n        /* \"#utility.yul\":16028:16050   */\n      add\n        /* \"#utility.yul\":15997:16060   */\n      tag_371\n      jump\t// in\n    tag_557:\n        /* \"#utility.yul\":15987:16060   */\n      swap5\n      pop\n        /* \"#utility.yul\":15782:16070   */\n      pop\n        /* \"#utility.yul\":16137:16139   */\n      0x60\n        /* \"#utility.yul\":16126:16135   */\n      dup8\n        /* \"#utility.yul\":16122:16140   */\n      add\n        /* \"#utility.yul\":16109:16141   */\n      calldataload\n        /* \"#utility.yul\":16168:16186   */\n      0xffffffffffffffff\n        /* \"#utility.yul\":16160:16166   */\n      dup2\n        /* \"#utility.yul\":16157:16187   */\n      gt\n        /* \"#utility.yul\":16154:16271   */\n      iszero\n      tag_558\n      jumpi\n        /* \"#utility.yul\":16190:16269   */\n      tag_559\n      tag_357\n      jump\t// in\n    tag_559:\n        /* \"#utility.yul\":16154:16271   */\n    tag_558:\n        /* \"#utility.yul\":16295:16358   */\n      tag_560\n        /* \"#utility.yul\":16350:16357   */\n      dup10\n        /* \"#utility.yul\":16341:16347   */\n      dup3\n        /* \"#utility.yul\":16330:16339   */\n      dup11\n        /* \"#utility.yul\":16326:16348   */\n      add\n        /* \"#utility.yul\":16295:16358   */\n      tag_371\n      jump\t// in\n    tag_560:\n        /* \"#utility.yul\":16285:16358   */\n      swap4\n      pop\n        /* \"#utility.yul\":16080:16368   */\n      pop\n        /* \"#utility.yul\":16435:16438   */\n      0x80\n        /* \"#utility.yul\":16424:16433   */\n      dup8\n        /* \"#utility.yul\":16420:16439   */\n      add\n        /* \"#utility.yul\":16407:16440   */\n      calldataload\n        /* \"#utility.yul\":16467:16485   */\n      0xffffffffffffffff\n        /* \"#utility.yul\":16459:16465   */\n      dup2\n        /* \"#utility.yul\":16456:16486   */\n      gt\n        /* \"#utility.yul\":16453:16570   */\n      iszero\n      tag_561\n      jumpi\n        /* \"#utility.yul\":16489:16568   */\n      tag_562\n      tag_357\n      jump\t// in\n    tag_562:\n        /* \"#utility.yul\":16453:16570   */\n    tag_561:\n        /* \"#utility.yul\":16594:16657   */\n      tag_563\n        /* \"#utility.yul\":16649:16656   */\n      dup10\n        /* \"#utility.yul\":16640:16646   */\n      dup3\n        /* \"#utility.yul\":16629:16638   */\n      dup11\n        /* \"#utility.yul\":16625:16647   */\n      add\n        /* \"#utility.yul\":16594:16657   */\n      tag_371\n      jump\t// in\n    tag_563:\n        /* \"#utility.yul\":16584:16657   */\n      swap3\n      pop\n        /* \"#utility.yul\":16378:16667   */\n      pop\n        /* \"#utility.yul\":16734:16737   */\n      0xa0\n        /* \"#utility.yul\":16723:16732   */\n      dup8\n        /* \"#utility.yul\":16719:16738   */\n      add\n        /* \"#utility.yul\":16706:16739   */\n      calldataload\n        /* \"#utility.yul\":16766:16784   */\n      0xffffffffffffffff\n        /* \"#utility.yul\":16758:16764   */\n      dup2\n        /* \"#utility.yul\":16755:16785   */\n      gt\n        /* \"#utility.yul\":16752:16869   */\n      iszero\n      tag_564\n      jumpi\n        /* \"#utility.yul\":16788:16867   */\n      tag_565\n      tag_357\n      jump\t// in\n    tag_565:\n        /* \"#utility.yul\":16752:16869   */\n    tag_564:\n        /* \"#utility.yul\":16893:16956   */\n      tag_566\n        /* \"#utility.yul\":16948:16955   */\n      dup10\n        /* \"#utility.yul\":16939:16945   */\n      dup3\n        /* \"#utility.yul\":16928:16937   */\n      dup11\n        /* \"#utility.yul\":16924:16946   */\n      add\n        /* \"#utility.yul\":16893:16956   */\n      tag_371\n      jump\t// in\n    tag_566:\n        /* \"#utility.yul\":16883:16956   */\n      swap2\n      pop\n        /* \"#utility.yul\":16677:16966   */\n      pop\n        /* \"#utility.yul\":14836:16973   */\n      swap3\n      swap6\n      pop\n      swap3\n      swap6\n      pop\n      swap3\n      swap6\n      jump\t// out\n        /* \"#utility.yul\":16979:17778   */\n    tag_147:\n        /* \"#utility.yul\":17066:17072   */\n      0x00\n        /* \"#utility.yul\":17074:17080   */\n      dup1\n        /* \"#utility.yul\":17082:17088   */\n      0x00\n        /* \"#utility.yul\":17131:17133   */\n      0x60\n        /* \"#utility.yul\":17119:17128   */\n      dup5\n        /* \"#utility.yul\":17110:17117   */\n      dup7\n        /* \"#utility.yul\":17106:17129   */\n      sub\n        /* \"#utility.yul\":17102:17134   */\n      slt\n        /* \"#utility.yul\":17099:17218   */\n      iszero\n      tag_568\n      jumpi\n        /* \"#utility.yul\":17137:17216   */\n      tag_569\n      tag_356\n      jump\t// in\n    tag_569:\n        /* \"#utility.yul\":17099:17218   */\n    tag_568:\n        /* \"#utility.yul\":17257:17258   */\n      0x00\n        /* \"#utility.yul\":17282:17335   */\n      tag_570\n        /* \"#utility.yul\":17327:17334   */\n      dup7\n        /* \"#utility.yul\":17318:17324   */\n      dup3\n        /* \"#utility.yul\":17307:17316   */\n      dup8\n        /* \"#utility.yul\":17303:17325   */\n      add\n        /* \"#utility.yul\":17282:17335   */\n      tag_378\n      jump\t// in\n    tag_570:\n        /* \"#utility.yul\":17272:17335   */\n      swap4\n      pop\n        /* \"#utility.yul\":17228:17345   */\n      pop\n        /* \"#utility.yul\":17384:17386   */\n      0x20\n        /* \"#utility.yul\":17410:17463   */\n      tag_571\n        /* \"#utility.yul\":17455:17462   */\n      dup7\n        /* \"#utility.yul\":17446:17452   */\n      dup3\n        /* \"#utility.yul\":17435:17444   */\n      dup8\n        /* \"#utility.yul\":17431:17453   */\n      add\n        /* \"#utility.yul\":17410:17463   */\n      tag_378\n      jump\t// in\n    tag_571:\n        /* \"#utility.yul\":17400:17463   */\n      swap3\n      pop\n        /* \"#utility.yul\":17355:17473   */\n      pop\n        /* \"#utility.yul\":17540:17542   */\n      0x40\n        /* \"#utility.yul\":17529:17538   */\n      dup5\n        /* \"#utility.yul\":17525:17543   */\n      add\n        /* \"#utility.yul\":17512:17544   */\n      calldataload\n        /* \"#utility.yul\":17571:17589   */\n      0xffffffffffffffff\n        /* \"#utility.yul\":17563:17569   */\n      dup2\n        /* \"#utility.yul\":17560:17590   */\n      gt\n        /* \"#utility.yul\":17557:17674   */\n      iszero\n      tag_572\n      jumpi\n        /* \"#utility.yul\":17593:17672   */\n      tag_573\n      tag_357\n      jump\t// in\n    tag_573:\n        /* \"#utility.yul\":17557:17674   */\n    tag_572:\n        /* \"#utility.yul\":17698:17761   */\n      tag_574\n        /* \"#utility.yul\":17753:17760   */\n      dup7\n        /* \"#utility.yul\":17744:17750   */\n      dup3\n        /* \"#utility.yul\":17733:17742   */\n      dup8\n        /* \"#utility.yul\":17729:17751   */\n      add\n        /* \"#utility.yul\":17698:17761   */\n      tag_371\n      jump\t// in\n    tag_574:\n        /* \"#utility.yul\":17688:17761   */\n      swap2\n      pop\n        /* \"#utility.yul\":17483:17771   */\n      pop\n        /* \"#utility.yul\":16979:17778   */\n      swap3\n      pop\n      swap3\n      pop\n      swap3\n      jump\t// out\n        /* \"#utility.yul\":17784:17964   */\n    tag_157:\n        /* \"#utility.yul\":17832:17909   */\n      0x4e487b7100000000000000000000000000000000000000000000000000000000\n        /* \"#utility.yul\":17829:17830   */\n      0x00\n        /* \"#utility.yul\":17822:17910   */\n      mstore\n        /* \"#utility.yul\":17929:17933   */\n      0x32\n        /* \"#utility.yul\":17926:17927   */\n      0x04\n        /* \"#utility.yul\":17919:17934   */\n      mstore\n        /* \"#utility.yul\":17953:17957   */\n      0x24\n        /* \"#utility.yul\":17950:17951   */\n      0x00\n        /* \"#utility.yul\":17943:17958   */\n      revert\n        /* \"#utility.yul\":17970:18150   */\n    tag_391:\n        /* \"#utility.yul\":18018:18095   */\n      0x4e487b7100000000000000000000000000000000000000000000000000000000\n        /* \"#utility.yul\":18015:18016   */\n      0x00\n        /* \"#utility.yul\":18008:18096   */\n      mstore\n        /* \"#utility.yul\":18115:18119   */\n      0x11\n        /* \"#utility.yul\":18112:18113   */\n      0x04\n        /* \"#utility.yul\":18105:18120   */\n      mstore\n        /* \"#utility.yul\":18139:18143   */\n      0x24\n        /* \"#utility.yul\":18136:18137   */\n      0x00\n        /* \"#utility.yul\":18129:18144   */\n      revert\n        /* \"#utility.yul\":18156:18389   */\n    tag_161:\n        /* \"#utility.yul\":18195:18198   */\n      0x00\n        /* \"#utility.yul\":18218:18242   */\n      tag_578\n        /* \"#utility.yul\":18236:18241   */\n      dup3\n        /* \"#utility.yul\":18218:18242   */\n      tag_376\n      jump\t// in\n    tag_578:\n        /* \"#utility.yul\":18209:18242   */\n      swap2\n      pop\n        /* \"#utility.yul\":18264:18330   */\n      0xffffffffffffffffffffffffffffffffffffffffffffffffffffffffffffffff\n        /* \"#utility.yul\":18257:18262   */\n      dup3\n        /* \"#utility.yul\":18254:18331   */\n      eq\n        /* \"#utility.yul\":18251:18354   */\n      iszero\n      tag_579\n      jumpi\n        /* \"#utility.yul\":18334:18352   */\n      tag_580\n      tag_391\n      jump\t// in\n    tag_580:\n        /* \"#utility.yul\":18251:18354   */\n    tag_579:\n        /* \"#utility.yul\":18381:18382   */\n      0x01\n        /* \"#utility.yul\":18374:18379   */\n      dup3\n        /* \"#utility.yul\":18370:18383   */\n      add\n        /* \"#utility.yul\":18363:18383   */\n      swap1\n      pop\n        /* \"#utility.yul\":18156:18389   */\n      swap2\n      swap1\n      pop\n      jump\t// out\n        /* \"#utility.yul\":18395:18575   */\n    tag_392:\n        /* \"#utility.yul\":18443:18520   */\n      0x4e487b7100000000000000000000000000000000000000000000000000000000\n        /* \"#utility.yul\":18440:18441   */\n      0x00\n        /* \"#utility.yul\":18433:18521   */\n      mstore\n        /* \"#utility.yul\":18540:18544   */\n      0x22\n        /* \"#utility.yul\":18537:18538   */\n      0x04\n        /* \"#utility.yul\":18530:18545   */\n      mstore\n        /* \"#utility.yul\":18564:18568   */\n      0x24\n        /* \"#utility.yul\":18561:18562   */\n      0x00\n        /* \"#utility.yul\":18554:18569   */\n      revert\n        /* \"#utility.yul\":18581:18901   */\n    tag_170:\n        /* \"#utility.yul\":18625:18631   */\n      0x00\n        /* \"#utility.yul\":18662:18663   */\n      0x02\n        /* \"#utility.yul\":18656:18660   */\n      dup3\n        /* \"#utility.yul\":18652:18664   */\n      div\n        /* \"#utility.yul\":18642:18664   */\n      swap1\n      pop\n        /* \"#utility.yul\":18709:18710   */\n      0x01\n        /* \"#utility.yul\":18703:18707   */\n      dup3\n        /* \"#utility.yul\":18699:18711   */\n      and\n        /* \"#utility.yul\":18730:18748   */\n      dup1\n        /* \"#utility.yul\":18720:18801   */\n      tag_583\n      jumpi\n        /* \"#utility.yul\":18786:18790   */\n      0x7f\n        /* \"#utility.yul\":18778:18784   */\n      dup3\n        /* \"#utility.yul\":18774:18791   */\n      and\n        /* \"#utility.yul\":18764:18791   */\n      swap2\n      pop\n        /* \"#utility.yul\":18720:18801   */\n    tag_583:\n        /* \"#utility.yul\":18848:18850   */\n      0x20\n        /* \"#utility.yul\":18840:18846   */\n      dup3\n        /* \"#utility.yul\":18837:18851   */\n      lt\n        /* \"#utility.yul\":18817:18835   */\n      dup2\n        /* \"#utility.yul\":18814:18852   */\n      eq\n        /* \"#utility.yul\":18811:18895   */\n      iszero\n      tag_584\n      jumpi\n        /* \"#utility.yul\":18867:18885   */\n      tag_585\n      tag_392\n      jump\t// in\n    tag_585:\n        /* \"#utility.yul\":18811:18895   */\n    tag_584:\n        /* \"#utility.yul\":18632:18901   */\n      pop\n        /* \"#utility.yul\":18581:18901   */\n      swap2\n      swap1\n      pop\n      jump\t// out\n        /* \"#utility.yul\":18907:19055   */\n    tag_393:\n        /* \"#utility.yul\":19009:19020   */\n      0x00\n        /* \"#utility.yul\":19046:19049   */\n      dup2\n        /* \"#utility.yul\":19031:19049   */\n      swap1\n      pop\n        /* \"#utility.yul\":18907:19055   */\n      swap3\n      swap2\n      pop\n      pop\n      jump\t// out\n        /* \"#utility.yul\":19061:19438   */\n    tag_394:\n        /* \"#utility.yul\":19167:19170   */\n      0x00\n        /* \"#utility.yul\":19195:19234   */\n      tag_588\n        /* \"#utility.yul\":19228:19233   */\n      dup3\n        /* \"#utility.yul\":19195:19234   */\n      tag_372\n      jump\t// in\n    tag_588:\n        /* \"#utility.yul\":19250:19339   */\n      tag_589\n        /* \"#utility.yul\":19332:19338   */\n      dup2\n        /* \"#utility.yul\":19327:19330   */\n      dup6\n        /* \"#utility.yul\":19250:19339   */\n      tag_393\n      jump\t// in\n    tag_589:\n        /* \"#utility.yul\":19243:19339   */\n      swap4\n      pop\n        /* \"#utility.yul\":19348:19400   */\n      tag_590\n        /* \"#utility.yul\":19393:19399   */\n      dup2\n        /* \"#utility.yul\":19388:19391   */\n      dup6\n        /* \"#utility.yul\":19381:19385   */\n      0x20\n        /* \"#utility.yul\":19374:19379   */\n      dup7\n        /* \"#utility.yul\":19370:19386   */\n      add\n        /* \"#utility.yul\":19348:19400   */\n      tag_374\n      jump\t// in\n    tag_590:\n        /* \"#utility.yul\":19425:19431   */\n      dup1\n        /* \"#utility.yul\":19420:19423   */\n      dup5\n        /* \"#utility.yul\":19416:19432   */\n      add\n        /* \"#utility.yul\":19409:19432   */\n      swap2\n      pop\n        /* \"#utility.yul\":19171:19438   */\n      pop\n        /* \"#utility.yul\":19061:19438   */\n      swap3\n      swap2\n      pop\n      pop\n      jump\t// out\n        /* \"#utility.yul\":19444:19719   */\n    tag_205:\n        /* \"#utility.yul\":19576:19579   */\n      0x00\n        /* \"#utility.yul\":19598:19693   */\n      tag_592\n        /* \"#utility.yul\":19689:19692   */\n      dup3\n        /* \"#utility.yul\":19680:19686   */\n      dup5\n        /* \"#utility.yul\":19598:19693   */\n      tag_394\n      jump\t// in\n    tag_592:\n        /* \"#utility.yul\":19591:19693   */\n      swap2\n      pop\n        /* \"#utility.yul\":19710:19713   */\n      dup2\n        /* \"#utility.yul\":19703:19713   */\n      swap1\n      pop\n        /* \"#utility.yul\":19444:19719   */\n      swap3\n      swap2\n      pop\n      pop\n      jump\t// out\n        /* \"#utility.yul\":19725:19945   */\n    tag_395:\n        /* \"#utility.yul\":19865:19899   */\n      0x566f7573206176657a2064656a612066696e6920636574746520456e69676d65\n        /* \"#utility.yul\":19861:19862   */\n      0x00\n        /* \"#utility.yul\":19853:19859   */\n      dup3\n        /* \"#utility.yul\":19849:19863   */\n      add\n        /* \"#utility.yul\":19842:19900   */\n      mstore\n        /* \"#utility.yul\":19934:19937   */\n      0x2e00000000000000000000000000000000000000000000000000000000000000\n        /* \"#utility.yul\":19929:19931   */\n      0x20\n        /* \"#utility.yul\":19921:19927   */\n      dup3\n        /* \"#utility.yul\":19917:19932   */\n      add\n        /* \"#utility.yul\":19910:19938   */\n      mstore\n        /* \"#utility.yul\":19725:19945   */\n      pop\n      jump\t// out\n        /* \"#utility.yul\":19951:20317   */\n    tag_396:\n        /* \"#utility.yul\":20093:20096   */\n      0x00\n        /* \"#utility.yul\":20114:20181   */\n      tag_595\n        /* \"#utility.yul\":20178:20180   */\n      0x21\n        /* \"#utility.yul\":20173:20176   */\n      dup4\n        /* \"#utility.yul\":20114:20181   */\n      tag_373\n      jump\t// in\n    tag_595:\n        /* \"#utility.yul\":20107:20181   */\n      swap2\n      pop\n        /* \"#utility.yul\":20190:20283   */\n      tag_596\n        /* \"#utility.yul\":20279:20282   */\n      dup3\n        /* \"#utility.yul\":20190:20283   */\n      tag_395\n      jump\t// in\n    tag_596:\n        /* \"#utility.yul\":20308:20310   */\n      0x40\n        /* \"#utility.yul\":20303:20306   */\n      dup3\n        /* \"#utility.yul\":20299:20311   */\n      add\n        /* \"#utility.yul\":20292:20311   */\n      swap1\n      pop\n        /* \"#utility.yul\":19951:20317   */\n      swap2\n      swap1\n      pop\n      jump\t// out\n        /* \"#utility.yul\":20323:20742   */\n    tag_209:\n        /* \"#utility.yul\":20489:20493   */\n      0x00\n        /* \"#utility.yul\":20527:20529   */\n      0x20\n        /* \"#utility.yul\":20516:20525   */\n      dup3\n        /* \"#utility.yul\":20512:20530   */\n      add\n        /* \"#utility.yul\":20504:20530   */\n      swap1\n      pop\n        /* \"#utility.yul\":20576:20585   */\n      dup2\n        /* \"#utility.yul\":20570:20574   */\n      dup2\n        /* \"#utility.yul\":20566:20586   */\n      sub\n        /* \"#utility.yul\":20562:20563   */\n      0x00\n        /* \"#utility.yul\":20551:20560   */\n      dup4\n        /* \"#utility.yul\":20547:20564   */\n      add\n        /* \"#utility.yul\":20540:20587   */\n      mstore\n        /* \"#utility.yul\":20604:20735   */\n      tag_598\n        /* \"#utility.yul\":20730:20734   */\n      dup2\n        /* \"#utility.yul\":20604:20735   */\n      tag_396\n      jump\t// in\n    tag_598:\n        /* \"#utility.yul\":20596:20735   */\n      swap1\n      pop\n        /* \"#utility.yul\":20323:20742   */\n      swap2\n      swap1\n      pop\n      jump\t// out\n        /* \"#utility.yul\":20748:20971   */\n    tag_397:\n        /* \"#utility.yul\":20888:20922   */\n      0x566f7573206176657a2064656a61207061796520706f75722063657474652051\n        /* \"#utility.yul\":20884:20885   */\n      0x00\n        /* \"#utility.yul\":20876:20882   */\n      dup3\n        /* \"#utility.yul\":20872:20886   */\n      add\n        /* \"#utility.yul\":20865:20923   */\n      mstore\n        /* \"#utility.yul\":20957:20963   */\n      0x7565746500000000000000000000000000000000000000000000000000000000\n        /* \"#utility.yul\":20952:20954   */\n      0x20\n        /* \"#utility.yul\":20944:20950   */\n      dup3\n        /* \"#utility.yul\":20940:20955   */\n      add\n        /* \"#utility.yul\":20933:20964   */\n      mstore\n        /* \"#utility.yul\":20748:20971   */\n      pop\n      jump\t// out\n        /* \"#utility.yul\":20977:21343   */\n    tag_398:\n        /* \"#utility.yul\":21119:21122   */\n      0x00\n        /* \"#utility.yul\":21140:21207   */\n      tag_601\n        /* \"#utility.yul\":21204:21206   */\n      0x24\n        /* \"#utility.yul\":21199:21202   */\n      dup4\n        /* \"#utility.yul\":21140:21207   */\n      tag_373\n      jump\t// in\n    tag_601:\n        /* \"#utility.yul\":21133:21207   */\n      swap2\n      pop\n        /* \"#utility.yul\":21216:21309   */\n      tag_602\n        /* \"#utility.yul\":21305:21308   */\n      dup3\n        /* \"#utility.yul\":21216:21309   */\n      tag_397\n      jump\t// in\n    tag_602:\n        /* \"#utility.yul\":21334:21336   */\n      0x40\n        /* \"#utility.yul\":21329:21332   */\n      dup3\n        /* \"#utility.yul\":21325:21337   */\n      add\n        /* \"#utility.yul\":21318:21337   */\n      swap1\n      pop\n        /* \"#utility.yul\":20977:21343   */\n      swap2\n      swap1\n      pop\n      jump\t// out\n        /* \"#utility.yul\":21349:21768   */\n    tag_307:\n        /* \"#utility.yul\":21515:21519   */\n      0x00\n        /* \"#utility.yul\":21553:21555   */\n      0x20\n        /* \"#utility.yul\":21542:21551   */\n      dup3\n        /* \"#utility.yul\":21538:21556   */\n      add\n        /* \"#utility.yul\":21530:21556   */\n      swap1\n      pop\n        /* \"#utility.yul\":21602:21611   */\n      dup2\n        /* \"#utility.yul\":21596:21600   */\n      dup2\n        /* \"#utility.yul\":21592:21612   */\n      sub\n        /* \"#utility.yul\":21588:21589   */\n      0x00\n        /* \"#utility.yul\":21577:21586   */\n      dup4\n        /* \"#utility.yul\":21573:21590   */\n      add\n        /* \"#utility.yul\":21566:21613   */\n      mstore\n        /* \"#utility.yul\":21630:21761   */\n      tag_604\n        /* \"#utility.yul\":21756:21760   */\n      dup2\n        /* \"#utility.yul\":21630:21761   */\n      tag_398\n      jump\t// in\n    tag_604:\n        /* \"#utility.yul\":21622:21761   */\n      swap1\n      pop\n        /* \"#utility.yul\":21349:21768   */\n      swap2\n      swap1\n      pop\n      jump\t// out\n\n    auxdata: 0xa2646970667358221220bd8800550cb37d6c6131377eaf136bdbc83f3f9b6114c752cf257358c23863f364736f6c634300080b0033\n}\n",
    "bytecode": {
      "linkReferences": {},
      "object": "60806040523480156200001157600080fd5b5060405162002bee38038062002bee8339818101604052810190620000379190620003c2565b82600160006101000a81548173ffffffffffffffffffffffffffffffffffffffff021916908373ffffffffffffffffffffffffffffffffffffffff160217905550846002908051906020019062000090929190620000d5565b50836003819055508160049080519060200190620000b0929190620000d5565b508060059080519060200190620000c9929190620000d5565b5050505050506200050c565b828054620000e390620004d6565b90600052602060002090601f01602090048101928262000107576000855562000153565b82601f106200012257805160ff191683800117855562000153565b8280016001018555821562000153579182015b828111156200015257825182559160200191906001019062000135565b5b50905062000162919062000166565b5090565b5b808211156200018157600081600090555060010162000167565b5090565b6000604051905090565b600080fd5b600080fd5b600080fd5b600080fd5b6000601f19601f8301169050919050565b7f4e487b7100000000000000000000000000000000000000000000000000000000600052604160045260246000fd5b620001ee82620001a3565b810181811067ffffffffffffffff8211171562000210576200020f620001b4565b5b80604052505050565b60006200022562000185565b9050620002338282620001e3565b919050565b600067ffffffffffffffff821115620002565762000255620001b4565b5b6200026182620001a3565b9050602081019050919050565b60005b838110156200028e57808201518184015260208101905062000271565b838111156200029e576000848401525b50505050565b6000620002bb620002b58462000238565b62000219565b905082815260208101848484011115620002da57620002d96200019e565b5b620002e78482856200026e565b509392505050565b600082601f83011262000307576200030662000199565b5b815162000319848260208601620002a4565b91505092915050565b6000819050919050565b620003378162000322565b81146200034357600080fd5b50565b60008151905062000357816200032c565b92915050565b600073ffffffffffffffffffffffffffffffffffffffff82169050919050565b60006200038a826200035d565b9050919050565b6200039c816200037d565b8114620003a857600080fd5b50565b600081519050620003bc8162000391565b92915050565b600080600080600060a08688031215620003e157620003e06200018f565b5b600086015167ffffffffffffffff81111562000402576200040162000194565b5b6200041088828901620002ef565b9550506020620004238882890162000346565b94505060406200043688828901620003ab565b935050606086015167ffffffffffffffff8111156200045a576200045962000194565b5b6200046888828901620002ef565b925050608086015167ffffffffffffffff8111156200048c576200048b62000194565b5b6200049a88828901620002ef565b9150509295509295909350565b7f4e487b7100000000000000000000000000000000000000000000000000000000600052602260045260246000fd5b60006002820490506001821680620004ef57607f821691505b60208210811415620005065762000505620004a7565b5b50919050565b6126d2806200051c6000396000f3fe6080604052600436106101665760003560e01c8063819856a3116100d1578063d99678dd1161008a578063f007bf3711610064578063f007bf371461053e578063f106153614610569578063f294cf3814610592578063f37fd5e9146105bd57610166565b8063d99678dd146104ab578063e2eb41ff146104d6578063e95a57751461051357610166565b8063819856a3146103b85780638ec8901d146103e35780639164fa5d14610420578063a3f67d6d1461044b578063b8a8836914610476578063c44dd2f11461048057610166565b8063341c4f8e11610123578063341c4f8e1461029757806340e3a1d2146102c0578063481c6a75146102f25780635b30b84d1461031d5780635db91dc114610348578063627018ee1461037157610166565b806306e4b16e1461016b57806309248d24146101875780631c18c444146101c45780631f232f301461020457806324dd7d0e14610241578063303040931461026c575b600080fd5b61018560048036038101906101809190611b95565b6105e6565b005b34801561019357600080fd5b506101ae60048036038101906101a99190611d08565b61075d565b6040516101bb9190611dd9565b60405180910390f35b3480156101d057600080fd5b506101eb60048036038101906101e69190611e31565b610862565b6040516101fb9493929190611e88565b60405180910390f35b34801561021057600080fd5b5061022b60048036038101906102269190611edb565b610a32565b6040516102389190611f37565b60405180910390f35b34801561024d57600080fd5b50610256610c78565b6040516102639190611dd9565b60405180910390f35b34801561027857600080fd5b50610281610d0a565b60405161028e9190611dd9565b60405180910390f35b3480156102a357600080fd5b506102be60048036038101906102b99190611f52565b610d98565b005b3480156102cc57600080fd5b506102d5610e71565b6040516102e9989796959493929190611fb4565b60405180910390f35b3480156102fe57600080fd5b5061030761107e565b6040516103149190612047565b60405180910390f35b34801561032957600080fd5b506103326110a4565b60405161033f9190612062565b60405180910390f35b34801561035457600080fd5b5061036f600480360381019061036a9190611edb565b6110ac565b005b34801561037d57600080fd5b5061039860048036038101906103939190611e31565b611144565b6040516103af9b9a9998979695949392919061207d565b60405180910390f35b3480156103c457600080fd5b506103cd611463565b6040516103da9190611f37565b60405180910390f35b3480156103ef57600080fd5b5061040a60048036038101906104059190611e31565b611476565b6040516104179190612257565b60405180910390f35b34801561042c57600080fd5b50610435611574565b6040516104429190612062565b60405180910390f35b34801561045757600080fd5b5061046061157e565b60405161046d9190612062565b60405180910390f35b61047e611584565b005b34801561048c57600080fd5b50610495611697565b6040516104a29190611dd9565b60405180910390f35b3480156104b757600080fd5b506104c0611725565b6040516104cd9190612062565b60405180910390f35b3480156104e257600080fd5b506104fd60048036038101906104f89190611b95565b611731565b60405161050a9190611f37565b60405180910390f35b34801561051f57600080fd5b50610528611751565b6040516105359190612062565b60405180910390f35b34801561054a57600080fd5b50610553611757565b6040516105609190612062565b60405180910390f35b34801561057557600080fd5b50610590600480360381019061058b9190612279565b61175d565b005b34801561059e57600080fd5b506105a76118e9565b6040516105b49190611dd9565b60405180910390f35b3480156105c957600080fd5b506105e460048036038101906105df91906123ae565b611977565b005b60011515600660003373ffffffffffffffffffffffffffffffffffffffff1673ffffffffffffffffffffffffffffffffffffffff16815260200190815260200160002060009054906101000a900460ff1615151461064357600080fd5b60008080805490501161065557600080fd5b5b6000805490508110156106ef57600081815481106106775761067661241d565b5b90600052602060002090600e0201600a0160003373ffffffffffffffffffffffffffffffffffffffff1673ffffffffffffffffffffffffffffffffffffffff16815260200190815260200160002060009054906101000a900460ff166106dc57600080fd5b80806106e79061247b565b915050610656565b8173ffffffffffffffffffffffffffffffffffffffff166108fc479081150290604051600060405180830381858888f19350505050158015610735573d6000803e3d6000fd5b506001600960006101000a81548160ff02191690831515021790555060006003819055505050565b6060600160009054906101000a900473ffffffffffffffffffffffffffffffffffffffff1673ffffffffffffffffffffffffffffffffffffffff163373ffffffffffffffffffffffffffffffffffffffff16146107b957600080fd5b81600290805190602001906107cf929190611a80565b50600280546107dd906124f3565b80601f0160208091040260200160405190810160405280929190818152602001828054610809906124f3565b80156108565780601f1061082b57610100808354040283529160200191610856565b820191906000526020600020905b81548152906001019060200180831161083957829003601f168201915b50505050509050919050565b6060806000806000858154811061087c5761087b61241d565b5b90600052602060002090600e0201600001600086815481106108a1576108a061241d565b5b90600052602060002090600e0201600101600087815481106108c6576108c561241d565b5b90600052602060002090600e020160080154600088815481106108ec576108eb61241d565b5b90600052602060002090600e020160090160009054906101000a900460ff16838054610917906124f3565b80601f0160208091040260200160405190810160405280929190818152602001828054610943906124f3565b80156109905780601f1061096557610100808354040283529160200191610990565b820191906000526020600020905b81548152906001019060200180831161097357829003601f168201915b505050505093508280546109a3906124f3565b80601f01602080910402602001604051908101604052809291908181526020018280546109cf906124f3565b8015610a1c5780601f106109f157610100808354040283529160200191610a1c565b820191906000526020600020905b8154815290600101906020018083116109ff57829003601f168201915b5050505050925093509350935093509193509193565b600060011515600660003373ffffffffffffffffffffffffffffffffffffffff1673ffffffffffffffffffffffffffffffffffffffff16815260200190815260200160002060009054906101000a900460ff16151514610a9157600080fd5b6000808481548110610aa657610aa561241d565b5b90600052602060002090600e0201905080600b0183604051610ac89190612561565b908152602001604051809103902060009054906101000a900460ff1615610bfc576000151581600a0160003373ffffffffffffffffffffffffffffffffffffffff1673ffffffffffffffffffffffffffffffffffffffff16815260200190815260200160002060009054906101000a900460ff16151514610b7e576040517f08c379a0000000000000000000000000000000000000000000000000000000008152600401610b75906125ea565b60405180910390fd5b600181600a0160003373ffffffffffffffffffffffffffffffffffffffff1673ffffffffffffffffffffffffffffffffffffffff16815260200190815260200160002060006101000a81548160ff02191690831515021790555080600d016000815480929190610bed9061247b565b91905055506001915050610c72565b80600c0183908060018154018082558091505060019003906000526020600020016000909190919091509080519060200190610c39929190611a80565b50806008016000815480929190610c4f9061247b565b919050555060086000815480929190610c679061247b565b919050555060009150505b92915050565b606060028054610c87906124f3565b80601f0160208091040260200160405190810160405280929190818152602001828054610cb3906124f3565b8015610d005780601f10610cd557610100808354040283529160200191610d00565b820191906000526020600020905b815481529060010190602001808311610ce357829003601f168201915b5050505050905090565b60048054610d17906124f3565b80601f0160208091040260200160405190810160405280929190818152602001828054610d43906124f3565b8015610d905780601f10610d6557610100808354040283529160200191610d90565b820191906000526020600020905b815481529060010190602001808311610d7357829003601f168201915b505050505081565b600160009054906101000a900473ffffffffffffffffffffffffffffffffffffffff1673ffffffffffffffffffffffffffffffffffffffff163373ffffffffffffffffffffffffffffffffffffffff1614610df257600080fd5b6000808481548110610e0757610e0661241d565b5b90600052602060002090600e0201905060018310158015610e29575060038311155b610e3257600080fd5b6001831415610e4957818160030181905550610e6b565b6002831415610e6057818160050181905550610e6a565b8181600701819055505b5b50505050565b60006060806060600080600080600160009054906101000a900473ffffffffffffffffffffffffffffffffffffffff16600260046005600354600754600854600960009054906101000a900460ff16868054610ecc906124f3565b80601f0160208091040260200160405190810160405280929190818152602001828054610ef8906124f3565b8015610f455780601f10610f1a57610100808354040283529160200191610f45565b820191906000526020600020905b815481529060010190602001808311610f2857829003601f168201915b50505050509650858054610f58906124f3565b80601f0160208091040260200160405190810160405280929190818152602001828054610f84906124f3565b8015610fd15780601f10610fa657610100808354040283529160200191610fd1565b820191906000526020600020905b815481529060010190602001808311610fb457829003601f168201915b50505050509550848054610fe4906124f3565b80601f0160208091040260200160405190810160405280929190818152602001828054611010906124f3565b801561105d5780601f106110325761010080835404028352916020019161105d565b820191906000526020600020905b81548152906001019060200180831161104057829003601f168201915b50505050509450975097509750975097509750975097509091929394959697565b600160009054906101000a900473ffffffffffffffffffffffffffffffffffffffff1681565b600047905090565b600160009054906101000a900473ffffffffffffffffffffffffffffffffffffffff1673ffffffffffffffffffffffffffffffffffffffff163373ffffffffffffffffffffffffffffffffffffffff161461110657600080fd5b806000838154811061111b5761111a61241d565b5b90600052602060002090600e0201600001908051906020019061113f929190611a80565b505050565b6000818154811061115457600080fd5b90600052602060002090600e0201600091509050806000018054611177906124f3565b80601f01602080910402602001604051908101604052809291908181526020018280546111a3906124f3565b80156111f05780601f106111c5576101008083540402835291602001916111f0565b820191906000526020600020905b8154815290600101906020018083116111d357829003601f168201915b505050505090806001018054611205906124f3565b80601f0160208091040260200160405190810160405280929190818152602001828054611231906124f3565b801561127e5780601f106112535761010080835404028352916020019161127e565b820191906000526020600020905b81548152906001019060200180831161126157829003601f168201915b505050505090806002018054611293906124f3565b80601f01602080910402602001604051908101604052809291908181526020018280546112bf906124f3565b801561130c5780601f106112e15761010080835404028352916020019161130c565b820191906000526020600020905b8154815290600101906020018083116112ef57829003601f168201915b505050505090806003015490806004018054611327906124f3565b80601f0160208091040260200160405190810160405280929190818152602001828054611353906124f3565b80156113a05780601f10611375576101008083540402835291602001916113a0565b820191906000526020600020905b81548152906001019060200180831161138357829003601f168201915b5050505050908060050154908060060180546113bb906124f3565b80601f01602080910402602001604051908101604052809291908181526020018280546113e7906124f3565b80156114345780601f1061140957610100808354040283529160200191611434565b820191906000526020600020905b81548152906001019060200180831161141757829003601f168201915b5050505050908060070154908060080154908060090160009054906101000a900460ff169080600d015490508b565b600960009054906101000a900460ff1681565b60606000828154811061148c5761148b61241d565b5b90600052602060002090600e0201600c01805480602002602001604051908101604052809291908181526020016000905b828210156115695783829060005260206000200180546114dc906124f3565b80601f0160208091040260200160405190810160405280929190818152602001828054611508906124f3565b80156115555780601f1061152a57610100808354040283529160200191611555565b820191906000526020600020905b81548152906001019060200180831161153857829003601f168201915b5050505050815260200190600101906114bd565b505050509050919050565b6000600354905090565b60075481565b600354341461159257600080fd5b60001515600660003373ffffffffffffffffffffffffffffffffffffffff1673ffffffffffffffffffffffffffffffffffffffff16815260200190815260200160002060009054906101000a900460ff16151514611625576040517f08c379a000000000000000000000000000000000000000000000000000000000815260040161161c9061267c565b60405180910390fd5b6001600660003373ffffffffffffffffffffffffffffffffffffffff1673ffffffffffffffffffffffffffffffffffffffff16815260200190815260200160002060006101000a81548160ff021916908315150217905550600760008154809291906116909061247b565b9190505550565b600580546116a4906124f3565b80601f01602080910402602001604051908101604052809291908181526020018280546116d0906124f3565b801561171d5780601f106116f25761010080835404028352916020019161171d565b820191906000526020600020905b81548152906001019060200180831161170057829003601f168201915b505050505081565b60008080549050905090565b60066020528060005260406000206000915054906101000a900460ff1681565b60035481565b60085481565b600160009054906101000a900473ffffffffffffffffffffffffffffffffffffffff1673ffffffffffffffffffffffffffffffffffffffff163373ffffffffffffffffffffffffffffffffffffffff16146117b757600080fd5b6000806001816001815401808255809150500390600052602060002090600e02019050868160000190805190602001906117f2929190611a80565b508581600101908051906020019061180b929190611a80565b5083816002019080519060200190611824929190611a80565b506064816003018190555082816004019080519060200190611847929190611a80565b5060c881600501819055508181600601908051906020019061186a929190611a80565b5061012c81600701819055506000816008018190555060008160090160006101000a81548160ff021916908315150217905550600081600d0181905550600181600b01866040516118bb9190612561565b908152602001604051809103902060006101000a81548160ff02191690831515021790555050505050505050565b600280546118f6906124f3565b80601f0160208091040260200160405190810160405280929190818152602001828054611922906124f3565b801561196f5780601f106119445761010080835404028352916020019161196f565b820191906000526020600020905b81548152906001019060200180831161195257829003601f168201915b505050505081565b600160009054906101000a900473ffffffffffffffffffffffffffffffffffffffff1673ffffffffffffffffffffffffffffffffffffffff163373ffffffffffffffffffffffffffffffffffffffff16146119d157600080fd5b60008084815481106119e6576119e561241d565b5b90600052602060002090600e0201905060018310158015611a08575060038311155b611a1157600080fd5b6001831415611a385781816002019080519060200190611a32929190611a80565b50611a7a565b6002831415611a5f5781816004019080519060200190611a59929190611a80565b50611a79565b81816006019080519060200190611a77929190611a80565b505b5b50505050565b828054611a8c906124f3565b90600052602060002090601f016020900481019282611aae5760008555611af5565b82601f10611ac757805160ff1916838001178555611af5565b82800160010185558215611af5579182015b82811115611af4578251825591602001919060010190611ad9565b5b509050611b029190611b06565b5090565b5b80821115611b1f576000816000905550600101611b07565b5090565b6000604051905090565b600080fd5b600080fd5b600073ffffffffffffffffffffffffffffffffffffffff82169050919050565b6000611b6282611b37565b9050919050565b611b7281611b57565b8114611b7d57600080fd5b50565b600081359050611b8f81611b69565b92915050565b600060208284031215611bab57611baa611b2d565b5b6000611bb984828501611b80565b91505092915050565b600080fd5b600080fd5b6000601f19601f8301169050919050565b7f4e487b7100000000000000000000000000000000000000000000000000000000600052604160045260246000fd5b611c1582611bcc565b810181811067ffffffffffffffff82111715611c3457611c33611bdd565b5b80604052505050565b6000611c47611b23565b9050611c538282611c0c565b919050565b600067ffffffffffffffff821115611c7357611c72611bdd565b5b611c7c82611bcc565b9050602081019050919050565b82818337600083830152505050565b6000611cab611ca684611c58565b611c3d565b905082815260208101848484011115611cc757611cc6611bc7565b5b611cd2848285611c89565b509392505050565b600082601f830112611cef57611cee611bc2565b5b8135611cff848260208601611c98565b91505092915050565b600060208284031215611d1e57611d1d611b2d565b5b600082013567ffffffffffffffff811115611d3c57611d3b611b32565b5b611d4884828501611cda565b91505092915050565b600081519050919050565b600082825260208201905092915050565b60005b83811015611d8b578082015181840152602081019050611d70565b83811115611d9a576000848401525b50505050565b6000611dab82611d51565b611db58185611d5c565b9350611dc5818560208601611d6d565b611dce81611bcc565b840191505092915050565b60006020820190508181036000830152611df38184611da0565b905092915050565b6000819050919050565b611e0e81611dfb565b8114611e1957600080fd5b50565b600081359050611e2b81611e05565b92915050565b600060208284031215611e4757611e46611b2d565b5b6000611e5584828501611e1c565b91505092915050565b611e6781611dfb565b82525050565b60008115159050919050565b611e8281611e6d565b82525050565b60006080820190508181036000830152611ea28187611da0565b90508181036020830152611eb68186611da0565b9050611ec56040830185611e5e565b611ed26060830184611e79565b95945050505050565b60008060408385031215611ef257611ef1611b2d565b5b6000611f0085828601611e1c565b925050602083013567ffffffffffffffff811115611f2157611f20611b32565b5b611f2d85828601611cda565b9150509250929050565b6000602082019050611f4c6000830184611e79565b92915050565b600080600060608486031215611f6b57611f6a611b2d565b5b6000611f7986828701611e1c565b9350506020611f8a86828701611e1c565b9250506040611f9b86828701611e1c565b9150509250925092565b611fae81611b57565b82525050565b600061010082019050611fca600083018b611fa5565b8181036020830152611fdc818a611da0565b90508181036040830152611ff08189611da0565b905081810360608301526120048188611da0565b90506120136080830187611e5e565b61202060a0830186611e5e565b61202d60c0830185611e5e565b61203a60e0830184611e79565b9998505050505050505050565b600060208201905061205c6000830184611fa5565b92915050565b60006020820190506120776000830184611e5e565b92915050565b6000610160820190508181036000830152612098818e611da0565b905081810360208301526120ac818d611da0565b905081810360408301526120c0818c611da0565b90506120cf606083018b611e5e565b81810360808301526120e1818a611da0565b90506120f060a0830189611e5e565b81810360c08301526121028188611da0565b905061211160e0830187611e5e565b61211f610100830186611e5e565b61212d610120830185611e79565b61213b610140830184611e5e565b9c9b505050505050505050505050565b600081519050919050565b600082825260208201905092915050565b6000819050602082019050919050565b600082825260208201905092915050565b600061219382611d51565b61219d8185612177565b93506121ad818560208601611d6d565b6121b681611bcc565b840191505092915050565b60006121cd8383612188565b905092915050565b6000602082019050919050565b60006121ed8261214b565b6121f78185612156565b93508360208202850161220985612167565b8060005b85811015612245578484038952815161222685826121c1565b9450612231836121d5565b925060208a0199505060018101905061220d565b50829750879550505050505092915050565b6000602082019050818103600083015261227181846121e2565b905092915050565b60008060008060008060c0878903121561229657612295611b2d565b5b600087013567ffffffffffffffff8111156122b4576122b3611b32565b5b6122c089828a01611cda565b965050602087013567ffffffffffffffff8111156122e1576122e0611b32565b5b6122ed89828a01611cda565b955050604087013567ffffffffffffffff81111561230e5761230d611b32565b5b61231a89828a01611cda565b945050606087013567ffffffffffffffff81111561233b5761233a611b32565b5b61234789828a01611cda565b935050608087013567ffffffffffffffff81111561236857612367611b32565b5b61237489828a01611cda565b92505060a087013567ffffffffffffffff81111561239557612394611b32565b5b6123a189828a01611cda565b9150509295509295509295565b6000806000606084860312156123c7576123c6611b2d565b5b60006123d586828701611e1c565b93505060206123e686828701611e1c565b925050604084013567ffffffffffffffff81111561240757612406611b32565b5b61241386828701611cda565b9150509250925092565b7f4e487b7100000000000000000000000000000000000000000000000000000000600052603260045260246000fd5b7f4e487b7100000000000000000000000000000000000000000000000000000000600052601160045260246000fd5b600061248682611dfb565b91507fffffffffffffffffffffffffffffffffffffffffffffffffffffffffffffffff8214156124b9576124b861244c565b5b600182019050919050565b7f4e487b7100000000000000000000000000000000000000000000000000000000600052602260045260246000fd5b6000600282049050600182168061250b57607f821691505b6020821081141561251f5761251e6124c4565b5b50919050565b600081905092915050565b600061253b82611d51565b6125458185612525565b9350612555818560208601611d6d565b80840191505092915050565b600061256d8284612530565b915081905092915050565b7f566f7573206176657a2064656a612066696e6920636574746520456e69676d6560008201527f2e00000000000000000000000000000000000000000000000000000000000000602082015250565b60006125d4602183611d5c565b91506125df82612578565b604082019050919050565b60006020820190508181036000830152612603816125c7565b9050919050565b7f566f7573206176657a2064656a61207061796520706f7572206365747465205160008201527f7565746500000000000000000000000000000000000000000000000000000000602082015250565b6000612666602483611d5c565b91506126718261260a565b604082019050919050565b6000602082019050818103600083015261269581612659565b905091905056fea2646970667358221220bd8800550cb37d6c6131377eaf136bdbc83f3f9b6114c752cf257358c23863f364736f6c634300080b0033",
      "opcodes": "PUSH1 0x80 PUSH1 0x40 MSTORE CALLVALUE DUP1 ISZERO PUSH3 0x11 JUMPI PUSH1 0x0 DUP1 REVERT JUMPDEST POP PUSH1 0x40 MLOAD PUSH3 0x2BEE CODESIZE SUB DUP1 PUSH3 0x2BEE DUP4 CODECOPY DUP2 DUP2 ADD PUSH1 0x40 MSTORE DUP2 ADD SWAP1 PUSH3 0x37 SWAP2 SWAP1 PUSH3 0x3C2 JUMP JUMPDEST DUP3 PUSH1 0x1 PUSH1 0x0 PUSH2 0x100 EXP DUP2 SLOAD DUP2 PUSH20 0xFFFFFFFFFFFFFFFFFFFFFFFFFFFFFFFFFFFFFFFF MUL NOT AND SWAP1 DUP4 PUSH20 0xFFFFFFFFFFFFFFFFFFFFFFFFFFFFFFFFFFFFFFFF AND MUL OR SWAP1 SSTORE POP DUP5 PUSH1 0x2 SWAP1 DUP1 MLOAD SWAP1 PUSH1 0x20 ADD SWAP1 PUSH3 0x90 SWAP3 SWAP2 SWAP1 PUSH3 0xD5 JUMP JUMPDEST POP DUP4 PUSH1 0x3 DUP2 SWAP1 SSTORE POP DUP2 PUSH1 0x4 SWAP1 DUP1 MLOAD SWAP1 PUSH1 0x20 ADD SWAP1 PUSH3 0xB0 SWAP3 SWAP2 SWAP1 PUSH3 0xD5 JUMP JUMPDEST POP DUP1 PUSH1 0x5 SWAP1 DUP1 MLOAD SWAP1 PUSH1 0x20 ADD SWAP1 PUSH3 0xC9 SWAP3 SWAP2 SWAP1 PUSH3 0xD5 JUMP JUMPDEST POP POP POP POP POP POP PUSH3 0x50C JUMP JUMPDEST DUP3 DUP1 SLOAD PUSH3 0xE3 SWAP1 PUSH3 0x4D6 JUMP JUMPDEST SWAP1 PUSH1 0x0 MSTORE PUSH1 0x20 PUSH1 0x0 KECCAK256 SWAP1 PUSH1 0x1F ADD PUSH1 0x20 SWAP1 DIV DUP2 ADD SWAP3 DUP3 PUSH3 0x107 JUMPI PUSH1 0x0 DUP6 SSTORE PUSH3 0x153 JUMP JUMPDEST DUP3 PUSH1 0x1F LT PUSH3 0x122 JUMPI DUP1 MLOAD PUSH1 0xFF NOT AND DUP4 DUP1 ADD OR DUP6 SSTORE PUSH3 0x153 JUMP JUMPDEST DUP3 DUP1 ADD PUSH1 0x1 ADD DUP6 SSTORE DUP3 ISZERO PUSH3 0x153 JUMPI SWAP2 DUP3 ADD JUMPDEST DUP3 DUP2 GT ISZERO PUSH3 0x152 JUMPI DUP3 MLOAD DUP3 SSTORE SWAP2 PUSH1 0x20 ADD SWAP2 SWAP1 PUSH1 0x1 ADD SWAP1 PUSH3 0x135 JUMP JUMPDEST JUMPDEST POP SWAP1 POP PUSH3 0x162 SWAP2 SWAP1 PUSH3 0x166 JUMP JUMPDEST POP SWAP1 JUMP JUMPDEST JUMPDEST DUP1 DUP3 GT ISZERO PUSH3 0x181 JUMPI PUSH1 0x0 DUP2 PUSH1 0x0 SWAP1 SSTORE POP PUSH1 0x1 ADD PUSH3 0x167 JUMP JUMPDEST POP SWAP1 JUMP JUMPDEST PUSH1 0x0 PUSH1 0x40 MLOAD SWAP1 POP SWAP1 JUMP JUMPDEST PUSH1 0x0 DUP1 REVERT JUMPDEST PUSH1 0x0 DUP1 REVERT JUMPDEST PUSH1 0x0 DUP1 REVERT JUMPDEST PUSH1 0x0 DUP1 REVERT JUMPDEST PUSH1 0x0 PUSH1 0x1F NOT PUSH1 0x1F DUP4 ADD AND SWAP1 POP SWAP2 SWAP1 POP JUMP JUMPDEST PUSH32 0x4E487B7100000000000000000000000000000000000000000000000000000000 PUSH1 0x0 MSTORE PUSH1 0x41 PUSH1 0x4 MSTORE PUSH1 0x24 PUSH1 0x0 REVERT JUMPDEST PUSH3 0x1EE DUP3 PUSH3 0x1A3 JUMP JUMPDEST DUP2 ADD DUP2 DUP2 LT PUSH8 0xFFFFFFFFFFFFFFFF DUP3 GT OR ISZERO PUSH3 0x210 JUMPI PUSH3 0x20F PUSH3 0x1B4 JUMP JUMPDEST JUMPDEST DUP1 PUSH1 0x40 MSTORE POP POP POP JUMP JUMPDEST PUSH1 0x0 PUSH3 0x225 PUSH3 0x185 JUMP JUMPDEST SWAP1 POP PUSH3 0x233 DUP3 DUP3 PUSH3 0x1E3 JUMP JUMPDEST SWAP2 SWAP1 POP JUMP JUMPDEST PUSH1 0x0 PUSH8 0xFFFFFFFFFFFFFFFF DUP3 GT ISZERO PUSH3 0x256 JUMPI PUSH3 0x255 PUSH3 0x1B4 JUMP JUMPDEST JUMPDEST PUSH3 0x261 DUP3 PUSH3 0x1A3 JUMP JUMPDEST SWAP1 POP PUSH1 0x20 DUP2 ADD SWAP1 POP SWAP2 SWAP1 POP JUMP JUMPDEST PUSH1 0x0 JUMPDEST DUP4 DUP2 LT ISZERO PUSH3 0x28E JUMPI DUP1 DUP3 ADD MLOAD DUP2 DUP5 ADD MSTORE PUSH1 0x20 DUP2 ADD SWAP1 POP PUSH3 0x271 JUMP JUMPDEST DUP4 DUP2 GT ISZERO PUSH3 0x29E JUMPI PUSH1 0x0 DUP5 DUP5 ADD MSTORE JUMPDEST POP POP POP POP JUMP JUMPDEST PUSH1 0x0 PUSH3 0x2BB PUSH3 0x2B5 DUP5 PUSH3 0x238 JUMP JUMPDEST PUSH3 0x219 JUMP JUMPDEST SWAP1 POP DUP3 DUP2 MSTORE PUSH1 0x20 DUP2 ADD DUP5 DUP5 DUP5 ADD GT ISZERO PUSH3 0x2DA JUMPI PUSH3 0x2D9 PUSH3 0x19E JUMP JUMPDEST JUMPDEST PUSH3 0x2E7 DUP5 DUP3 DUP6 PUSH3 0x26E JUMP JUMPDEST POP SWAP4 SWAP3 POP POP POP JUMP JUMPDEST PUSH1 0x0 DUP3 PUSH1 0x1F DUP4 ADD SLT PUSH3 0x307 JUMPI PUSH3 0x306 PUSH3 0x199 JUMP JUMPDEST JUMPDEST DUP2 MLOAD PUSH3 0x319 DUP5 DUP3 PUSH1 0x20 DUP7 ADD PUSH3 0x2A4 JUMP JUMPDEST SWAP2 POP POP SWAP3 SWAP2 POP POP JUMP JUMPDEST PUSH1 0x0 DUP2 SWAP1 POP SWAP2 SWAP1 POP JUMP JUMPDEST PUSH3 0x337 DUP2 PUSH3 0x322 JUMP JUMPDEST DUP2 EQ PUSH3 0x343 JUMPI PUSH1 0x0 DUP1 REVERT JUMPDEST POP JUMP JUMPDEST PUSH1 0x0 DUP2 MLOAD SWAP1 POP PUSH3 0x357 DUP2 PUSH3 0x32C JUMP JUMPDEST SWAP3 SWAP2 POP POP JUMP JUMPDEST PUSH1 0x0 PUSH20 0xFFFFFFFFFFFFFFFFFFFFFFFFFFFFFFFFFFFFFFFF DUP3 AND SWAP1 POP SWAP2 SWAP1 POP JUMP JUMPDEST PUSH1 0x0 PUSH3 0x38A DUP3 PUSH3 0x35D JUMP JUMPDEST SWAP1 POP SWAP2 SWAP1 POP JUMP JUMPDEST PUSH3 0x39C DUP2 PUSH3 0x37D JUMP JUMPDEST DUP2 EQ PUSH3 0x3A8 JUMPI PUSH1 0x0 DUP1 REVERT JUMPDEST POP JUMP JUMPDEST PUSH1 0x0 DUP2 MLOAD SWAP1 POP PUSH3 0x3BC DUP2 PUSH3 0x391 JUMP JUMPDEST SWAP3 SWAP2 POP POP JUMP JUMPDEST PUSH1 0x0 DUP1 PUSH1 0x0 DUP1 PUSH1 0x0 PUSH1 0xA0 DUP7 DUP9 SUB SLT ISZERO PUSH3 0x3E1 JUMPI PUSH3 0x3E0 PUSH3 0x18F JUMP JUMPDEST JUMPDEST PUSH1 0x0 DUP7 ADD MLOAD PUSH8 0xFFFFFFFFFFFFFFFF DUP2 GT ISZERO PUSH3 0x402 JUMPI PUSH3 0x401 PUSH3 0x194 JUMP JUMPDEST JUMPDEST PUSH3 0x410 DUP9 DUP3 DUP10 ADD PUSH3 0x2EF JUMP JUMPDEST SWAP6 POP POP PUSH1 0x20 PUSH3 0x423 DUP9 DUP3 DUP10 ADD PUSH3 0x346 JUMP JUMPDEST SWAP5 POP POP PUSH1 0x40 PUSH3 0x436 DUP9 DUP3 DUP10 ADD PUSH3 0x3AB JUMP JUMPDEST SWAP4 POP POP PUSH1 0x60 DUP7 ADD MLOAD PUSH8 0xFFFFFFFFFFFFFFFF DUP2 GT ISZERO PUSH3 0x45A JUMPI PUSH3 0x459 PUSH3 0x194 JUMP JUMPDEST JUMPDEST PUSH3 0x468 DUP9 DUP3 DUP10 ADD PUSH3 0x2EF JUMP JUMPDEST SWAP3 POP POP PUSH1 0x80 DUP7 ADD MLOAD PUSH8 0xFFFFFFFFFFFFFFFF DUP2 GT ISZERO PUSH3 0x48C JUMPI PUSH3 0x48B PUSH3 0x194 JUMP JUMPDEST JUMPDEST PUSH3 0x49A DUP9 DUP3 DUP10 ADD PUSH3 0x2EF JUMP JUMPDEST SWAP2 POP POP SWAP3 SWAP6 POP SWAP3 SWAP6 SWAP1 SWAP4 POP JUMP JUMPDEST PUSH32 0x4E487B7100000000000000000000000000000000000000000000000000000000 PUSH1 0x0 MSTORE PUSH1 0x22 PUSH1 0x4 MSTORE PUSH1 0x24 PUSH1 0x0 REVERT JUMPDEST PUSH1 0x0 PUSH1 0x2 DUP3 DIV SWAP1 POP PUSH1 0x1 DUP3 AND DUP1 PUSH3 0x4EF JUMPI PUSH1 0x7F DUP3 AND SWAP2 POP JUMPDEST PUSH1 0x20 DUP3 LT DUP2 EQ ISZERO PUSH3 0x506 JUMPI PUSH3 0x505 PUSH3 0x4A7 JUMP JUMPDEST JUMPDEST POP SWAP2 SWAP1 POP JUMP JUMPDEST PUSH2 0x26D2 DUP1 PUSH3 0x51C PUSH1 0x0 CODECOPY PUSH1 0x0 RETURN INVALID PUSH1 0x80 PUSH1 0x40 MSTORE PUSH1 0x4 CALLDATASIZE LT PUSH2 0x166 JUMPI PUSH1 0x0 CALLDATALOAD PUSH1 0xE0 SHR DUP1 PUSH4 0x819856A3 GT PUSH2 0xD1 JUMPI DUP1 PUSH4 0xD99678DD GT PUSH2 0x8A JUMPI DUP1 PUSH4 0xF007BF37 GT PUSH2 0x64 JUMPI DUP1 PUSH4 0xF007BF37 EQ PUSH2 0x53E JUMPI DUP1 PUSH4 0xF1061536 EQ PUSH2 0x569 JUMPI DUP1 PUSH4 0xF294CF38 EQ PUSH2 0x592 JUMPI DUP1 PUSH4 0xF37FD5E9 EQ PUSH2 0x5BD JUMPI PUSH2 0x166 JUMP JUMPDEST DUP1 PUSH4 0xD99678DD EQ PUSH2 0x4AB JUMPI DUP1 PUSH4 0xE2EB41FF EQ PUSH2 0x4D6 JUMPI DUP1 PUSH4 0xE95A5775 EQ PUSH2 0x513 JUMPI PUSH2 0x166 JUMP JUMPDEST DUP1 PUSH4 0x819856A3 EQ PUSH2 0x3B8 JUMPI DUP1 PUSH4 0x8EC8901D EQ PUSH2 0x3E3 JUMPI DUP1 PUSH4 0x9164FA5D EQ PUSH2 0x420 JUMPI DUP1 PUSH4 0xA3F67D6D EQ PUSH2 0x44B JUMPI DUP1 PUSH4 0xB8A88369 EQ PUSH2 0x476 JUMPI DUP1 PUSH4 0xC44DD2F1 EQ PUSH2 0x480 JUMPI PUSH2 0x166 JUMP JUMPDEST DUP1 PUSH4 0x341C4F8E GT PUSH2 0x123 JUMPI DUP1 PUSH4 0x341C4F8E EQ PUSH2 0x297 JUMPI DUP1 PUSH4 0x40E3A1D2 EQ PUSH2 0x2C0 JUMPI DUP1 PUSH4 0x481C6A75 EQ PUSH2 0x2F2 JUMPI DUP1 PUSH4 0x5B30B84D EQ PUSH2 0x31D JUMPI DUP1 PUSH4 0x5DB91DC1 EQ PUSH2 0x348 JUMPI DUP1 PUSH4 0x627018EE EQ PUSH2 0x371 JUMPI PUSH2 0x166 JUMP JUMPDEST DUP1 PUSH4 0x6E4B16E EQ PUSH2 0x16B JUMPI DUP1 PUSH4 0x9248D24 EQ PUSH2 0x187 JUMPI DUP1 PUSH4 0x1C18C444 EQ PUSH2 0x1C4 JUMPI DUP1 PUSH4 0x1F232F30 EQ PUSH2 0x204 JUMPI DUP1 PUSH4 0x24DD7D0E EQ PUSH2 0x241 JUMPI DUP1 PUSH4 0x30304093 EQ PUSH2 0x26C JUMPI JUMPDEST PUSH1 0x0 DUP1 REVERT JUMPDEST PUSH2 0x185 PUSH1 0x4 DUP1 CALLDATASIZE SUB DUP2 ADD SWAP1 PUSH2 0x180 SWAP2 SWAP1 PUSH2 0x1B95 JUMP JUMPDEST PUSH2 0x5E6 JUMP JUMPDEST STOP JUMPDEST CALLVALUE DUP1 ISZERO PUSH2 0x193 JUMPI PUSH1 0x0 DUP1 REVERT JUMPDEST POP PUSH2 0x1AE PUSH1 0x4 DUP1 CALLDATASIZE SUB DUP2 ADD SWAP1 PUSH2 0x1A9 SWAP2 SWAP1 PUSH2 0x1D08 JUMP JUMPDEST PUSH2 0x75D JUMP JUMPDEST PUSH1 0x40 MLOAD PUSH2 0x1BB SWAP2 SWAP1 PUSH2 0x1DD9 JUMP JUMPDEST PUSH1 0x40 MLOAD DUP1 SWAP2 SUB SWAP1 RETURN JUMPDEST CALLVALUE DUP1 ISZERO PUSH2 0x1D0 JUMPI PUSH1 0x0 DUP1 REVERT JUMPDEST POP PUSH2 0x1EB PUSH1 0x4 DUP1 CALLDATASIZE SUB DUP2 ADD SWAP1 PUSH2 0x1E6 SWAP2 SWAP1 PUSH2 0x1E31 JUMP JUMPDEST PUSH2 0x862 JUMP JUMPDEST PUSH1 0x40 MLOAD PUSH2 0x1FB SWAP5 SWAP4 SWAP3 SWAP2 SWAP1 PUSH2 0x1E88 JUMP JUMPDEST PUSH1 0x40 MLOAD DUP1 SWAP2 SUB SWAP1 RETURN JUMPDEST CALLVALUE DUP1 ISZERO PUSH2 0x210 JUMPI PUSH1 0x0 DUP1 REVERT JUMPDEST POP PUSH2 0x22B PUSH1 0x4 DUP1 CALLDATASIZE SUB DUP2 ADD SWAP1 PUSH2 0x226 SWAP2 SWAP1 PUSH2 0x1EDB JUMP JUMPDEST PUSH2 0xA32 JUMP JUMPDEST PUSH1 0x40 MLOAD PUSH2 0x238 SWAP2 SWAP1 PUSH2 0x1F37 JUMP JUMPDEST PUSH1 0x40 MLOAD DUP1 SWAP2 SUB SWAP1 RETURN JUMPDEST CALLVALUE DUP1 ISZERO PUSH2 0x24D JUMPI PUSH1 0x0 DUP1 REVERT JUMPDEST POP PUSH2 0x256 PUSH2 0xC78 JUMP JUMPDEST PUSH1 0x40 MLOAD PUSH2 0x263 SWAP2 SWAP1 PUSH2 0x1DD9 JUMP JUMPDEST PUSH1 0x40 MLOAD DUP1 SWAP2 SUB SWAP1 RETURN JUMPDEST CALLVALUE DUP1 ISZERO PUSH2 0x278 JUMPI PUSH1 0x0 DUP1 REVERT JUMPDEST POP PUSH2 0x281 PUSH2 0xD0A JUMP JUMPDEST PUSH1 0x40 MLOAD PUSH2 0x28E SWAP2 SWAP1 PUSH2 0x1DD9 JUMP JUMPDEST PUSH1 0x40 MLOAD DUP1 SWAP2 SUB SWAP1 RETURN JUMPDEST CALLVALUE DUP1 ISZERO PUSH2 0x2A3 JUMPI PUSH1 0x0 DUP1 REVERT JUMPDEST POP PUSH2 0x2BE PUSH1 0x4 DUP1 CALLDATASIZE SUB DUP2 ADD SWAP1 PUSH2 0x2B9 SWAP2 SWAP1 PUSH2 0x1F52 JUMP JUMPDEST PUSH2 0xD98 JUMP JUMPDEST STOP JUMPDEST CALLVALUE DUP1 ISZERO PUSH2 0x2CC JUMPI PUSH1 0x0 DUP1 REVERT JUMPDEST POP PUSH2 0x2D5 PUSH2 0xE71 JUMP JUMPDEST PUSH1 0x40 MLOAD PUSH2 0x2E9 SWAP9 SWAP8 SWAP7 SWAP6 SWAP5 SWAP4 SWAP3 SWAP2 SWAP1 PUSH2 0x1FB4 JUMP JUMPDEST PUSH1 0x40 MLOAD DUP1 SWAP2 SUB SWAP1 RETURN JUMPDEST CALLVALUE DUP1 ISZERO PUSH2 0x2FE JUMPI PUSH1 0x0 DUP1 REVERT JUMPDEST POP PUSH2 0x307 PUSH2 0x107E JUMP JUMPDEST PUSH1 0x40 MLOAD PUSH2 0x314 SWAP2 SWAP1 PUSH2 0x2047 JUMP JUMPDEST PUSH1 0x40 MLOAD DUP1 SWAP2 SUB SWAP1 RETURN JUMPDEST CALLVALUE DUP1 ISZERO PUSH2 0x329 JUMPI PUSH1 0x0 DUP1 REVERT JUMPDEST POP PUSH2 0x332 PUSH2 0x10A4 JUMP JUMPDEST PUSH1 0x40 MLOAD PUSH2 0x33F SWAP2 SWAP1 PUSH2 0x2062 JUMP JUMPDEST PUSH1 0x40 MLOAD DUP1 SWAP2 SUB SWAP1 RETURN JUMPDEST CALLVALUE DUP1 ISZERO PUSH2 0x354 JUMPI PUSH1 0x0 DUP1 REVERT JUMPDEST POP PUSH2 0x36F PUSH1 0x4 DUP1 CALLDATASIZE SUB DUP2 ADD SWAP1 PUSH2 0x36A SWAP2 SWAP1 PUSH2 0x1EDB JUMP JUMPDEST PUSH2 0x10AC JUMP JUMPDEST STOP JUMPDEST CALLVALUE DUP1 ISZERO PUSH2 0x37D JUMPI PUSH1 0x0 DUP1 REVERT JUMPDEST POP PUSH2 0x398 PUSH1 0x4 DUP1 CALLDATASIZE SUB DUP2 ADD SWAP1 PUSH2 0x393 SWAP2 SWAP1 PUSH2 0x1E31 JUMP JUMPDEST PUSH2 0x1144 JUMP JUMPDEST PUSH1 0x40 MLOAD PUSH2 0x3AF SWAP12 SWAP11 SWAP10 SWAP9 SWAP8 SWAP7 SWAP6 SWAP5 SWAP4 SWAP3 SWAP2 SWAP1 PUSH2 0x207D JUMP JUMPDEST PUSH1 0x40 MLOAD DUP1 SWAP2 SUB SWAP1 RETURN JUMPDEST CALLVALUE DUP1 ISZERO PUSH2 0x3C4 JUMPI PUSH1 0x0 DUP1 REVERT JUMPDEST POP PUSH2 0x3CD PUSH2 0x1463 JUMP JUMPDEST PUSH1 0x40 MLOAD PUSH2 0x3DA SWAP2 SWAP1 PUSH2 0x1F37 JUMP JUMPDEST PUSH1 0x40 MLOAD DUP1 SWAP2 SUB SWAP1 RETURN JUMPDEST CALLVALUE DUP1 ISZERO PUSH2 0x3EF JUMPI PUSH1 0x0 DUP1 REVERT JUMPDEST POP PUSH2 0x40A PUSH1 0x4 DUP1 CALLDATASIZE SUB DUP2 ADD SWAP1 PUSH2 0x405 SWAP2 SWAP1 PUSH2 0x1E31 JUMP JUMPDEST PUSH2 0x1476 JUMP JUMPDEST PUSH1 0x40 MLOAD PUSH2 0x417 SWAP2 SWAP1 PUSH2 0x2257 JUMP JUMPDEST PUSH1 0x40 MLOAD DUP1 SWAP2 SUB SWAP1 RETURN JUMPDEST CALLVALUE DUP1 ISZERO PUSH2 0x42C JUMPI PUSH1 0x0 DUP1 REVERT JUMPDEST POP PUSH2 0x435 PUSH2 0x1574 JUMP JUMPDEST PUSH1 0x40 MLOAD PUSH2 0x442 SWAP2 SWAP1 PUSH2 0x2062 JUMP JUMPDEST PUSH1 0x40 MLOAD DUP1 SWAP2 SUB SWAP1 RETURN JUMPDEST CALLVALUE DUP1 ISZERO PUSH2 0x457 JUMPI PUSH1 0x0 DUP1 REVERT JUMPDEST POP PUSH2 0x460 PUSH2 0x157E JUMP JUMPDEST PUSH1 0x40 MLOAD PUSH2 0x46D SWAP2 SWAP1 PUSH2 0x2062 JUMP JUMPDEST PUSH1 0x40 MLOAD DUP1 SWAP2 SUB SWAP1 RETURN JUMPDEST PUSH2 0x47E PUSH2 0x1584 JUMP JUMPDEST STOP JUMPDEST CALLVALUE DUP1 ISZERO PUSH2 0x48C JUMPI PUSH1 0x0 DUP1 REVERT JUMPDEST POP PUSH2 0x495 PUSH2 0x1697 JUMP JUMPDEST PUSH1 0x40 MLOAD PUSH2 0x4A2 SWAP2 SWAP1 PUSH2 0x1DD9 JUMP JUMPDEST PUSH1 0x40 MLOAD DUP1 SWAP2 SUB SWAP1 RETURN JUMPDEST CALLVALUE DUP1 ISZERO PUSH2 0x4B7 JUMPI PUSH1 0x0 DUP1 REVERT JUMPDEST POP PUSH2 0x4C0 PUSH2 0x1725 JUMP JUMPDEST PUSH1 0x40 MLOAD PUSH2 0x4CD SWAP2 SWAP1 PUSH2 0x2062 JUMP JUMPDEST PUSH1 0x40 MLOAD DUP1 SWAP2 SUB SWAP1 RETURN JUMPDEST CALLVALUE DUP1 ISZERO PUSH2 0x4E2 JUMPI PUSH1 0x0 DUP1 REVERT JUMPDEST POP PUSH2 0x4FD PUSH1 0x4 DUP1 CALLDATASIZE SUB DUP2 ADD SWAP1 PUSH2 0x4F8 SWAP2 SWAP1 PUSH2 0x1B95 JUMP JUMPDEST PUSH2 0x1731 JUMP JUMPDEST PUSH1 0x40 MLOAD PUSH2 0x50A SWAP2 SWAP1 PUSH2 0x1F37 JUMP JUMPDEST PUSH1 0x40 MLOAD DUP1 SWAP2 SUB SWAP1 RETURN JUMPDEST CALLVALUE DUP1 ISZERO PUSH2 0x51F JUMPI PUSH1 0x0 DUP1 REVERT JUMPDEST POP PUSH2 0x528 PUSH2 0x1751 JUMP JUMPDEST PUSH1 0x40 MLOAD PUSH2 0x535 SWAP2 SWAP1 PUSH2 0x2062 JUMP JUMPDEST PUSH1 0x40 MLOAD DUP1 SWAP2 SUB SWAP1 RETURN JUMPDEST CALLVALUE DUP1 ISZERO PUSH2 0x54A JUMPI PUSH1 0x0 DUP1 REVERT JUMPDEST POP PUSH2 0x553 PUSH2 0x1757 JUMP JUMPDEST PUSH1 0x40 MLOAD PUSH2 0x560 SWAP2 SWAP1 PUSH2 0x2062 JUMP JUMPDEST PUSH1 0x40 MLOAD DUP1 SWAP2 SUB SWAP1 RETURN JUMPDEST CALLVALUE DUP1 ISZERO PUSH2 0x575 JUMPI PUSH1 0x0 DUP1 REVERT JUMPDEST POP PUSH2 0x590 PUSH1 0x4 DUP1 CALLDATASIZE SUB DUP2 ADD SWAP1 PUSH2 0x58B SWAP2 SWAP1 PUSH2 0x2279 JUMP JUMPDEST PUSH2 0x175D JUMP JUMPDEST STOP JUMPDEST CALLVALUE DUP1 ISZERO PUSH2 0x59E JUMPI PUSH1 0x0 DUP1 REVERT JUMPDEST POP PUSH2 0x5A7 PUSH2 0x18E9 JUMP JUMPDEST PUSH1 0x40 MLOAD PUSH2 0x5B4 SWAP2 SWAP1 PUSH2 0x1DD9 JUMP JUMPDEST PUSH1 0x40 MLOAD DUP1 SWAP2 SUB SWAP1 RETURN JUMPDEST CALLVALUE DUP1 ISZERO PUSH2 0x5C9 JUMPI PUSH1 0x0 DUP1 REVERT JUMPDEST POP PUSH2 0x5E4 PUSH1 0x4 DUP1 CALLDATASIZE SUB DUP2 ADD SWAP1 PUSH2 0x5DF SWAP2 SWAP1 PUSH2 0x23AE JUMP JUMPDEST PUSH2 0x1977 JUMP JUMPDEST STOP JUMPDEST PUSH1 0x1 ISZERO ISZERO PUSH1 0x6 PUSH1 0x0 CALLER PUSH20 0xFFFFFFFFFFFFFFFFFFFFFFFFFFFFFFFFFFFFFFFF AND PUSH20 0xFFFFFFFFFFFFFFFFFFFFFFFFFFFFFFFFFFFFFFFF AND DUP2 MSTORE PUSH1 0x20 ADD SWAP1 DUP2 MSTORE PUSH1 0x20 ADD PUSH1 0x0 KECCAK256 PUSH1 0x0 SWAP1 SLOAD SWAP1 PUSH2 0x100 EXP SWAP1 DIV PUSH1 0xFF AND ISZERO ISZERO EQ PUSH2 0x643 JUMPI PUSH1 0x0 DUP1 REVERT JUMPDEST PUSH1 0x0 DUP1 DUP1 DUP1 SLOAD SWAP1 POP GT PUSH2 0x655 JUMPI PUSH1 0x0 DUP1 REVERT JUMPDEST JUMPDEST PUSH1 0x0 DUP1 SLOAD SWAP1 POP DUP2 LT ISZERO PUSH2 0x6EF JUMPI PUSH1 0x0 DUP2 DUP2 SLOAD DUP2 LT PUSH2 0x677 JUMPI PUSH2 0x676 PUSH2 0x241D JUMP JUMPDEST JUMPDEST SWAP1 PUSH1 0x0 MSTORE PUSH1 0x20 PUSH1 0x0 KECCAK256 SWAP1 PUSH1 0xE MUL ADD PUSH1 0xA ADD PUSH1 0x0 CALLER PUSH20 0xFFFFFFFFFFFFFFFFFFFFFFFFFFFFFFFFFFFFFFFF AND PUSH20 0xFFFFFFFFFFFFFFFFFFFFFFFFFFFFFFFFFFFFFFFF AND DUP2 MSTORE PUSH1 0x20 ADD SWAP1 DUP2 MSTORE PUSH1 0x20 ADD PUSH1 0x0 KECCAK256 PUSH1 0x0 SWAP1 SLOAD SWAP1 PUSH2 0x100 EXP SWAP1 DIV PUSH1 0xFF AND PUSH2 0x6DC JUMPI PUSH1 0x0 DUP1 REVERT JUMPDEST DUP1 DUP1 PUSH2 0x6E7 SWAP1 PUSH2 0x247B JUMP JUMPDEST SWAP2 POP POP PUSH2 0x656 JUMP JUMPDEST DUP2 PUSH20 0xFFFFFFFFFFFFFFFFFFFFFFFFFFFFFFFFFFFFFFFF AND PUSH2 0x8FC SELFBALANCE SWAP1 DUP2 ISZERO MUL SWAP1 PUSH1 0x40 MLOAD PUSH1 0x0 PUSH1 0x40 MLOAD DUP1 DUP4 SUB DUP2 DUP6 DUP9 DUP9 CALL SWAP4 POP POP POP POP ISZERO DUP1 ISZERO PUSH2 0x735 JUMPI RETURNDATASIZE PUSH1 0x0 DUP1 RETURNDATACOPY RETURNDATASIZE PUSH1 0x0 REVERT JUMPDEST POP PUSH1 0x1 PUSH1 0x9 PUSH1 0x0 PUSH2 0x100 EXP DUP2 SLOAD DUP2 PUSH1 0xFF MUL NOT AND SWAP1 DUP4 ISZERO ISZERO MUL OR SWAP1 SSTORE POP PUSH1 0x0 PUSH1 0x3 DUP2 SWAP1 SSTORE POP POP POP JUMP JUMPDEST PUSH1 0x60 PUSH1 0x1 PUSH1 0x0 SWAP1 SLOAD SWAP1 PUSH2 0x100 EXP SWAP1 DIV PUSH20 0xFFFFFFFFFFFFFFFFFFFFFFFFFFFFFFFFFFFFFFFF AND PUSH20 0xFFFFFFFFFFFFFFFFFFFFFFFFFFFFFFFFFFFFFFFF AND CALLER PUSH20 0xFFFFFFFFFFFFFFFFFFFFFFFFFFFFFFFFFFFFFFFF AND EQ PUSH2 0x7B9 JUMPI PUSH1 0x0 DUP1 REVERT JUMPDEST DUP2 PUSH1 0x2 SWAP1 DUP1 MLOAD SWAP1 PUSH1 0x20 ADD SWAP1 PUSH2 0x7CF SWAP3 SWAP2 SWAP1 PUSH2 0x1A80 JUMP JUMPDEST POP PUSH1 0x2 DUP1 SLOAD PUSH2 0x7DD SWAP1 PUSH2 0x24F3 JUMP JUMPDEST DUP1 PUSH1 0x1F ADD PUSH1 0x20 DUP1 SWAP2 DIV MUL PUSH1 0x20 ADD PUSH1 0x40 MLOAD SWAP1 DUP2 ADD PUSH1 0x40 MSTORE DUP1 SWAP3 SWAP2 SWAP1 DUP2 DUP2 MSTORE PUSH1 0x20 ADD DUP3 DUP1 SLOAD PUSH2 0x809 SWAP1 PUSH2 0x24F3 JUMP JUMPDEST DUP1 ISZERO PUSH2 0x856 JUMPI DUP1 PUSH1 0x1F LT PUSH2 0x82B JUMPI PUSH2 0x100 DUP1 DUP4 SLOAD DIV MUL DUP4 MSTORE SWAP2 PUSH1 0x20 ADD SWAP2 PUSH2 0x856 JUMP JUMPDEST DUP3 ADD SWAP2 SWAP1 PUSH1 0x0 MSTORE PUSH1 0x20 PUSH1 0x0 KECCAK256 SWAP1 JUMPDEST DUP2 SLOAD DUP2 MSTORE SWAP1 PUSH1 0x1 ADD SWAP1 PUSH1 0x20 ADD DUP1 DUP4 GT PUSH2 0x839 JUMPI DUP3 SWAP1 SUB PUSH1 0x1F AND DUP3 ADD SWAP2 JUMPDEST POP POP POP POP POP SWAP1 POP SWAP2 SWAP1 POP JUMP JUMPDEST PUSH1 0x60 DUP1 PUSH1 0x0 DUP1 PUSH1 0x0 DUP6 DUP2 SLOAD DUP2 LT PUSH2 0x87C JUMPI PUSH2 0x87B PUSH2 0x241D JUMP JUMPDEST JUMPDEST SWAP1 PUSH1 0x0 MSTORE PUSH1 0x20 PUSH1 0x0 KECCAK256 SWAP1 PUSH1 0xE MUL ADD PUSH1 0x0 ADD PUSH1 0x0 DUP7 DUP2 SLOAD DUP2 LT PUSH2 0x8A1 JUMPI PUSH2 0x8A0 PUSH2 0x241D JUMP JUMPDEST JUMPDEST SWAP1 PUSH1 0x0 MSTORE PUSH1 0x20 PUSH1 0x0 KECCAK256 SWAP1 PUSH1 0xE MUL ADD PUSH1 0x1 ADD PUSH1 0x0 DUP8 DUP2 SLOAD DUP2 LT PUSH2 0x8C6 JUMPI PUSH2 0x8C5 PUSH2 0x241D JUMP JUMPDEST JUMPDEST SWAP1 PUSH1 0x0 MSTORE PUSH1 0x20 PUSH1 0x0 KECCAK256 SWAP1 PUSH1 0xE MUL ADD PUSH1 0x8 ADD SLOAD PUSH1 0x0 DUP9 DUP2 SLOAD DUP2 LT PUSH2 0x8EC JUMPI PUSH2 0x8EB PUSH2 0x241D JUMP JUMPDEST JUMPDEST SWAP1 PUSH1 0x0 MSTORE PUSH1 0x20 PUSH1 0x0 KECCAK256 SWAP1 PUSH1 0xE MUL ADD PUSH1 0x9 ADD PUSH1 0x0 SWAP1 SLOAD SWAP1 PUSH2 0x100 EXP SWAP1 DIV PUSH1 0xFF AND DUP4 DUP1 SLOAD PUSH2 0x917 SWAP1 PUSH2 0x24F3 JUMP JUMPDEST DUP1 PUSH1 0x1F ADD PUSH1 0x20 DUP1 SWAP2 DIV MUL PUSH1 0x20 ADD PUSH1 0x40 MLOAD SWAP1 DUP2 ADD PUSH1 0x40 MSTORE DUP1 SWAP3 SWAP2 SWAP1 DUP2 DUP2 MSTORE PUSH1 0x20 ADD DUP3 DUP1 SLOAD PUSH2 0x943 SWAP1 PUSH2 0x24F3 JUMP JUMPDEST DUP1 ISZERO PUSH2 0x990 JUMPI DUP1 PUSH1 0x1F LT PUSH2 0x965 JUMPI PUSH2 0x100 DUP1 DUP4 SLOAD DIV MUL DUP4 MSTORE SWAP2 PUSH1 0x20 ADD SWAP2 PUSH2 0x990 JUMP JUMPDEST DUP3 ADD SWAP2 SWAP1 PUSH1 0x0 MSTORE PUSH1 0x20 PUSH1 0x0 KECCAK256 SWAP1 JUMPDEST DUP2 SLOAD DUP2 MSTORE SWAP1 PUSH1 0x1 ADD SWAP1 PUSH1 0x20 ADD DUP1 DUP4 GT PUSH2 0x973 JUMPI DUP3 SWAP1 SUB PUSH1 0x1F AND DUP3 ADD SWAP2 JUMPDEST POP POP POP POP POP SWAP4 POP DUP3 DUP1 SLOAD PUSH2 0x9A3 SWAP1 PUSH2 0x24F3 JUMP JUMPDEST DUP1 PUSH1 0x1F ADD PUSH1 0x20 DUP1 SWAP2 DIV MUL PUSH1 0x20 ADD PUSH1 0x40 MLOAD SWAP1 DUP2 ADD PUSH1 0x40 MSTORE DUP1 SWAP3 SWAP2 SWAP1 DUP2 DUP2 MSTORE PUSH1 0x20 ADD DUP3 DUP1 SLOAD PUSH2 0x9CF SWAP1 PUSH2 0x24F3 JUMP JUMPDEST DUP1 ISZERO PUSH2 0xA1C JUMPI DUP1 PUSH1 0x1F LT PUSH2 0x9F1 JUMPI PUSH2 0x100 DUP1 DUP4 SLOAD DIV MUL DUP4 MSTORE SWAP2 PUSH1 0x20 ADD SWAP2 PUSH2 0xA1C JUMP JUMPDEST DUP3 ADD SWAP2 SWAP1 PUSH1 0x0 MSTORE PUSH1 0x20 PUSH1 0x0 KECCAK256 SWAP1 JUMPDEST DUP2 SLOAD DUP2 MSTORE SWAP1 PUSH1 0x1 ADD SWAP1 PUSH1 0x20 ADD DUP1 DUP4 GT PUSH2 0x9FF JUMPI DUP3 SWAP1 SUB PUSH1 0x1F AND DUP3 ADD SWAP2 JUMPDEST POP POP POP POP POP SWAP3 POP SWAP4 POP SWAP4 POP SWAP4 POP SWAP4 POP SWAP2 SWAP4 POP SWAP2 SWAP4 JUMP JUMPDEST PUSH1 0x0 PUSH1 0x1 ISZERO ISZERO PUSH1 0x6 PUSH1 0x0 CALLER PUSH20 0xFFFFFFFFFFFFFFFFFFFFFFFFFFFFFFFFFFFFFFFF AND PUSH20 0xFFFFFFFFFFFFFFFFFFFFFFFFFFFFFFFFFFFFFFFF AND DUP2 MSTORE PUSH1 0x20 ADD SWAP1 DUP2 MSTORE PUSH1 0x20 ADD PUSH1 0x0 KECCAK256 PUSH1 0x0 SWAP1 SLOAD SWAP1 PUSH2 0x100 EXP SWAP1 DIV PUSH1 0xFF AND ISZERO ISZERO EQ PUSH2 0xA91 JUMPI PUSH1 0x0 DUP1 REVERT JUMPDEST PUSH1 0x0 DUP1 DUP5 DUP2 SLOAD DUP2 LT PUSH2 0xAA6 JUMPI PUSH2 0xAA5 PUSH2 0x241D JUMP JUMPDEST JUMPDEST SWAP1 PUSH1 0x0 MSTORE PUSH1 0x20 PUSH1 0x0 KECCAK256 SWAP1 PUSH1 0xE MUL ADD SWAP1 POP DUP1 PUSH1 0xB ADD DUP4 PUSH1 0x40 MLOAD PUSH2 0xAC8 SWAP2 SWAP1 PUSH2 0x2561 JUMP JUMPDEST SWAP1 DUP2 MSTORE PUSH1 0x20 ADD PUSH1 0x40 MLOAD DUP1 SWAP2 SUB SWAP1 KECCAK256 PUSH1 0x0 SWAP1 SLOAD SWAP1 PUSH2 0x100 EXP SWAP1 DIV PUSH1 0xFF AND ISZERO PUSH2 0xBFC JUMPI PUSH1 0x0 ISZERO ISZERO DUP2 PUSH1 0xA ADD PUSH1 0x0 CALLER PUSH20 0xFFFFFFFFFFFFFFFFFFFFFFFFFFFFFFFFFFFFFFFF AND PUSH20 0xFFFFFFFFFFFFFFFFFFFFFFFFFFFFFFFFFFFFFFFF AND DUP2 MSTORE PUSH1 0x20 ADD SWAP1 DUP2 MSTORE PUSH1 0x20 ADD PUSH1 0x0 KECCAK256 PUSH1 0x0 SWAP1 SLOAD SWAP1 PUSH2 0x100 EXP SWAP1 DIV PUSH1 0xFF AND ISZERO ISZERO EQ PUSH2 0xB7E JUMPI PUSH1 0x40 MLOAD PUSH32 0x8C379A000000000000000000000000000000000000000000000000000000000 DUP2 MSTORE PUSH1 0x4 ADD PUSH2 0xB75 SWAP1 PUSH2 0x25EA JUMP JUMPDEST PUSH1 0x40 MLOAD DUP1 SWAP2 SUB SWAP1 REVERT JUMPDEST PUSH1 0x1 DUP2 PUSH1 0xA ADD PUSH1 0x0 CALLER PUSH20 0xFFFFFFFFFFFFFFFFFFFFFFFFFFFFFFFFFFFFFFFF AND PUSH20 0xFFFFFFFFFFFFFFFFFFFFFFFFFFFFFFFFFFFFFFFF AND DUP2 MSTORE PUSH1 0x20 ADD SWAP1 DUP2 MSTORE PUSH1 0x20 ADD PUSH1 0x0 KECCAK256 PUSH1 0x0 PUSH2 0x100 EXP DUP2 SLOAD DUP2 PUSH1 0xFF MUL NOT AND SWAP1 DUP4 ISZERO ISZERO MUL OR SWAP1 SSTORE POP DUP1 PUSH1 0xD ADD PUSH1 0x0 DUP2 SLOAD DUP1 SWAP3 SWAP2 SWAP1 PUSH2 0xBED SWAP1 PUSH2 0x247B JUMP JUMPDEST SWAP2 SWAP1 POP SSTORE POP PUSH1 0x1 SWAP2 POP POP PUSH2 0xC72 JUMP JUMPDEST DUP1 PUSH1 0xC ADD DUP4 SWAP1 DUP1 PUSH1 0x1 DUP2 SLOAD ADD DUP1 DUP3 SSTORE DUP1 SWAP2 POP POP PUSH1 0x1 SWAP1 SUB SWAP1 PUSH1 0x0 MSTORE PUSH1 0x20 PUSH1 0x0 KECCAK256 ADD PUSH1 0x0 SWAP1 SWAP2 SWAP1 SWAP2 SWAP1 SWAP2 POP SWAP1 DUP1 MLOAD SWAP1 PUSH1 0x20 ADD SWAP1 PUSH2 0xC39 SWAP3 SWAP2 SWAP1 PUSH2 0x1A80 JUMP JUMPDEST POP DUP1 PUSH1 0x8 ADD PUSH1 0x0 DUP2 SLOAD DUP1 SWAP3 SWAP2 SWAP1 PUSH2 0xC4F SWAP1 PUSH2 0x247B JUMP JUMPDEST SWAP2 SWAP1 POP SSTORE POP PUSH1 0x8 PUSH1 0x0 DUP2 SLOAD DUP1 SWAP3 SWAP2 SWAP1 PUSH2 0xC67 SWAP1 PUSH2 0x247B JUMP JUMPDEST SWAP2 SWAP1 POP SSTORE POP PUSH1 0x0 SWAP2 POP POP JUMPDEST SWAP3 SWAP2 POP POP JUMP JUMPDEST PUSH1 0x60 PUSH1 0x2 DUP1 SLOAD PUSH2 0xC87 SWAP1 PUSH2 0x24F3 JUMP JUMPDEST DUP1 PUSH1 0x1F ADD PUSH1 0x20 DUP1 SWAP2 DIV MUL PUSH1 0x20 ADD PUSH1 0x40 MLOAD SWAP1 DUP2 ADD PUSH1 0x40 MSTORE DUP1 SWAP3 SWAP2 SWAP1 DUP2 DUP2 MSTORE PUSH1 0x20 ADD DUP3 DUP1 SLOAD PUSH2 0xCB3 SWAP1 PUSH2 0x24F3 JUMP JUMPDEST DUP1 ISZERO PUSH2 0xD00 JUMPI DUP1 PUSH1 0x1F LT PUSH2 0xCD5 JUMPI PUSH2 0x100 DUP1 DUP4 SLOAD DIV MUL DUP4 MSTORE SWAP2 PUSH1 0x20 ADD SWAP2 PUSH2 0xD00 JUMP JUMPDEST DUP3 ADD SWAP2 SWAP1 PUSH1 0x0 MSTORE PUSH1 0x20 PUSH1 0x0 KECCAK256 SWAP1 JUMPDEST DUP2 SLOAD DUP2 MSTORE SWAP1 PUSH1 0x1 ADD SWAP1 PUSH1 0x20 ADD DUP1 DUP4 GT PUSH2 0xCE3 JUMPI DUP3 SWAP1 SUB PUSH1 0x1F AND DUP3 ADD SWAP2 JUMPDEST POP POP POP POP POP SWAP1 POP SWAP1 JUMP JUMPDEST PUSH1 0x4 DUP1 SLOAD PUSH2 0xD17 SWAP1 PUSH2 0x24F3 JUMP JUMPDEST DUP1 PUSH1 0x1F ADD PUSH1 0x20 DUP1 SWAP2 DIV MUL PUSH1 0x20 ADD PUSH1 0x40 MLOAD SWAP1 DUP2 ADD PUSH1 0x40 MSTORE DUP1 SWAP3 SWAP2 SWAP1 DUP2 DUP2 MSTORE PUSH1 0x20 ADD DUP3 DUP1 SLOAD PUSH2 0xD43 SWAP1 PUSH2 0x24F3 JUMP JUMPDEST DUP1 ISZERO PUSH2 0xD90 JUMPI DUP1 PUSH1 0x1F LT PUSH2 0xD65 JUMPI PUSH2 0x100 DUP1 DUP4 SLOAD DIV MUL DUP4 MSTORE SWAP2 PUSH1 0x20 ADD SWAP2 PUSH2 0xD90 JUMP JUMPDEST DUP3 ADD SWAP2 SWAP1 PUSH1 0x0 MSTORE PUSH1 0x20 PUSH1 0x0 KECCAK256 SWAP1 JUMPDEST DUP2 SLOAD DUP2 MSTORE SWAP1 PUSH1 0x1 ADD SWAP1 PUSH1 0x20 ADD DUP1 DUP4 GT PUSH2 0xD73 JUMPI DUP3 SWAP1 SUB PUSH1 0x1F AND DUP3 ADD SWAP2 JUMPDEST POP POP POP POP POP DUP2 JUMP JUMPDEST PUSH1 0x1 PUSH1 0x0 SWAP1 SLOAD SWAP1 PUSH2 0x100 EXP SWAP1 DIV PUSH20 0xFFFFFFFFFFFFFFFFFFFFFFFFFFFFFFFFFFFFFFFF AND PUSH20 0xFFFFFFFFFFFFFFFFFFFFFFFFFFFFFFFFFFFFFFFF AND CALLER PUSH20 0xFFFFFFFFFFFFFFFFFFFFFFFFFFFFFFFFFFFFFFFF AND EQ PUSH2 0xDF2 JUMPI PUSH1 0x0 DUP1 REVERT JUMPDEST PUSH1 0x0 DUP1 DUP5 DUP2 SLOAD DUP2 LT PUSH2 0xE07 JUMPI PUSH2 0xE06 PUSH2 0x241D JUMP JUMPDEST JUMPDEST SWAP1 PUSH1 0x0 MSTORE PUSH1 0x20 PUSH1 0x0 KECCAK256 SWAP1 PUSH1 0xE MUL ADD SWAP1 POP PUSH1 0x1 DUP4 LT ISZERO DUP1 ISZERO PUSH2 0xE29 JUMPI POP PUSH1 0x3 DUP4 GT ISZERO JUMPDEST PUSH2 0xE32 JUMPI PUSH1 0x0 DUP1 REVERT JUMPDEST PUSH1 0x1 DUP4 EQ ISZERO PUSH2 0xE49 JUMPI DUP2 DUP2 PUSH1 0x3 ADD DUP2 SWAP1 SSTORE POP PUSH2 0xE6B JUMP JUMPDEST PUSH1 0x2 DUP4 EQ ISZERO PUSH2 0xE60 JUMPI DUP2 DUP2 PUSH1 0x5 ADD DUP2 SWAP1 SSTORE POP PUSH2 0xE6A JUMP JUMPDEST DUP2 DUP2 PUSH1 0x7 ADD DUP2 SWAP1 SSTORE POP JUMPDEST JUMPDEST POP POP POP POP JUMP JUMPDEST PUSH1 0x0 PUSH1 0x60 DUP1 PUSH1 0x60 PUSH1 0x0 DUP1 PUSH1 0x0 DUP1 PUSH1 0x1 PUSH1 0x0 SWAP1 SLOAD SWAP1 PUSH2 0x100 EXP SWAP1 DIV PUSH20 0xFFFFFFFFFFFFFFFFFFFFFFFFFFFFFFFFFFFFFFFF AND PUSH1 0x2 PUSH1 0x4 PUSH1 0x5 PUSH1 0x3 SLOAD PUSH1 0x7 SLOAD PUSH1 0x8 SLOAD PUSH1 0x9 PUSH1 0x0 SWAP1 SLOAD SWAP1 PUSH2 0x100 EXP SWAP1 DIV PUSH1 0xFF AND DUP7 DUP1 SLOAD PUSH2 0xECC SWAP1 PUSH2 0x24F3 JUMP JUMPDEST DUP1 PUSH1 0x1F ADD PUSH1 0x20 DUP1 SWAP2 DIV MUL PUSH1 0x20 ADD PUSH1 0x40 MLOAD SWAP1 DUP2 ADD PUSH1 0x40 MSTORE DUP1 SWAP3 SWAP2 SWAP1 DUP2 DUP2 MSTORE PUSH1 0x20 ADD DUP3 DUP1 SLOAD PUSH2 0xEF8 SWAP1 PUSH2 0x24F3 JUMP JUMPDEST DUP1 ISZERO PUSH2 0xF45 JUMPI DUP1 PUSH1 0x1F LT PUSH2 0xF1A JUMPI PUSH2 0x100 DUP1 DUP4 SLOAD DIV MUL DUP4 MSTORE SWAP2 PUSH1 0x20 ADD SWAP2 PUSH2 0xF45 JUMP JUMPDEST DUP3 ADD SWAP2 SWAP1 PUSH1 0x0 MSTORE PUSH1 0x20 PUSH1 0x0 KECCAK256 SWAP1 JUMPDEST DUP2 SLOAD DUP2 MSTORE SWAP1 PUSH1 0x1 ADD SWAP1 PUSH1 0x20 ADD DUP1 DUP4 GT PUSH2 0xF28 JUMPI DUP3 SWAP1 SUB PUSH1 0x1F AND DUP3 ADD SWAP2 JUMPDEST POP POP POP POP POP SWAP7 POP DUP6 DUP1 SLOAD PUSH2 0xF58 SWAP1 PUSH2 0x24F3 JUMP JUMPDEST DUP1 PUSH1 0x1F ADD PUSH1 0x20 DUP1 SWAP2 DIV MUL PUSH1 0x20 ADD PUSH1 0x40 MLOAD SWAP1 DUP2 ADD PUSH1 0x40 MSTORE DUP1 SWAP3 SWAP2 SWAP1 DUP2 DUP2 MSTORE PUSH1 0x20 ADD DUP3 DUP1 SLOAD PUSH2 0xF84 SWAP1 PUSH2 0x24F3 JUMP JUMPDEST DUP1 ISZERO PUSH2 0xFD1 JUMPI DUP1 PUSH1 0x1F LT PUSH2 0xFA6 JUMPI PUSH2 0x100 DUP1 DUP4 SLOAD DIV MUL DUP4 MSTORE SWAP2 PUSH1 0x20 ADD SWAP2 PUSH2 0xFD1 JUMP JUMPDEST DUP3 ADD SWAP2 SWAP1 PUSH1 0x0 MSTORE PUSH1 0x20 PUSH1 0x0 KECCAK256 SWAP1 JUMPDEST DUP2 SLOAD DUP2 MSTORE SWAP1 PUSH1 0x1 ADD SWAP1 PUSH1 0x20 ADD DUP1 DUP4 GT PUSH2 0xFB4 JUMPI DUP3 SWAP1 SUB PUSH1 0x1F AND DUP3 ADD SWAP2 JUMPDEST POP POP POP POP POP SWAP6 POP DUP5 DUP1 SLOAD PUSH2 0xFE4 SWAP1 PUSH2 0x24F3 JUMP JUMPDEST DUP1 PUSH1 0x1F ADD PUSH1 0x20 DUP1 SWAP2 DIV MUL PUSH1 0x20 ADD PUSH1 0x40 MLOAD SWAP1 DUP2 ADD PUSH1 0x40 MSTORE DUP1 SWAP3 SWAP2 SWAP1 DUP2 DUP2 MSTORE PUSH1 0x20 ADD DUP3 DUP1 SLOAD PUSH2 0x1010 SWAP1 PUSH2 0x24F3 JUMP JUMPDEST DUP1 ISZERO PUSH2 0x105D JUMPI DUP1 PUSH1 0x1F LT PUSH2 0x1032 JUMPI PUSH2 0x100 DUP1 DUP4 SLOAD DIV MUL DUP4 MSTORE SWAP2 PUSH1 0x20 ADD SWAP2 PUSH2 0x105D JUMP JUMPDEST DUP3 ADD SWAP2 SWAP1 PUSH1 0x0 MSTORE PUSH1 0x20 PUSH1 0x0 KECCAK256 SWAP1 JUMPDEST DUP2 SLOAD DUP2 MSTORE SWAP1 PUSH1 0x1 ADD SWAP1 PUSH1 0x20 ADD DUP1 DUP4 GT PUSH2 0x1040 JUMPI DUP3 SWAP1 SUB PUSH1 0x1F AND DUP3 ADD SWAP2 JUMPDEST POP POP POP POP POP SWAP5 POP SWAP8 POP SWAP8 POP SWAP8 POP SWAP8 POP SWAP8 POP SWAP8 POP SWAP8 POP SWAP8 POP SWAP1 SWAP2 SWAP3 SWAP4 SWAP5 SWAP6 SWAP7 SWAP8 JUMP JUMPDEST PUSH1 0x1 PUSH1 0x0 SWAP1 SLOAD SWAP1 PUSH2 0x100 EXP SWAP1 DIV PUSH20 0xFFFFFFFFFFFFFFFFFFFFFFFFFFFFFFFFFFFFFFFF AND DUP2 JUMP JUMPDEST PUSH1 0x0 SELFBALANCE SWAP1 POP SWAP1 JUMP JUMPDEST PUSH1 0x1 PUSH1 0x0 SWAP1 SLOAD SWAP1 PUSH2 0x100 EXP SWAP1 DIV PUSH20 0xFFFFFFFFFFFFFFFFFFFFFFFFFFFFFFFFFFFFFFFF AND PUSH20 0xFFFFFFFFFFFFFFFFFFFFFFFFFFFFFFFFFFFFFFFF AND CALLER PUSH20 0xFFFFFFFFFFFFFFFFFFFFFFFFFFFFFFFFFFFFFFFF AND EQ PUSH2 0x1106 JUMPI PUSH1 0x0 DUP1 REVERT JUMPDEST DUP1 PUSH1 0x0 DUP4 DUP2 SLOAD DUP2 LT PUSH2 0x111B JUMPI PUSH2 0x111A PUSH2 0x241D JUMP JUMPDEST JUMPDEST SWAP1 PUSH1 0x0 MSTORE PUSH1 0x20 PUSH1 0x0 KECCAK256 SWAP1 PUSH1 0xE MUL ADD PUSH1 0x0 ADD SWAP1 DUP1 MLOAD SWAP1 PUSH1 0x20 ADD SWAP1 PUSH2 0x113F SWAP3 SWAP2 SWAP1 PUSH2 0x1A80 JUMP JUMPDEST POP POP POP JUMP JUMPDEST PUSH1 0x0 DUP2 DUP2 SLOAD DUP2 LT PUSH2 0x1154 JUMPI PUSH1 0x0 DUP1 REVERT JUMPDEST SWAP1 PUSH1 0x0 MSTORE PUSH1 0x20 PUSH1 0x0 KECCAK256 SWAP1 PUSH1 0xE MUL ADD PUSH1 0x0 SWAP2 POP SWAP1 POP DUP1 PUSH1 0x0 ADD DUP1 SLOAD PUSH2 0x1177 SWAP1 PUSH2 0x24F3 JUMP JUMPDEST DUP1 PUSH1 0x1F ADD PUSH1 0x20 DUP1 SWAP2 DIV MUL PUSH1 0x20 ADD PUSH1 0x40 MLOAD SWAP1 DUP2 ADD PUSH1 0x40 MSTORE DUP1 SWAP3 SWAP2 SWAP1 DUP2 DUP2 MSTORE PUSH1 0x20 ADD DUP3 DUP1 SLOAD PUSH2 0x11A3 SWAP1 PUSH2 0x24F3 JUMP JUMPDEST DUP1 ISZERO PUSH2 0x11F0 JUMPI DUP1 PUSH1 0x1F LT PUSH2 0x11C5 JUMPI PUSH2 0x100 DUP1 DUP4 SLOAD DIV MUL DUP4 MSTORE SWAP2 PUSH1 0x20 ADD SWAP2 PUSH2 0x11F0 JUMP JUMPDEST DUP3 ADD SWAP2 SWAP1 PUSH1 0x0 MSTORE PUSH1 0x20 PUSH1 0x0 KECCAK256 SWAP1 JUMPDEST DUP2 SLOAD DUP2 MSTORE SWAP1 PUSH1 0x1 ADD SWAP1 PUSH1 0x20 ADD DUP1 DUP4 GT PUSH2 0x11D3 JUMPI DUP3 SWAP1 SUB PUSH1 0x1F AND DUP3 ADD SWAP2 JUMPDEST POP POP POP POP POP SWAP1 DUP1 PUSH1 0x1 ADD DUP1 SLOAD PUSH2 0x1205 SWAP1 PUSH2 0x24F3 JUMP JUMPDEST DUP1 PUSH1 0x1F ADD PUSH1 0x20 DUP1 SWAP2 DIV MUL PUSH1 0x20 ADD PUSH1 0x40 MLOAD SWAP1 DUP2 ADD PUSH1 0x40 MSTORE DUP1 SWAP3 SWAP2 SWAP1 DUP2 DUP2 MSTORE PUSH1 0x20 ADD DUP3 DUP1 SLOAD PUSH2 0x1231 SWAP1 PUSH2 0x24F3 JUMP JUMPDEST DUP1 ISZERO PUSH2 0x127E JUMPI DUP1 PUSH1 0x1F LT PUSH2 0x1253 JUMPI PUSH2 0x100 DUP1 DUP4 SLOAD DIV MUL DUP4 MSTORE SWAP2 PUSH1 0x20 ADD SWAP2 PUSH2 0x127E JUMP JUMPDEST DUP3 ADD SWAP2 SWAP1 PUSH1 0x0 MSTORE PUSH1 0x20 PUSH1 0x0 KECCAK256 SWAP1 JUMPDEST DUP2 SLOAD DUP2 MSTORE SWAP1 PUSH1 0x1 ADD SWAP1 PUSH1 0x20 ADD DUP1 DUP4 GT PUSH2 0x1261 JUMPI DUP3 SWAP1 SUB PUSH1 0x1F AND DUP3 ADD SWAP2 JUMPDEST POP POP POP POP POP SWAP1 DUP1 PUSH1 0x2 ADD DUP1 SLOAD PUSH2 0x1293 SWAP1 PUSH2 0x24F3 JUMP JUMPDEST DUP1 PUSH1 0x1F ADD PUSH1 0x20 DUP1 SWAP2 DIV MUL PUSH1 0x20 ADD PUSH1 0x40 MLOAD SWAP1 DUP2 ADD PUSH1 0x40 MSTORE DUP1 SWAP3 SWAP2 SWAP1 DUP2 DUP2 MSTORE PUSH1 0x20 ADD DUP3 DUP1 SLOAD PUSH2 0x12BF SWAP1 PUSH2 0x24F3 JUMP JUMPDEST DUP1 ISZERO PUSH2 0x130C JUMPI DUP1 PUSH1 0x1F LT PUSH2 0x12E1 JUMPI PUSH2 0x100 DUP1 DUP4 SLOAD DIV MUL DUP4 MSTORE SWAP2 PUSH1 0x20 ADD SWAP2 PUSH2 0x130C JUMP JUMPDEST DUP3 ADD SWAP2 SWAP1 PUSH1 0x0 MSTORE PUSH1 0x20 PUSH1 0x0 KECCAK256 SWAP1 JUMPDEST DUP2 SLOAD DUP2 MSTORE SWAP1 PUSH1 0x1 ADD SWAP1 PUSH1 0x20 ADD DUP1 DUP4 GT PUSH2 0x12EF JUMPI DUP3 SWAP1 SUB PUSH1 0x1F AND DUP3 ADD SWAP2 JUMPDEST POP POP POP POP POP SWAP1 DUP1 PUSH1 0x3 ADD SLOAD SWAP1 DUP1 PUSH1 0x4 ADD DUP1 SLOAD PUSH2 0x1327 SWAP1 PUSH2 0x24F3 JUMP JUMPDEST DUP1 PUSH1 0x1F ADD PUSH1 0x20 DUP1 SWAP2 DIV MUL PUSH1 0x20 ADD PUSH1 0x40 MLOAD SWAP1 DUP2 ADD PUSH1 0x40 MSTORE DUP1 SWAP3 SWAP2 SWAP1 DUP2 DUP2 MSTORE PUSH1 0x20 ADD DUP3 DUP1 SLOAD PUSH2 0x1353 SWAP1 PUSH2 0x24F3 JUMP JUMPDEST DUP1 ISZERO PUSH2 0x13A0 JUMPI DUP1 PUSH1 0x1F LT PUSH2 0x1375 JUMPI PUSH2 0x100 DUP1 DUP4 SLOAD DIV MUL DUP4 MSTORE SWAP2 PUSH1 0x20 ADD SWAP2 PUSH2 0x13A0 JUMP JUMPDEST DUP3 ADD SWAP2 SWAP1 PUSH1 0x0 MSTORE PUSH1 0x20 PUSH1 0x0 KECCAK256 SWAP1 JUMPDEST DUP2 SLOAD DUP2 MSTORE SWAP1 PUSH1 0x1 ADD SWAP1 PUSH1 0x20 ADD DUP1 DUP4 GT PUSH2 0x1383 JUMPI DUP3 SWAP1 SUB PUSH1 0x1F AND DUP3 ADD SWAP2 JUMPDEST POP POP POP POP POP SWAP1 DUP1 PUSH1 0x5 ADD SLOAD SWAP1 DUP1 PUSH1 0x6 ADD DUP1 SLOAD PUSH2 0x13BB SWAP1 PUSH2 0x24F3 JUMP JUMPDEST DUP1 PUSH1 0x1F ADD PUSH1 0x20 DUP1 SWAP2 DIV MUL PUSH1 0x20 ADD PUSH1 0x40 MLOAD SWAP1 DUP2 ADD PUSH1 0x40 MSTORE DUP1 SWAP3 SWAP2 SWAP1 DUP2 DUP2 MSTORE PUSH1 0x20 ADD DUP3 DUP1 SLOAD PUSH2 0x13E7 SWAP1 PUSH2 0x24F3 JUMP JUMPDEST DUP1 ISZERO PUSH2 0x1434 JUMPI DUP1 PUSH1 0x1F LT PUSH2 0x1409 JUMPI PUSH2 0x100 DUP1 DUP4 SLOAD DIV MUL DUP4 MSTORE SWAP2 PUSH1 0x20 ADD SWAP2 PUSH2 0x1434 JUMP JUMPDEST DUP3 ADD SWAP2 SWAP1 PUSH1 0x0 MSTORE PUSH1 0x20 PUSH1 0x0 KECCAK256 SWAP1 JUMPDEST DUP2 SLOAD DUP2 MSTORE SWAP1 PUSH1 0x1 ADD SWAP1 PUSH1 0x20 ADD DUP1 DUP4 GT PUSH2 0x1417 JUMPI DUP3 SWAP1 SUB PUSH1 0x1F AND DUP3 ADD SWAP2 JUMPDEST POP POP POP POP POP SWAP1 DUP1 PUSH1 0x7 ADD SLOAD SWAP1 DUP1 PUSH1 0x8 ADD SLOAD SWAP1 DUP1 PUSH1 0x9 ADD PUSH1 0x0 SWAP1 SLOAD SWAP1 PUSH2 0x100 EXP SWAP1 DIV PUSH1 0xFF AND SWAP1 DUP1 PUSH1 0xD ADD SLOAD SWAP1 POP DUP12 JUMP JUMPDEST PUSH1 0x9 PUSH1 0x0 SWAP1 SLOAD SWAP1 PUSH2 0x100 EXP SWAP1 DIV PUSH1 0xFF AND DUP2 JUMP JUMPDEST PUSH1 0x60 PUSH1 0x0 DUP3 DUP2 SLOAD DUP2 LT PUSH2 0x148C JUMPI PUSH2 0x148B PUSH2 0x241D JUMP JUMPDEST JUMPDEST SWAP1 PUSH1 0x0 MSTORE PUSH1 0x20 PUSH1 0x0 KECCAK256 SWAP1 PUSH1 0xE MUL ADD PUSH1 0xC ADD DUP1 SLOAD DUP1 PUSH1 0x20 MUL PUSH1 0x20 ADD PUSH1 0x40 MLOAD SWAP1 DUP2 ADD PUSH1 0x40 MSTORE DUP1 SWAP3 SWAP2 SWAP1 DUP2 DUP2 MSTORE PUSH1 0x20 ADD PUSH1 0x0 SWAP1 JUMPDEST DUP3 DUP3 LT ISZERO PUSH2 0x1569 JUMPI DUP4 DUP3 SWAP1 PUSH1 0x0 MSTORE PUSH1 0x20 PUSH1 0x0 KECCAK256 ADD DUP1 SLOAD PUSH2 0x14DC SWAP1 PUSH2 0x24F3 JUMP JUMPDEST DUP1 PUSH1 0x1F ADD PUSH1 0x20 DUP1 SWAP2 DIV MUL PUSH1 0x20 ADD PUSH1 0x40 MLOAD SWAP1 DUP2 ADD PUSH1 0x40 MSTORE DUP1 SWAP3 SWAP2 SWAP1 DUP2 DUP2 MSTORE PUSH1 0x20 ADD DUP3 DUP1 SLOAD PUSH2 0x1508 SWAP1 PUSH2 0x24F3 JUMP JUMPDEST DUP1 ISZERO PUSH2 0x1555 JUMPI DUP1 PUSH1 0x1F LT PUSH2 0x152A JUMPI PUSH2 0x100 DUP1 DUP4 SLOAD DIV MUL DUP4 MSTORE SWAP2 PUSH1 0x20 ADD SWAP2 PUSH2 0x1555 JUMP JUMPDEST DUP3 ADD SWAP2 SWAP1 PUSH1 0x0 MSTORE PUSH1 0x20 PUSH1 0x0 KECCAK256 SWAP1 JUMPDEST DUP2 SLOAD DUP2 MSTORE SWAP1 PUSH1 0x1 ADD SWAP1 PUSH1 0x20 ADD DUP1 DUP4 GT PUSH2 0x1538 JUMPI DUP3 SWAP1 SUB PUSH1 0x1F AND DUP3 ADD SWAP2 JUMPDEST POP POP POP POP POP DUP2 MSTORE PUSH1 0x20 ADD SWAP1 PUSH1 0x1 ADD SWAP1 PUSH2 0x14BD JUMP JUMPDEST POP POP POP POP SWAP1 POP SWAP2 SWAP1 POP JUMP JUMPDEST PUSH1 0x0 PUSH1 0x3 SLOAD SWAP1 POP SWAP1 JUMP JUMPDEST PUSH1 0x7 SLOAD DUP2 JUMP JUMPDEST PUSH1 0x3 SLOAD CALLVALUE EQ PUSH2 0x1592 JUMPI PUSH1 0x0 DUP1 REVERT JUMPDEST PUSH1 0x0 ISZERO ISZERO PUSH1 0x6 PUSH1 0x0 CALLER PUSH20 0xFFFFFFFFFFFFFFFFFFFFFFFFFFFFFFFFFFFFFFFF AND PUSH20 0xFFFFFFFFFFFFFFFFFFFFFFFFFFFFFFFFFFFFFFFF AND DUP2 MSTORE PUSH1 0x20 ADD SWAP1 DUP2 MSTORE PUSH1 0x20 ADD PUSH1 0x0 KECCAK256 PUSH1 0x0 SWAP1 SLOAD SWAP1 PUSH2 0x100 EXP SWAP1 DIV PUSH1 0xFF AND ISZERO ISZERO EQ PUSH2 0x1625 JUMPI PUSH1 0x40 MLOAD PUSH32 0x8C379A000000000000000000000000000000000000000000000000000000000 DUP2 MSTORE PUSH1 0x4 ADD PUSH2 0x161C SWAP1 PUSH2 0x267C JUMP JUMPDEST PUSH1 0x40 MLOAD DUP1 SWAP2 SUB SWAP1 REVERT JUMPDEST PUSH1 0x1 PUSH1 0x6 PUSH1 0x0 CALLER PUSH20 0xFFFFFFFFFFFFFFFFFFFFFFFFFFFFFFFFFFFFFFFF AND PUSH20 0xFFFFFFFFFFFFFFFFFFFFFFFFFFFFFFFFFFFFFFFF AND DUP2 MSTORE PUSH1 0x20 ADD SWAP1 DUP2 MSTORE PUSH1 0x20 ADD PUSH1 0x0 KECCAK256 PUSH1 0x0 PUSH2 0x100 EXP DUP2 SLOAD DUP2 PUSH1 0xFF MUL NOT AND SWAP1 DUP4 ISZERO ISZERO MUL OR SWAP1 SSTORE POP PUSH1 0x7 PUSH1 0x0 DUP2 SLOAD DUP1 SWAP3 SWAP2 SWAP1 PUSH2 0x1690 SWAP1 PUSH2 0x247B JUMP JUMPDEST SWAP2 SWAP1 POP SSTORE POP JUMP JUMPDEST PUSH1 0x5 DUP1 SLOAD PUSH2 0x16A4 SWAP1 PUSH2 0x24F3 JUMP JUMPDEST DUP1 PUSH1 0x1F ADD PUSH1 0x20 DUP1 SWAP2 DIV MUL PUSH1 0x20 ADD PUSH1 0x40 MLOAD SWAP1 DUP2 ADD PUSH1 0x40 MSTORE DUP1 SWAP3 SWAP2 SWAP1 DUP2 DUP2 MSTORE PUSH1 0x20 ADD DUP3 DUP1 SLOAD PUSH2 0x16D0 SWAP1 PUSH2 0x24F3 JUMP JUMPDEST DUP1 ISZERO PUSH2 0x171D JUMPI DUP1 PUSH1 0x1F LT PUSH2 0x16F2 JUMPI PUSH2 0x100 DUP1 DUP4 SLOAD DIV MUL DUP4 MSTORE SWAP2 PUSH1 0x20 ADD SWAP2 PUSH2 0x171D JUMP JUMPDEST DUP3 ADD SWAP2 SWAP1 PUSH1 0x0 MSTORE PUSH1 0x20 PUSH1 0x0 KECCAK256 SWAP1 JUMPDEST DUP2 SLOAD DUP2 MSTORE SWAP1 PUSH1 0x1 ADD SWAP1 PUSH1 0x20 ADD DUP1 DUP4 GT PUSH2 0x1700 JUMPI DUP3 SWAP1 SUB PUSH1 0x1F AND DUP3 ADD SWAP2 JUMPDEST POP POP POP POP POP DUP2 JUMP JUMPDEST PUSH1 0x0 DUP1 DUP1 SLOAD SWAP1 POP SWAP1 POP SWAP1 JUMP JUMPDEST PUSH1 0x6 PUSH1 0x20 MSTORE DUP1 PUSH1 0x0 MSTORE PUSH1 0x40 PUSH1 0x0 KECCAK256 PUSH1 0x0 SWAP2 POP SLOAD SWAP1 PUSH2 0x100 EXP SWAP1 DIV PUSH1 0xFF AND DUP2 JUMP JUMPDEST PUSH1 0x3 SLOAD DUP2 JUMP JUMPDEST PUSH1 0x8 SLOAD DUP2 JUMP JUMPDEST PUSH1 0x1 PUSH1 0x0 SWAP1 SLOAD SWAP1 PUSH2 0x100 EXP SWAP1 DIV PUSH20 0xFFFFFFFFFFFFFFFFFFFFFFFFFFFFFFFFFFFFFFFF AND PUSH20 0xFFFFFFFFFFFFFFFFFFFFFFFFFFFFFFFFFFFFFFFF AND CALLER PUSH20 0xFFFFFFFFFFFFFFFFFFFFFFFFFFFFFFFFFFFFFFFF AND EQ PUSH2 0x17B7 JUMPI PUSH1 0x0 DUP1 REVERT JUMPDEST PUSH1 0x0 DUP1 PUSH1 0x1 DUP2 PUSH1 0x1 DUP2 SLOAD ADD DUP1 DUP3 SSTORE DUP1 SWAP2 POP POP SUB SWAP1 PUSH1 0x0 MSTORE PUSH1 0x20 PUSH1 0x0 KECCAK256 SWAP1 PUSH1 0xE MUL ADD SWAP1 POP DUP7 DUP2 PUSH1 0x0 ADD SWAP1 DUP1 MLOAD SWAP1 PUSH1 0x20 ADD SWAP1 PUSH2 0x17F2 SWAP3 SWAP2 SWAP1 PUSH2 0x1A80 JUMP JUMPDEST POP DUP6 DUP2 PUSH1 0x1 ADD SWAP1 DUP1 MLOAD SWAP1 PUSH1 0x20 ADD SWAP1 PUSH2 0x180B SWAP3 SWAP2 SWAP1 PUSH2 0x1A80 JUMP JUMPDEST POP DUP4 DUP2 PUSH1 0x2 ADD SWAP1 DUP1 MLOAD SWAP1 PUSH1 0x20 ADD SWAP1 PUSH2 0x1824 SWAP3 SWAP2 SWAP1 PUSH2 0x1A80 JUMP JUMPDEST POP PUSH1 0x64 DUP2 PUSH1 0x3 ADD DUP2 SWAP1 SSTORE POP DUP3 DUP2 PUSH1 0x4 ADD SWAP1 DUP1 MLOAD SWAP1 PUSH1 0x20 ADD SWAP1 PUSH2 0x1847 SWAP3 SWAP2 SWAP1 PUSH2 0x1A80 JUMP JUMPDEST POP PUSH1 0xC8 DUP2 PUSH1 0x5 ADD DUP2 SWAP1 SSTORE POP DUP2 DUP2 PUSH1 0x6 ADD SWAP1 DUP1 MLOAD SWAP1 PUSH1 0x20 ADD SWAP1 PUSH2 0x186A SWAP3 SWAP2 SWAP1 PUSH2 0x1A80 JUMP JUMPDEST POP PUSH2 0x12C DUP2 PUSH1 0x7 ADD DUP2 SWAP1 SSTORE POP PUSH1 0x0 DUP2 PUSH1 0x8 ADD DUP2 SWAP1 SSTORE POP PUSH1 0x0 DUP2 PUSH1 0x9 ADD PUSH1 0x0 PUSH2 0x100 EXP DUP2 SLOAD DUP2 PUSH1 0xFF MUL NOT AND SWAP1 DUP4 ISZERO ISZERO MUL OR SWAP1 SSTORE POP PUSH1 0x0 DUP2 PUSH1 0xD ADD DUP2 SWAP1 SSTORE POP PUSH1 0x1 DUP2 PUSH1 0xB ADD DUP7 PUSH1 0x40 MLOAD PUSH2 0x18BB SWAP2 SWAP1 PUSH2 0x2561 JUMP JUMPDEST SWAP1 DUP2 MSTORE PUSH1 0x20 ADD PUSH1 0x40 MLOAD DUP1 SWAP2 SUB SWAP1 KECCAK256 PUSH1 0x0 PUSH2 0x100 EXP DUP2 SLOAD DUP2 PUSH1 0xFF MUL NOT AND SWAP1 DUP4 ISZERO ISZERO MUL OR SWAP1 SSTORE POP POP POP POP POP POP POP POP JUMP JUMPDEST PUSH1 0x2 DUP1 SLOAD PUSH2 0x18F6 SWAP1 PUSH2 0x24F3 JUMP JUMPDEST DUP1 PUSH1 0x1F ADD PUSH1 0x20 DUP1 SWAP2 DIV MUL PUSH1 0x20 ADD PUSH1 0x40 MLOAD SWAP1 DUP2 ADD PUSH1 0x40 MSTORE DUP1 SWAP3 SWAP2 SWAP1 DUP2 DUP2 MSTORE PUSH1 0x20 ADD DUP3 DUP1 SLOAD PUSH2 0x1922 SWAP1 PUSH2 0x24F3 JUMP JUMPDEST DUP1 ISZERO PUSH2 0x196F JUMPI DUP1 PUSH1 0x1F LT PUSH2 0x1944 JUMPI PUSH2 0x100 DUP1 DUP4 SLOAD DIV MUL DUP4 MSTORE SWAP2 PUSH1 0x20 ADD SWAP2 PUSH2 0x196F JUMP JUMPDEST DUP3 ADD SWAP2 SWAP1 PUSH1 0x0 MSTORE PUSH1 0x20 PUSH1 0x0 KECCAK256 SWAP1 JUMPDEST DUP2 SLOAD DUP2 MSTORE SWAP1 PUSH1 0x1 ADD SWAP1 PUSH1 0x20 ADD DUP1 DUP4 GT PUSH2 0x1952 JUMPI DUP3 SWAP1 SUB PUSH1 0x1F AND DUP3 ADD SWAP2 JUMPDEST POP POP POP POP POP DUP2 JUMP JUMPDEST PUSH1 0x1 PUSH1 0x0 SWAP1 SLOAD SWAP1 PUSH2 0x100 EXP SWAP1 DIV PUSH20 0xFFFFFFFFFFFFFFFFFFFFFFFFFFFFFFFFFFFFFFFF AND PUSH20 0xFFFFFFFFFFFFFFFFFFFFFFFFFFFFFFFFFFFFFFFF AND CALLER PUSH20 0xFFFFFFFFFFFFFFFFFFFFFFFFFFFFFFFFFFFFFFFF AND EQ PUSH2 0x19D1 JUMPI PUSH1 0x0 DUP1 REVERT JUMPDEST PUSH1 0x0 DUP1 DUP5 DUP2 SLOAD DUP2 LT PUSH2 0x19E6 JUMPI PUSH2 0x19E5 PUSH2 0x241D JUMP JUMPDEST JUMPDEST SWAP1 PUSH1 0x0 MSTORE PUSH1 0x20 PUSH1 0x0 KECCAK256 SWAP1 PUSH1 0xE MUL ADD SWAP1 POP PUSH1 0x1 DUP4 LT ISZERO DUP1 ISZERO PUSH2 0x1A08 JUMPI POP PUSH1 0x3 DUP4 GT ISZERO JUMPDEST PUSH2 0x1A11 JUMPI PUSH1 0x0 DUP1 REVERT JUMPDEST PUSH1 0x1 DUP4 EQ ISZERO PUSH2 0x1A38 JUMPI DUP2 DUP2 PUSH1 0x2 ADD SWAP1 DUP1 MLOAD SWAP1 PUSH1 0x20 ADD SWAP1 PUSH2 0x1A32 SWAP3 SWAP2 SWAP1 PUSH2 0x1A80 JUMP JUMPDEST POP PUSH2 0x1A7A JUMP JUMPDEST PUSH1 0x2 DUP4 EQ ISZERO PUSH2 0x1A5F JUMPI DUP2 DUP2 PUSH1 0x4 ADD SWAP1 DUP1 MLOAD SWAP1 PUSH1 0x20 ADD SWAP1 PUSH2 0x1A59 SWAP3 SWAP2 SWAP1 PUSH2 0x1A80 JUMP JUMPDEST POP PUSH2 0x1A79 JUMP JUMPDEST DUP2 DUP2 PUSH1 0x6 ADD SWAP1 DUP1 MLOAD SWAP1 PUSH1 0x20 ADD SWAP1 PUSH2 0x1A77 SWAP3 SWAP2 SWAP1 PUSH2 0x1A80 JUMP JUMPDEST POP JUMPDEST JUMPDEST POP POP POP POP JUMP JUMPDEST DUP3 DUP1 SLOAD PUSH2 0x1A8C SWAP1 PUSH2 0x24F3 JUMP JUMPDEST SWAP1 PUSH1 0x0 MSTORE PUSH1 0x20 PUSH1 0x0 KECCAK256 SWAP1 PUSH1 0x1F ADD PUSH1 0x20 SWAP1 DIV DUP2 ADD SWAP3 DUP3 PUSH2 0x1AAE JUMPI PUSH1 0x0 DUP6 SSTORE PUSH2 0x1AF5 JUMP JUMPDEST DUP3 PUSH1 0x1F LT PUSH2 0x1AC7 JUMPI DUP1 MLOAD PUSH1 0xFF NOT AND DUP4 DUP1 ADD OR DUP6 SSTORE PUSH2 0x1AF5 JUMP JUMPDEST DUP3 DUP1 ADD PUSH1 0x1 ADD DUP6 SSTORE DUP3 ISZERO PUSH2 0x1AF5 JUMPI SWAP2 DUP3 ADD JUMPDEST DUP3 DUP2 GT ISZERO PUSH2 0x1AF4 JUMPI DUP3 MLOAD DUP3 SSTORE SWAP2 PUSH1 0x20 ADD SWAP2 SWAP1 PUSH1 0x1 ADD SWAP1 PUSH2 0x1AD9 JUMP JUMPDEST JUMPDEST POP SWAP1 POP PUSH2 0x1B02 SWAP2 SWAP1 PUSH2 0x1B06 JUMP JUMPDEST POP SWAP1 JUMP JUMPDEST JUMPDEST DUP1 DUP3 GT ISZERO PUSH2 0x1B1F JUMPI PUSH1 0x0 DUP2 PUSH1 0x0 SWAP1 SSTORE POP PUSH1 0x1 ADD PUSH2 0x1B07 JUMP JUMPDEST POP SWAP1 JUMP JUMPDEST PUSH1 0x0 PUSH1 0x40 MLOAD SWAP1 POP SWAP1 JUMP JUMPDEST PUSH1 0x0 DUP1 REVERT JUMPDEST PUSH1 0x0 DUP1 REVERT JUMPDEST PUSH1 0x0 PUSH20 0xFFFFFFFFFFFFFFFFFFFFFFFFFFFFFFFFFFFFFFFF DUP3 AND SWAP1 POP SWAP2 SWAP1 POP JUMP JUMPDEST PUSH1 0x0 PUSH2 0x1B62 DUP3 PUSH2 0x1B37 JUMP JUMPDEST SWAP1 POP SWAP2 SWAP1 POP JUMP JUMPDEST PUSH2 0x1B72 DUP2 PUSH2 0x1B57 JUMP JUMPDEST DUP2 EQ PUSH2 0x1B7D JUMPI PUSH1 0x0 DUP1 REVERT JUMPDEST POP JUMP JUMPDEST PUSH1 0x0 DUP2 CALLDATALOAD SWAP1 POP PUSH2 0x1B8F DUP2 PUSH2 0x1B69 JUMP JUMPDEST SWAP3 SWAP2 POP POP JUMP JUMPDEST PUSH1 0x0 PUSH1 0x20 DUP3 DUP5 SUB SLT ISZERO PUSH2 0x1BAB JUMPI PUSH2 0x1BAA PUSH2 0x1B2D JUMP JUMPDEST JUMPDEST PUSH1 0x0 PUSH2 0x1BB9 DUP5 DUP3 DUP6 ADD PUSH2 0x1B80 JUMP JUMPDEST SWAP2 POP POP SWAP3 SWAP2 POP POP JUMP JUMPDEST PUSH1 0x0 DUP1 REVERT JUMPDEST PUSH1 0x0 DUP1 REVERT JUMPDEST PUSH1 0x0 PUSH1 0x1F NOT PUSH1 0x1F DUP4 ADD AND SWAP1 POP SWAP2 SWAP1 POP JUMP JUMPDEST PUSH32 0x4E487B7100000000000000000000000000000000000000000000000000000000 PUSH1 0x0 MSTORE PUSH1 0x41 PUSH1 0x4 MSTORE PUSH1 0x24 PUSH1 0x0 REVERT JUMPDEST PUSH2 0x1C15 DUP3 PUSH2 0x1BCC JUMP JUMPDEST DUP2 ADD DUP2 DUP2 LT PUSH8 0xFFFFFFFFFFFFFFFF DUP3 GT OR ISZERO PUSH2 0x1C34 JUMPI PUSH2 0x1C33 PUSH2 0x1BDD JUMP JUMPDEST JUMPDEST DUP1 PUSH1 0x40 MSTORE POP POP POP JUMP JUMPDEST PUSH1 0x0 PUSH2 0x1C47 PUSH2 0x1B23 JUMP JUMPDEST SWAP1 POP PUSH2 0x1C53 DUP3 DUP3 PUSH2 0x1C0C JUMP JUMPDEST SWAP2 SWAP1 POP JUMP JUMPDEST PUSH1 0x0 PUSH8 0xFFFFFFFFFFFFFFFF DUP3 GT ISZERO PUSH2 0x1C73 JUMPI PUSH2 0x1C72 PUSH2 0x1BDD JUMP JUMPDEST JUMPDEST PUSH2 0x1C7C DUP3 PUSH2 0x1BCC JUMP JUMPDEST SWAP1 POP PUSH1 0x20 DUP2 ADD SWAP1 POP SWAP2 SWAP1 POP JUMP JUMPDEST DUP3 DUP2 DUP4 CALLDATACOPY PUSH1 0x0 DUP4 DUP4 ADD MSTORE POP POP POP JUMP JUMPDEST PUSH1 0x0 PUSH2 0x1CAB PUSH2 0x1CA6 DUP5 PUSH2 0x1C58 JUMP JUMPDEST PUSH2 0x1C3D JUMP JUMPDEST SWAP1 POP DUP3 DUP2 MSTORE PUSH1 0x20 DUP2 ADD DUP5 DUP5 DUP5 ADD GT ISZERO PUSH2 0x1CC7 JUMPI PUSH2 0x1CC6 PUSH2 0x1BC7 JUMP JUMPDEST JUMPDEST PUSH2 0x1CD2 DUP5 DUP3 DUP6 PUSH2 0x1C89 JUMP JUMPDEST POP SWAP4 SWAP3 POP POP POP JUMP JUMPDEST PUSH1 0x0 DUP3 PUSH1 0x1F DUP4 ADD SLT PUSH2 0x1CEF JUMPI PUSH2 0x1CEE PUSH2 0x1BC2 JUMP JUMPDEST JUMPDEST DUP2 CALLDATALOAD PUSH2 0x1CFF DUP5 DUP3 PUSH1 0x20 DUP7 ADD PUSH2 0x1C98 JUMP JUMPDEST SWAP2 POP POP SWAP3 SWAP2 POP POP JUMP JUMPDEST PUSH1 0x0 PUSH1 0x20 DUP3 DUP5 SUB SLT ISZERO PUSH2 0x1D1E JUMPI PUSH2 0x1D1D PUSH2 0x1B2D JUMP JUMPDEST JUMPDEST PUSH1 0x0 DUP3 ADD CALLDATALOAD PUSH8 0xFFFFFFFFFFFFFFFF DUP2 GT ISZERO PUSH2 0x1D3C JUMPI PUSH2 0x1D3B PUSH2 0x1B32 JUMP JUMPDEST JUMPDEST PUSH2 0x1D48 DUP5 DUP3 DUP6 ADD PUSH2 0x1CDA JUMP JUMPDEST SWAP2 POP POP SWAP3 SWAP2 POP POP JUMP JUMPDEST PUSH1 0x0 DUP2 MLOAD SWAP1 POP SWAP2 SWAP1 POP JUMP JUMPDEST PUSH1 0x0 DUP3 DUP3 MSTORE PUSH1 0x20 DUP3 ADD SWAP1 POP SWAP3 SWAP2 POP POP JUMP JUMPDEST PUSH1 0x0 JUMPDEST DUP4 DUP2 LT ISZERO PUSH2 0x1D8B JUMPI DUP1 DUP3 ADD MLOAD DUP2 DUP5 ADD MSTORE PUSH1 0x20 DUP2 ADD SWAP1 POP PUSH2 0x1D70 JUMP JUMPDEST DUP4 DUP2 GT ISZERO PUSH2 0x1D9A JUMPI PUSH1 0x0 DUP5 DUP5 ADD MSTORE JUMPDEST POP POP POP POP JUMP JUMPDEST PUSH1 0x0 PUSH2 0x1DAB DUP3 PUSH2 0x1D51 JUMP JUMPDEST PUSH2 0x1DB5 DUP2 DUP6 PUSH2 0x1D5C JUMP JUMPDEST SWAP4 POP PUSH2 0x1DC5 DUP2 DUP6 PUSH1 0x20 DUP7 ADD PUSH2 0x1D6D JUMP JUMPDEST PUSH2 0x1DCE DUP2 PUSH2 0x1BCC JUMP JUMPDEST DUP5 ADD SWAP2 POP POP SWAP3 SWAP2 POP POP JUMP JUMPDEST PUSH1 0x0 PUSH1 0x20 DUP3 ADD SWAP1 POP DUP2 DUP2 SUB PUSH1 0x0 DUP4 ADD MSTORE PUSH2 0x1DF3 DUP2 DUP5 PUSH2 0x1DA0 JUMP JUMPDEST SWAP1 POP SWAP3 SWAP2 POP POP JUMP JUMPDEST PUSH1 0x0 DUP2 SWAP1 POP SWAP2 SWAP1 POP JUMP JUMPDEST PUSH2 0x1E0E DUP2 PUSH2 0x1DFB JUMP JUMPDEST DUP2 EQ PUSH2 0x1E19 JUMPI PUSH1 0x0 DUP1 REVERT JUMPDEST POP JUMP JUMPDEST PUSH1 0x0 DUP2 CALLDATALOAD SWAP1 POP PUSH2 0x1E2B DUP2 PUSH2 0x1E05 JUMP JUMPDEST SWAP3 SWAP2 POP POP JUMP JUMPDEST PUSH1 0x0 PUSH1 0x20 DUP3 DUP5 SUB SLT ISZERO PUSH2 0x1E47 JUMPI PUSH2 0x1E46 PUSH2 0x1B2D JUMP JUMPDEST JUMPDEST PUSH1 0x0 PUSH2 0x1E55 DUP5 DUP3 DUP6 ADD PUSH2 0x1E1C JUMP JUMPDEST SWAP2 POP POP SWAP3 SWAP2 POP POP JUMP JUMPDEST PUSH2 0x1E67 DUP2 PUSH2 0x1DFB JUMP JUMPDEST DUP3 MSTORE POP POP JUMP JUMPDEST PUSH1 0x0 DUP2 ISZERO ISZERO SWAP1 POP SWAP2 SWAP1 POP JUMP JUMPDEST PUSH2 0x1E82 DUP2 PUSH2 0x1E6D JUMP JUMPDEST DUP3 MSTORE POP POP JUMP JUMPDEST PUSH1 0x0 PUSH1 0x80 DUP3 ADD SWAP1 POP DUP2 DUP2 SUB PUSH1 0x0 DUP4 ADD MSTORE PUSH2 0x1EA2 DUP2 DUP8 PUSH2 0x1DA0 JUMP JUMPDEST SWAP1 POP DUP2 DUP2 SUB PUSH1 0x20 DUP4 ADD MSTORE PUSH2 0x1EB6 DUP2 DUP7 PUSH2 0x1DA0 JUMP JUMPDEST SWAP1 POP PUSH2 0x1EC5 PUSH1 0x40 DUP4 ADD DUP6 PUSH2 0x1E5E JUMP JUMPDEST PUSH2 0x1ED2 PUSH1 0x60 DUP4 ADD DUP5 PUSH2 0x1E79 JUMP JUMPDEST SWAP6 SWAP5 POP POP POP POP POP JUMP JUMPDEST PUSH1 0x0 DUP1 PUSH1 0x40 DUP4 DUP6 SUB SLT ISZERO PUSH2 0x1EF2 JUMPI PUSH2 0x1EF1 PUSH2 0x1B2D JUMP JUMPDEST JUMPDEST PUSH1 0x0 PUSH2 0x1F00 DUP6 DUP3 DUP7 ADD PUSH2 0x1E1C JUMP JUMPDEST SWAP3 POP POP PUSH1 0x20 DUP4 ADD CALLDATALOAD PUSH8 0xFFFFFFFFFFFFFFFF DUP2 GT ISZERO PUSH2 0x1F21 JUMPI PUSH2 0x1F20 PUSH2 0x1B32 JUMP JUMPDEST JUMPDEST PUSH2 0x1F2D DUP6 DUP3 DUP7 ADD PUSH2 0x1CDA JUMP JUMPDEST SWAP2 POP POP SWAP3 POP SWAP3 SWAP1 POP JUMP JUMPDEST PUSH1 0x0 PUSH1 0x20 DUP3 ADD SWAP1 POP PUSH2 0x1F4C PUSH1 0x0 DUP4 ADD DUP5 PUSH2 0x1E79 JUMP JUMPDEST SWAP3 SWAP2 POP POP JUMP JUMPDEST PUSH1 0x0 DUP1 PUSH1 0x0 PUSH1 0x60 DUP5 DUP7 SUB SLT ISZERO PUSH2 0x1F6B JUMPI PUSH2 0x1F6A PUSH2 0x1B2D JUMP JUMPDEST JUMPDEST PUSH1 0x0 PUSH2 0x1F79 DUP7 DUP3 DUP8 ADD PUSH2 0x1E1C JUMP JUMPDEST SWAP4 POP POP PUSH1 0x20 PUSH2 0x1F8A DUP7 DUP3 DUP8 ADD PUSH2 0x1E1C JUMP JUMPDEST SWAP3 POP POP PUSH1 0x40 PUSH2 0x1F9B DUP7 DUP3 DUP8 ADD PUSH2 0x1E1C JUMP JUMPDEST SWAP2 POP POP SWAP3 POP SWAP3 POP SWAP3 JUMP JUMPDEST PUSH2 0x1FAE DUP2 PUSH2 0x1B57 JUMP JUMPDEST DUP3 MSTORE POP POP JUMP JUMPDEST PUSH1 0x0 PUSH2 0x100 DUP3 ADD SWAP1 POP PUSH2 0x1FCA PUSH1 0x0 DUP4 ADD DUP12 PUSH2 0x1FA5 JUMP JUMPDEST DUP2 DUP2 SUB PUSH1 0x20 DUP4 ADD MSTORE PUSH2 0x1FDC DUP2 DUP11 PUSH2 0x1DA0 JUMP JUMPDEST SWAP1 POP DUP2 DUP2 SUB PUSH1 0x40 DUP4 ADD MSTORE PUSH2 0x1FF0 DUP2 DUP10 PUSH2 0x1DA0 JUMP JUMPDEST SWAP1 POP DUP2 DUP2 SUB PUSH1 0x60 DUP4 ADD MSTORE PUSH2 0x2004 DUP2 DUP9 PUSH2 0x1DA0 JUMP JUMPDEST SWAP1 POP PUSH2 0x2013 PUSH1 0x80 DUP4 ADD DUP8 PUSH2 0x1E5E JUMP JUMPDEST PUSH2 0x2020 PUSH1 0xA0 DUP4 ADD DUP7 PUSH2 0x1E5E JUMP JUMPDEST PUSH2 0x202D PUSH1 0xC0 DUP4 ADD DUP6 PUSH2 0x1E5E JUMP JUMPDEST PUSH2 0x203A PUSH1 0xE0 DUP4 ADD DUP5 PUSH2 0x1E79 JUMP JUMPDEST SWAP10 SWAP9 POP POP POP POP POP POP POP POP POP JUMP JUMPDEST PUSH1 0x0 PUSH1 0x20 DUP3 ADD SWAP1 POP PUSH2 0x205C PUSH1 0x0 DUP4 ADD DUP5 PUSH2 0x1FA5 JUMP JUMPDEST SWAP3 SWAP2 POP POP JUMP JUMPDEST PUSH1 0x0 PUSH1 0x20 DUP3 ADD SWAP1 POP PUSH2 0x2077 PUSH1 0x0 DUP4 ADD DUP5 PUSH2 0x1E5E JUMP JUMPDEST SWAP3 SWAP2 POP POP JUMP JUMPDEST PUSH1 0x0 PUSH2 0x160 DUP3 ADD SWAP1 POP DUP2 DUP2 SUB PUSH1 0x0 DUP4 ADD MSTORE PUSH2 0x2098 DUP2 DUP15 PUSH2 0x1DA0 JUMP JUMPDEST SWAP1 POP DUP2 DUP2 SUB PUSH1 0x20 DUP4 ADD MSTORE PUSH2 0x20AC DUP2 DUP14 PUSH2 0x1DA0 JUMP JUMPDEST SWAP1 POP DUP2 DUP2 SUB PUSH1 0x40 DUP4 ADD MSTORE PUSH2 0x20C0 DUP2 DUP13 PUSH2 0x1DA0 JUMP JUMPDEST SWAP1 POP PUSH2 0x20CF PUSH1 0x60 DUP4 ADD DUP12 PUSH2 0x1E5E JUMP JUMPDEST DUP2 DUP2 SUB PUSH1 0x80 DUP4 ADD MSTORE PUSH2 0x20E1 DUP2 DUP11 PUSH2 0x1DA0 JUMP JUMPDEST SWAP1 POP PUSH2 0x20F0 PUSH1 0xA0 DUP4 ADD DUP10 PUSH2 0x1E5E JUMP JUMPDEST DUP2 DUP2 SUB PUSH1 0xC0 DUP4 ADD MSTORE PUSH2 0x2102 DUP2 DUP9 PUSH2 0x1DA0 JUMP JUMPDEST SWAP1 POP PUSH2 0x2111 PUSH1 0xE0 DUP4 ADD DUP8 PUSH2 0x1E5E JUMP JUMPDEST PUSH2 0x211F PUSH2 0x100 DUP4 ADD DUP7 PUSH2 0x1E5E JUMP JUMPDEST PUSH2 0x212D PUSH2 0x120 DUP4 ADD DUP6 PUSH2 0x1E79 JUMP JUMPDEST PUSH2 0x213B PUSH2 0x140 DUP4 ADD DUP5 PUSH2 0x1E5E JUMP JUMPDEST SWAP13 SWAP12 POP POP POP POP POP POP POP POP POP POP POP POP JUMP JUMPDEST PUSH1 0x0 DUP2 MLOAD SWAP1 POP SWAP2 SWAP1 POP JUMP JUMPDEST PUSH1 0x0 DUP3 DUP3 MSTORE PUSH1 0x20 DUP3 ADD SWAP1 POP SWAP3 SWAP2 POP POP JUMP JUMPDEST PUSH1 0x0 DUP2 SWAP1 POP PUSH1 0x20 DUP3 ADD SWAP1 POP SWAP2 SWAP1 POP JUMP JUMPDEST PUSH1 0x0 DUP3 DUP3 MSTORE PUSH1 0x20 DUP3 ADD SWAP1 POP SWAP3 SWAP2 POP POP JUMP JUMPDEST PUSH1 0x0 PUSH2 0x2193 DUP3 PUSH2 0x1D51 JUMP JUMPDEST PUSH2 0x219D DUP2 DUP6 PUSH2 0x2177 JUMP JUMPDEST SWAP4 POP PUSH2 0x21AD DUP2 DUP6 PUSH1 0x20 DUP7 ADD PUSH2 0x1D6D JUMP JUMPDEST PUSH2 0x21B6 DUP2 PUSH2 0x1BCC JUMP JUMPDEST DUP5 ADD SWAP2 POP POP SWAP3 SWAP2 POP POP JUMP JUMPDEST PUSH1 0x0 PUSH2 0x21CD DUP4 DUP4 PUSH2 0x2188 JUMP JUMPDEST SWAP1 POP SWAP3 SWAP2 POP POP JUMP JUMPDEST PUSH1 0x0 PUSH1 0x20 DUP3 ADD SWAP1 POP SWAP2 SWAP1 POP JUMP JUMPDEST PUSH1 0x0 PUSH2 0x21ED DUP3 PUSH2 0x214B JUMP JUMPDEST PUSH2 0x21F7 DUP2 DUP6 PUSH2 0x2156 JUMP JUMPDEST SWAP4 POP DUP4 PUSH1 0x20 DUP3 MUL DUP6 ADD PUSH2 0x2209 DUP6 PUSH2 0x2167 JUMP JUMPDEST DUP1 PUSH1 0x0 JUMPDEST DUP6 DUP2 LT ISZERO PUSH2 0x2245 JUMPI DUP5 DUP5 SUB DUP10 MSTORE DUP2 MLOAD PUSH2 0x2226 DUP6 DUP3 PUSH2 0x21C1 JUMP JUMPDEST SWAP5 POP PUSH2 0x2231 DUP4 PUSH2 0x21D5 JUMP JUMPDEST SWAP3 POP PUSH1 0x20 DUP11 ADD SWAP10 POP POP PUSH1 0x1 DUP2 ADD SWAP1 POP PUSH2 0x220D JUMP JUMPDEST POP DUP3 SWAP8 POP DUP8 SWAP6 POP POP POP POP POP POP SWAP3 SWAP2 POP POP JUMP JUMPDEST PUSH1 0x0 PUSH1 0x20 DUP3 ADD SWAP1 POP DUP2 DUP2 SUB PUSH1 0x0 DUP4 ADD MSTORE PUSH2 0x2271 DUP2 DUP5 PUSH2 0x21E2 JUMP JUMPDEST SWAP1 POP SWAP3 SWAP2 POP POP JUMP JUMPDEST PUSH1 0x0 DUP1 PUSH1 0x0 DUP1 PUSH1 0x0 DUP1 PUSH1 0xC0 DUP8 DUP10 SUB SLT ISZERO PUSH2 0x2296 JUMPI PUSH2 0x2295 PUSH2 0x1B2D JUMP JUMPDEST JUMPDEST PUSH1 0x0 DUP8 ADD CALLDATALOAD PUSH8 0xFFFFFFFFFFFFFFFF DUP2 GT ISZERO PUSH2 0x22B4 JUMPI PUSH2 0x22B3 PUSH2 0x1B32 JUMP JUMPDEST JUMPDEST PUSH2 0x22C0 DUP10 DUP3 DUP11 ADD PUSH2 0x1CDA JUMP JUMPDEST SWAP7 POP POP PUSH1 0x20 DUP8 ADD CALLDATALOAD PUSH8 0xFFFFFFFFFFFFFFFF DUP2 GT ISZERO PUSH2 0x22E1 JUMPI PUSH2 0x22E0 PUSH2 0x1B32 JUMP JUMPDEST JUMPDEST PUSH2 0x22ED DUP10 DUP3 DUP11 ADD PUSH2 0x1CDA JUMP JUMPDEST SWAP6 POP POP PUSH1 0x40 DUP8 ADD CALLDATALOAD PUSH8 0xFFFFFFFFFFFFFFFF DUP2 GT ISZERO PUSH2 0x230E JUMPI PUSH2 0x230D PUSH2 0x1B32 JUMP JUMPDEST JUMPDEST PUSH2 0x231A DUP10 DUP3 DUP11 ADD PUSH2 0x1CDA JUMP JUMPDEST SWAP5 POP POP PUSH1 0x60 DUP8 ADD CALLDATALOAD PUSH8 0xFFFFFFFFFFFFFFFF DUP2 GT ISZERO PUSH2 0x233B JUMPI PUSH2 0x233A PUSH2 0x1B32 JUMP JUMPDEST JUMPDEST PUSH2 0x2347 DUP10 DUP3 DUP11 ADD PUSH2 0x1CDA JUMP JUMPDEST SWAP4 POP POP PUSH1 0x80 DUP8 ADD CALLDATALOAD PUSH8 0xFFFFFFFFFFFFFFFF DUP2 GT ISZERO PUSH2 0x2368 JUMPI PUSH2 0x2367 PUSH2 0x1B32 JUMP JUMPDEST JUMPDEST PUSH2 0x2374 DUP10 DUP3 DUP11 ADD PUSH2 0x1CDA JUMP JUMPDEST SWAP3 POP POP PUSH1 0xA0 DUP8 ADD CALLDATALOAD PUSH8 0xFFFFFFFFFFFFFFFF DUP2 GT ISZERO PUSH2 0x2395 JUMPI PUSH2 0x2394 PUSH2 0x1B32 JUMP JUMPDEST JUMPDEST PUSH2 0x23A1 DUP10 DUP3 DUP11 ADD PUSH2 0x1CDA JUMP JUMPDEST SWAP2 POP POP SWAP3 SWAP6 POP SWAP3 SWAP6 POP SWAP3 SWAP6 JUMP JUMPDEST PUSH1 0x0 DUP1 PUSH1 0x0 PUSH1 0x60 DUP5 DUP7 SUB SLT ISZERO PUSH2 0x23C7 JUMPI PUSH2 0x23C6 PUSH2 0x1B2D JUMP JUMPDEST JUMPDEST PUSH1 0x0 PUSH2 0x23D5 DUP7 DUP3 DUP8 ADD PUSH2 0x1E1C JUMP JUMPDEST SWAP4 POP POP PUSH1 0x20 PUSH2 0x23E6 DUP7 DUP3 DUP8 ADD PUSH2 0x1E1C JUMP JUMPDEST SWAP3 POP POP PUSH1 0x40 DUP5 ADD CALLDATALOAD PUSH8 0xFFFFFFFFFFFFFFFF DUP2 GT ISZERO PUSH2 0x2407 JUMPI PUSH2 0x2406 PUSH2 0x1B32 JUMP JUMPDEST JUMPDEST PUSH2 0x2413 DUP7 DUP3 DUP8 ADD PUSH2 0x1CDA JUMP JUMPDEST SWAP2 POP POP SWAP3 POP SWAP3 POP SWAP3 JUMP JUMPDEST PUSH32 0x4E487B7100000000000000000000000000000000000000000000000000000000 PUSH1 0x0 MSTORE PUSH1 0x32 PUSH1 0x4 MSTORE PUSH1 0x24 PUSH1 0x0 REVERT JUMPDEST PUSH32 0x4E487B7100000000000000000000000000000000000000000000000000000000 PUSH1 0x0 MSTORE PUSH1 0x11 PUSH1 0x4 MSTORE PUSH1 0x24 PUSH1 0x0 REVERT JUMPDEST PUSH1 0x0 PUSH2 0x2486 DUP3 PUSH2 0x1DFB JUMP JUMPDEST SWAP2 POP PUSH32 0xFFFFFFFFFFFFFFFFFFFFFFFFFFFFFFFFFFFFFFFFFFFFFFFFFFFFFFFFFFFFFFFF DUP3 EQ ISZERO PUSH2 0x24B9 JUMPI PUSH2 0x24B8 PUSH2 0x244C JUMP JUMPDEST JUMPDEST PUSH1 0x1 DUP3 ADD SWAP1 POP SWAP2 SWAP1 POP JUMP JUMPDEST PUSH32 0x4E487B7100000000000000000000000000000000000000000000000000000000 PUSH1 0x0 MSTORE PUSH1 0x22 PUSH1 0x4 MSTORE PUSH1 0x24 PUSH1 0x0 REVERT JUMPDEST PUSH1 0x0 PUSH1 0x2 DUP3 DIV SWAP1 POP PUSH1 0x1 DUP3 AND DUP1 PUSH2 0x250B JUMPI PUSH1 0x7F DUP3 AND SWAP2 POP JUMPDEST PUSH1 0x20 DUP3 LT DUP2 EQ ISZERO PUSH2 0x251F JUMPI PUSH2 0x251E PUSH2 0x24C4 JUMP JUMPDEST JUMPDEST POP SWAP2 SWAP1 POP JUMP JUMPDEST PUSH1 0x0 DUP2 SWAP1 POP SWAP3 SWAP2 POP POP JUMP JUMPDEST PUSH1 0x0 PUSH2 0x253B DUP3 PUSH2 0x1D51 JUMP JUMPDEST PUSH2 0x2545 DUP2 DUP6 PUSH2 0x2525 JUMP JUMPDEST SWAP4 POP PUSH2 0x2555 DUP2 DUP6 PUSH1 0x20 DUP7 ADD PUSH2 0x1D6D JUMP JUMPDEST DUP1 DUP5 ADD SWAP2 POP POP SWAP3 SWAP2 POP POP JUMP JUMPDEST PUSH1 0x0 PUSH2 0x256D DUP3 DUP5 PUSH2 0x2530 JUMP JUMPDEST SWAP2 POP DUP2 SWAP1 POP SWAP3 SWAP2 POP POP JUMP JUMPDEST PUSH32 0x566F7573206176657A2064656A612066696E6920636574746520456E69676D65 PUSH1 0x0 DUP3 ADD MSTORE PUSH32 0x2E00000000000000000000000000000000000000000000000000000000000000 PUSH1 0x20 DUP3 ADD MSTORE POP JUMP JUMPDEST PUSH1 0x0 PUSH2 0x25D4 PUSH1 0x21 DUP4 PUSH2 0x1D5C JUMP JUMPDEST SWAP2 POP PUSH2 0x25DF DUP3 PUSH2 0x2578 JUMP JUMPDEST PUSH1 0x40 DUP3 ADD SWAP1 POP SWAP2 SWAP1 POP JUMP JUMPDEST PUSH1 0x0 PUSH1 0x20 DUP3 ADD SWAP1 POP DUP2 DUP2 SUB PUSH1 0x0 DUP4 ADD MSTORE PUSH2 0x2603 DUP2 PUSH2 0x25C7 JUMP JUMPDEST SWAP1 POP SWAP2 SWAP1 POP JUMP JUMPDEST PUSH32 0x566F7573206176657A2064656A61207061796520706F75722063657474652051 PUSH1 0x0 DUP3 ADD MSTORE PUSH32 0x7565746500000000000000000000000000000000000000000000000000000000 PUSH1 0x20 DUP3 ADD MSTORE POP JUMP JUMPDEST PUSH1 0x0 PUSH2 0x2666 PUSH1 0x24 DUP4 PUSH2 0x1D5C JUMP JUMPDEST SWAP2 POP PUSH2 0x2671 DUP3 PUSH2 0x260A JUMP JUMPDEST PUSH1 0x40 DUP3 ADD SWAP1 POP SWAP2 SWAP1 POP JUMP JUMPDEST PUSH1 0x0 PUSH1 0x20 DUP3 ADD SWAP1 POP DUP2 DUP2 SUB PUSH1 0x0 DUP4 ADD MSTORE PUSH2 0x2695 DUP2 PUSH2 0x2659 JUMP JUMPDEST SWAP1 POP SWAP2 SWAP1 POP JUMP INVALID LOG2 PUSH5 0x6970667358 0x22 SLT KECCAK256 0xBD DUP9 STOP SSTORE 0xC 0xB3 PUSH30 0x6C6131377EAF136BDBC83F3F9B6114C752CF257358C23863F364736F6C63 NUMBER STOP ADDMOD SIGNEXTEND STOP CALLER "
    },
    "gasEstimates": {
      "creation": {
        "codeDepositCost": "1987600",
        "executionCost": "infinite",
        "totalCost": "infinite"
      },
      "external": {
        "createEnigme(string,string,string,string,string,string)": "infinite",
        "enigmeClueChange(uint256,uint256,string)": "infinite",
        "enigmeClueUnlockChange(uint256,uint256,uint256)": "infinite",
        "enigmeTitleChange(uint256,string)": "infinite",
        "enigmes(uint256)": "infinite",
        "getEnigmeCount()": "2490",
        "getEnigmePlayersResponses(uint256)": "infinite",
        "getEnigmeSummary(uint256)": "infinite",
        "getInQuest()": "53329",
        "getQuestBalance()": "428",
        "getQuestPrice()": "2504",
        "getQuestSummary()": "infinite",
        "getQuestTitle()": "infinite",
        "manager()": "2581",
        "players(address)": "2912",
        "playersCount()": "2518",
        "questCompleted()": "2494",
        "questDescription()": "infinite",
        "questPicture()": "infinite",
        "questPrice()": "2518",
        "questResponseCount()": "2473",
        "questTitle()": "infinite",
        "questTitleChange(string)": "infinite",
        "tryEnigmePlayerReponse(uint256,string)": "infinite",
        "withdrawBalanceQuest(address)": "infinite"
      }
    },
    "methodIdentifiers": {
      "createEnigme(string,string,string,string,string,string)": "f1061536",
      "enigmeClueChange(uint256,uint256,string)": "f37fd5e9",
      "enigmeClueUnlockChange(uint256,uint256,uint256)": "341c4f8e",
      "enigmeTitleChange(uint256,string)": "5db91dc1",
      "enigmes(uint256)": "627018ee",
      "getEnigmeCount()": "d99678dd",
      "getEnigmePlayersResponses(uint256)": "8ec8901d",
      "getEnigmeSummary(uint256)": "1c18c444",
      "getInQuest()": "b8a88369",
      "getQuestBalance()": "5b30b84d",
      "getQuestPrice()": "9164fa5d",
      "getQuestSummary()": "40e3a1d2",
      "getQuestTitle()": "24dd7d0e",
      "manager()": "481c6a75",
      "players(address)": "e2eb41ff",
      "playersCount()": "a3f67d6d",
      "questCompleted()": "819856a3",
      "questDescription()": "30304093",
      "questPicture()": "c44dd2f1",
      "questPrice()": "e95a5775",
      "questResponseCount()": "f007bf37",
      "questTitle()": "f294cf38",
      "questTitleChange(string)": "09248d24",
      "tryEnigmePlayerReponse(uint256,string)": "1f232f30",
      "withdrawBalanceQuest(address)": "06e4b16e"
    }
  },
  "storageLayout": {
    "storage": [
      {
        "astId": 208,
        "contract": "QuestEnigme.sol:Quest",
        "label": "enigmes",
        "offset": 0,
        "slot": "0",
        "type": "t_array(t_struct(Enigme)204_storage)dyn_storage"
      },
      {
        "astId": 210,
        "contract": "QuestEnigme.sol:Quest",
        "label": "manager",
        "offset": 0,
        "slot": "1",
        "type": "t_address"
      },
      {
        "astId": 212,
        "contract": "QuestEnigme.sol:Quest",
        "label": "questTitle",
        "offset": 0,
        "slot": "2",
        "type": "t_string_storage"
      },
      {
        "astId": 214,
        "contract": "QuestEnigme.sol:Quest",
        "label": "questPrice",
        "offset": 0,
        "slot": "3",
        "type": "t_uint256"
      },
      {
        "astId": 216,
        "contract": "QuestEnigme.sol:Quest",
        "label": "questDescription",
        "offset": 0,
        "slot": "4",
        "type": "t_string_storage"
      },
      {
        "astId": 218,
        "contract": "QuestEnigme.sol:Quest",
        "label": "questPicture",
        "offset": 0,
        "slot": "5",
        "type": "t_string_storage"
      },
      {
        "astId": 222,
        "contract": "QuestEnigme.sol:Quest",
        "label": "players",
        "offset": 0,
        "slot": "6",
        "type": "t_mapping(t_address,t_bool)"
      },
      {
        "astId": 224,
        "contract": "QuestEnigme.sol:Quest",
        "label": "playersCount",
        "offset": 0,
        "slot": "7",
        "type": "t_uint256"
      },
      {
        "astId": 226,
        "contract": "QuestEnigme.sol:Quest",
        "label": "questResponseCount",
        "offset": 0,
        "slot": "8",
        "type": "t_uint256"
      },
      {
        "astId": 228,
        "contract": "QuestEnigme.sol:Quest",
        "label": "questCompleted",
        "offset": 0,
        "slot": "9",
        "type": "t_bool"
      }
    ],
    "types": {
      "t_address": {
        "encoding": "inplace",
        "label": "address",
        "numberOfBytes": "20"
      },
      "t_array(t_string_storage)dyn_storage": {
        "base": "t_string_storage",
        "encoding": "dynamic_array",
        "label": "string[]",
        "numberOfBytes": "32"
      },
      "t_array(t_struct(Enigme)204_storage)dyn_storage": {
        "base": "t_struct(Enigme)204_storage",
        "encoding": "dynamic_array",
        "label": "struct Quest.Enigme[]",
        "numberOfBytes": "32"
      },
      "t_bool": {
        "encoding": "inplace",
        "label": "bool",
        "numberOfBytes": "1"
      },
      "t_mapping(t_address,t_bool)": {
        "encoding": "mapping",
        "key": "t_address",
        "label": "mapping(address => bool)",
        "numberOfBytes": "32",
        "value": "t_bool"
      },
      "t_mapping(t_string_memory_ptr,t_bool)": {
        "encoding": "mapping",
        "key": "t_string_memory_ptr",
        "label": "mapping(string => bool)",
        "numberOfBytes": "32",
        "value": "t_bool"
      },
      "t_string_memory_ptr": {
        "encoding": "bytes",
        "label": "string",
        "numberOfBytes": "32"
      },
      "t_string_storage": {
        "encoding": "bytes",
        "label": "string",
        "numberOfBytes": "32"
      },
      "t_struct(Enigme)204_storage": {
        "encoding": "inplace",
        "label": "struct Quest.Enigme",
        "members": [
          {
            "astId": 172,
            "contract": "QuestEnigme.sol:Quest",
            "label": "enigmeTitle",
            "offset": 0,
            "slot": "0",
            "type": "t_string_storage"
          },
          {
            "astId": 174,
            "contract": "QuestEnigme.sol:Quest",
            "label": "enigmeContent",
            "offset": 0,
            "slot": "1",
            "type": "t_string_storage"
          },
          {
            "astId": 176,
            "contract": "QuestEnigme.sol:Quest",
            "label": "enigmeClue1",
            "offset": 0,
            "slot": "2",
            "type": "t_string_storage"
          },
          {
            "astId": 178,
            "contract": "QuestEnigme.sol:Quest",
            "label": "enigmeClue1Unlock",
            "offset": 0,
            "slot": "3",
            "type": "t_uint256"
          },
          {
            "astId": 180,
            "contract": "QuestEnigme.sol:Quest",
            "label": "enigmeClue2",
            "offset": 0,
            "slot": "4",
            "type": "t_string_storage"
          },
          {
            "astId": 182,
            "contract": "QuestEnigme.sol:Quest",
            "label": "enigmeClue2Unlock",
            "offset": 0,
            "slot": "5",
            "type": "t_uint256"
          },
          {
            "astId": 184,
            "contract": "QuestEnigme.sol:Quest",
            "label": "enigmeClue3",
            "offset": 0,
            "slot": "6",
            "type": "t_string_storage"
          },
          {
            "astId": 186,
            "contract": "QuestEnigme.sol:Quest",
            "label": "enigmeClue3Unlock",
            "offset": 0,
            "slot": "7",
            "type": "t_uint256"
          },
          {
            "astId": 188,
            "contract": "QuestEnigme.sol:Quest",
            "label": "enigmeResponseCount",
            "offset": 0,
            "slot": "8",
            "type": "t_uint256"
          },
          {
            "astId": 190,
            "contract": "QuestEnigme.sol:Quest",
            "label": "enigmeComplete",
            "offset": 0,
            "slot": "9",
            "type": "t_bool"
          },
          {
            "astId": 194,
            "contract": "QuestEnigme.sol:Quest",
            "label": "enigmeFinishBy",
            "offset": 0,
            "slot": "10",
            "type": "t_mapping(t_address,t_bool)"
          },
          {
            "astId": 198,
            "contract": "QuestEnigme.sol:Quest",
            "label": "tryResponse",
            "offset": 0,
            "slot": "11",
            "type": "t_mapping(t_string_memory_ptr,t_bool)"
          },
          {
            "astId": 201,
            "contract": "QuestEnigme.sol:Quest",
            "label": "enigmePlayersResponses",
            "offset": 0,
            "slot": "12",
            "type": "t_array(t_string_storage)dyn_storage"
          },
          {
            "astId": 203,
            "contract": "QuestEnigme.sol:Quest",
            "label": "enigmeFinishByCount",
            "offset": 0,
            "slot": "13",
            "type": "t_uint256"
          }
        ],
        "numberOfBytes": "448"
      },
      "t_uint256": {
        "encoding": "inplace",
        "label": "uint256",
        "numberOfBytes": "32"
      }
    }
  },
  "userdoc": {
    "kind": "user",
    "methods": {},
    "version": 1
  }
}